:020000040000FA
:100800005F69FFFF0000007C41414141FFFFFFFFA6
:10081000FFFFFFFFFFFFFFFFFFFFFFFFFFFFFFFFE8
:10082000000102030405060708090A0BFFFFFFFF8A
:10083000020CDD0221BCFFFFFFFFFFFFFFFFFFFFF8
:10084000FFFFFFFFFFFFFFFFFFFFFFFFFFFFFFFFB8
:10085000FFFFFFFFFFFFFFFFFFFFFF0225EDFFFF91
:10086000FFFFFFFFFFFFFFFFFFFFFFFFFFFFFFFF98
:10087000FFFFFF0225C7FFFFFFFFFFFFFFFFFFFF97
:10088000FFFFFF022232FFFFFFFFFFFFFFFFFFFF1F
:10089000FFFFFFFFFFFFFFFFFFFFFFFFFFFFFFFF68
:1008A000FFFFFFFFFFFFFFFFFFFFFFFFFFFFFFFF58
:1008B000FFFFFF02206B0101FF0000B400002800D1
:1008C0002800283075A000A000A000A000000800AB
:1008D00008E001F0001000100010001000100010DF
:1008E0000050005000500010001000D00700000021
:1008F0000000000F00010005003075070010000126
:100900000081FF00000000FF60287E286628FF02AB
:10091000020208025000A0000000E8030256900105
:1009200000003991023E91010000901202449101B1
:100930000000AC05023E91010000911202469101B7
:100940000000C205023E910100009212024891018E
:100950000000C405023E910100009312024A910872
:100960000000C505023E910100009412024C910165
:1009700000009512FF0100FF200256900100002D9B
:1009800091023E91010000F912024E910000000018
:100990000002429103000012065A2E5A2E5A2E5A75
:1009A0002E5A2E5A2E5A2E5A2E5A2E5A2E5A2E5A07
:1009B0002E5A2EFA301231F430FF00400000004071
:1009C000000000400000004000000202020202029B
:1009D000020202010D000000100102569001000009
:1009E0003091023E910100004B1302609101000022
:1009F000B70E023E910100004C13025E910100000F
:100A00003390023E910100004D13025C9101000001
:100A1000FD8F023E910100004E13025A9101000029
:100A2000878F023E910100004F1302589101000090
:100A3000AB8F023E9101000050130256910100005D
:100A4000998F023E91010000511302749101000040
:100A5000758F023E91010000521302509101000077
:100A60000B90023E910100005313026491010000BB
:100A700054131C0256900100003691023E91010071
:100A800000F31310968E020000F41002429103004E
:100A900000F6100240910100001990023E91010001
:100AA00000F31310A68E020000F51002429103001D
:100AB00000FC100240910100004C90FFFFFF00017C
:100AC0003075030201060000000000000000000075
:100AD0000000000000000000000000000000000016
:100AE0000000FFFF0600800CE8030201060302E09D
:100AF000FF1A35203526350A4368617261637465D3
:100B000072697374696320310002436861726163C2
:100B10007465726973746963203200084368617296
:100B2000616374657269737469632033001043688C
:100B30006172616374657269737469632034000261
:100B400043686172616374657269737469632035A7
:100B5000001A4368617261637465726973746963D2
:100B60002036000256900100003391023E910100B0
:100B7000007814026891030000F411024091010012
:100B8000007914023E910100008A14026A9101006A
:100B900000F5110240910100008B14023E9101000A
:100BA000009C14026C91020000F6110240910100B9
:100BB000009D14023E91010000AE14026E910000EF
:100BC00000F711024291030000F811024091010068
:100BD00000AF14023E91010000C0140270910400A5
:100BE00000FE11024091010000C114023E9101007B
:100BF00000D214027291030000031202429103001A
:100C0000001712024091010000D314303132333406
:100C1000353637383941424344454600286E756CB5
:100C20006C20706F696E7465722900303132333414
:100C30003536373839616263646566003F3F3F008F
:100C40000000807F0000803FF9021550B743BA5181
:100C50000000204100E7DB2E0000A040E5C754F86B
:100C60004405F5C779012200000080FB120C5CB935
:100C70000003020CC7E479437808B800028004F747
:100C800009D8FCE4794B7802B800028004F709D84F
:100C9000FCE490028078B879108002F0A3D8FCD9E7
:100CA000FA7A377B129008B678A779048015E49316
:100CB000A3AD82AE838A828B83F0A3AA82AB838D9D
:100CC000828E83D8E9D9E77582017583CA740712C9
:100CD0000CEF75826775830C7400120CEF75D000F1
:100CE00075815F754180754202759F00020C6CC072
:100CF0009FF59FE473D09F22D083D082C09FE4935E
:100D0000C0E0740193C0E0740293F59F22E0667026
:100D10001008A3E066700A08A3E066700408A3E068
:100D20006622C021C3E096F52108A3E0964221087F
:100D3000A3E096422108A3E0964221A2D265D033D7
:100D4000E5217001D3D02122C3E7960809E7960870
:100D500009E7960809E79622C3E09608A3E09608FB
:100D6000A3E09608A3E09622C021C3E096F52108EF
:100D7000A3E096422108A3E096422108A3E096450D
:100D8000217001D3D02122080808E630E71112169D
:100D900041120D9F080808C64480C618181822186A
:100DA0001818E9799EC608CAC608CBC608CCC6C3BF
:100DB00070207996CACBCC7019798ECBCC70137910
:100DC00086CC700EF9802ACA33CACB33CBCC33CC55
:100DD000331930E7F2CCCBCA3350147004EA30E058
:100DE0000DE4CA3ACACB3BCBCC3CCC500209C3E998
:100DF00013C6CC182313C6CB18C6CA18C6F92212BC
:100E00000E3F20F01430E72B74FFFCFBFA747F8058
:100E100022E4FCFBFA7480801AB48008BC00F2BBA8
:100E200000EF800F50EBF9E4C39AFAE49BFBE49CDB
:100E3000FCE499C6CC18C6CB18C6CA18C6F922E479
:100E4000C9C608CAC608CBC6D3330308CCC633927A
:100E5000F0C3947F402E94184019C9B90704CACB37
:100E6000CC225025C309CA33CACB33CBCC33CC33C5
:100E7000D9F422F4600DC9CCC313CB13CBCA13CA67
:100E8000D9F6CC22E4FCFBFA2214FCFBFA22E6267B
:100E900018461846184622E72719471947194722C6
:100EA000181818E60846087009E626087005E633A3
:100EB000F4220822191919E70947097009E72709D7
:100EC0007005E733F4220922E6084608C3134608F2
:100ED000336002E633F422E7094709C313470933B5
:100EE0006002E733F422120EC86025120ED760208C
:100EF000120E8E7003020E97080808E7667010182D
:100F000019E766700A1819E76670041819E766226F
:100F1000F422120EC8601C120ED76017120E8E70CB
:100F200007120E977001D322C0D0120E977006D010
:100F3000D0B322C32233D0D0501430E0F6C3E796AA
:100F40000809E7960809E7960809E796B32220E022
:100F5000D5E6970809E6970809E6970809E697B3E2
:100F600022120EC8601B120ED76016120E8E70076A
:100F7000120E97600CB322C0D0120E977005D0D01D
:100F800022C32233D0D0501330E0EBC3E7960809D8
:100F9000E7960809E7960809E7962220E0E4E69735
:100FA0000809E6970809E6970809E6972200120E55
:100FB000C8604F120ED76012E7548066F6120EA07A
:100FC0007011120E97703B090909F4F618F618F61D
:100FD00018F622120EB47015120E8E08080860EA78
:100FE000E6447FF618768018E4F618F622120E8E84
:100FF0006016120E977012E4F608F608F608E6542A
:1010000080F609090918181822EAC0E0EBC0E0ECE4
:10101000C0E0EDC0E0E687F0A4FBACF008E687F0A6
:10102000A42CFCE435F0FA1809E687F0A42C4B60F8
:10103000027401CA35F0FCE433FB09E687F0D2F70D
:10104000A42CCB35F0FC1908E687F0A42BCC35F0A6
:10105000FBE433FD0819E687F0D2E7A42C4ACB3530
:10106000F0CD3400FC09E687F0D2E7A42DCC35F0B2
:10107000FDE433FA0918E687F0D2F7A42CCD35F059
:10108000CA3400FC08E687F0D2E7D2F7A42ACC35B0
:10109000F07A7E20E70B0ACB33CBCD33CDCC33CCEB
:1010A00033CB3350147004ED30E00ED2F1E4CD3D7B
:1010B000CDCC3CCC3B5005DA05C2F1EB547FC633B6
:1010C00008E63392F0FBE73309E733C39A502D2B40
:1010D00070190C0D4C4D70151806E608C333700DD1
:1010E00020F10AA2F013F6E418800B4024E4F63055
:1010F000F002768018F618F618F68024D33B1450C8
:101100001074FFA2F013F6187680E418F618F68033
:101110000FA2F013F618E63303F618ECF618EDF606
:10112000D0E0FDD0E0FCD0E0FBD0E0FA22120ED7F8
:101130006046120EC8603DE9687008F618F618F6A9
:1011400018F622748067F712116109090974806723
:10115000F722120EC8601D120ED7700519191980DA
:101160001A120EA0701F120EB4C37003E667331973
:10117000191940071818182208080874FFF618F6FD
:1011800018F618F622120EB46017120E97702192FC
:10119000F0120E8E7019501720F014080808090973
:1011A00009E7F61819E7F61819E7F61819E7F6220D
:1011B000120E8E60E6E869701F0808E62480F608C3
:1011C000E436F618547FB47F0CE654806007F6E4EA
:1011D00018F618F622181822E9C6CC08C6CD08C69B
:1011E000CE08C6CFC0E0E8C0E0EAC0E0EBC0E0094E
:1011F000E9F809E7FA09E7FBE6F918E6F8C3EC981D
:10120000ED99EE9AEBC2E7F5F0EFC2E795F0500EDC
:10121000600CEBCFFBEACEFAE9CDF9E8CCF8EAA214
:10122000E7D2E7FAEB33FB13F5F0EEA2E7D2E7FEE5
:10123000EF33FFC5F013A2E730E601B313C5F0C3E7
:10124000C0E0C0F07F00C39BFB605E9418600F405D
:101250001D14601AD0E023F9D0E0F80213338AF0AD
:10126000E9486003D2F0E4AFF0FAF9F8803BEB30E4
:10127000E40D89F0EA6003D2F0E4AFF0F9CAF8EBCC
:1012800030E30D88F0EF6002D2F0AFF0E4CAC9F8A5
:10129000EB54076014FBC3EA13FAE913F9E813F8F7
:1012A000EF135002D2E0FFDBEDD0E0C0E030E739D1
:1012B000C3E49FFFF5F0EC98FC42F0ED99FD42F09D
:1012C000EE9AFE42F0D0E0F9D0E0F8E5F0607AE97D
:1012D00023F9EE20E742D8028067C3EF33FFEC33F7
:1012E000FCED33FDEE33FE80EAEC28FCED39FDEE3B
:1012F0003AFED0E023F9D0E0F84002801BC3EE13A1
:10130000FEED13FDEC13FCEF135002D2E0FF08B822
:1013100000067F7F74FF802EEF3350178CF020F093
:101320000260100CBC000C0DBD00080EBE000408CD
:10133000E860DFE933E813FFEE2313FE4F4D4C80E6
:1013400008E95480FFE4FEFDFCEE33EF33F4700453
:10135000FCFD7E80D0E0FBD0E0FAD0E0F8D0E0CF1A
:10136000C618CEC618CDC618CCC6F922120EC87043
:101370000418181822120ED7700D74FFF61819F6FB
:101380001819F61819F622E7548066F6120E8E70B8
:101390000F120E9770F014F608F608F608F680D1D2
:1013A000120E97700CF608F608768008E6447F80E7
:1013B000EC120EB7700C120EA360BFE65480F6E478
:1013C00080BB120EA3700519191980A5E869700C6D
:1013D000763F18768018F618F6E8F922E6CDC0E0D8
:1013E00018ECC0E0E633CD33CDD313F6E719FCE7B4
:1013F000191933CC33C3947F400ECD9D502408E699
:101400005480F6E418F6800FF4043D14501408E6F6
:10141000447FF6187680E418F618F6D0E0FCD0E0A9
:10142000FD22CCD313CCFD18E4C6CBC0E018E4C633
:10143000CAC0E00808ED08C633E613F618E433C660
:1014400075F003C3CA97CA09CB97CB199C40047D9A
:1014500008802EBD000302151516B6FF0506060806
:101460001618C3CA33CACB33CB33CA27CA09CB3702
:10147000CB193CC37D08803E187D0820E75CC6334D
:10148000C6CA33CACB33CB33DDF1D5F0EB30E77BC3
:10149000CA97CA09CB974ACB199C406F4B7025E677
:1014A00020E0218066187D08C3CA97CA09CB97CB74
:1014B000199CD3C633C6CA33CACB33CB3350C9DD2C
:1014C000E7D5F0E1D3E4C636C608C636C608C63648
:1014D000C608C636C61818188031C3CA97CA09CBC1
:1014E00097CB199CB34097C633C6CA33CACB33CB0C
:1014F00033DD34D5F02EC6A2E0C640C8CA27CA09DB
:10150000CB37194A70BECB3CB480B90808E6330823
:10151000E633601F181818D0E0FAD0E0FBD0E0FCEA
:10152000D0E0FD22187D08CA27CA09CB37CB193C69
:10153000D3808013F618E4B67F11F618B6FF0EF6C6
:1015400018C60470D20808768080CAF618F618F615
:1015500080C5080808EAC0E0EBC0E086F0E7A4FA1E
:10156000180986F0E7A42AFA180986F0E7A42AFAEF
:10157000180986F0E7A42AFA1986F0E7A4FBE5F03B
:101580002AFA190886F0E7A42BFBE5F03AFA1908C5
:1015900086F0E7A42BFBE5F03AFA18180986F0E785
:1015A000A4C5F02BFBE43AFA1908E7C5F0C6A42657
:1015B000F6E5F03BFBE43AFA1886F0E7A4F6E5F02E
:1015C0000826F6E43B08F6E43A08F6D0E0FBD0E063
:1015D000FA22E4CFC0E0E4CEC0E0E4CDC0E0E4CC49
:1015E000C0E075F020E626F608E633F608E633F6A6
:1015F00008E633F6181818EC33FCED33FDEE33FE35
:10160000EF33FFC3EC9709ED9709EE9709EF9719B0
:101610001919400FFFEC97FC09ED97FD09EE97FEB5
:10162000191906D5F0BFECF709EDF709EEF709EF48
:10163000F7191919D0E0FCD0E0FDD0E0FED0E0FFB2
:1016400022181818E4C396F608E496F608E496F60D
:1016500008E496F6226016080808C6C313C618C622
:1016600013C618C613C618C613C6D5E0EA227009F9
:10167000080808226016181818C6C333C608C633EF
:10168000C608C633C608C633C6D5E0EA22E627F642
:101690000809E637F60809E637F60809E637F622BC
:1016A000E026F608A3E036F608A3E036F608A3E045
:1016B00036F622E026F008A3E036F008A3E036F084
:1016C00008A3E036F022C3E697F60809E697F60885
:1016D00009E697F60809E697F622C3E0C696F608EB
:1016E000A3E0C696F608A3E0C696F608A3E0C69661
:1016F000F622C3E096F008A3E096F008A3E096F087
:1017000008A3E096F022E056F608A3E056F608A3F8
:10171000E056F608A3E056F622E056F008A3E0569D
:10172000F008A3E056F008A3E056F022E647F608DA
:1017300009E647F60809E647F60809E647F622E013
:10174000F608A3E0F608A3E0F608A3E0F622E6F028
:1017500008A3E6F008A3E6F008A3E6F022E0FAA367
:10176000E0FBA3E0FCA3E0FD22EAF0A3EBF0A3EC96
:10177000F0A3EDF022E0FCA3E0FDA3E0FEA3E0FF78
:1017800022E0F8A3E0F9A3E0FAA3E0FB22E8F0A34B
:10179000E9F0A3EAF0A3EBF022CAC0E0E6F0A30868
:1017A000DAFAD0E0FA22CAC0E0E0A3C582CCC58252
:1017B000C583CDC583F0A3C582CCC582C583CDC505
:1017C00083DAE6D0E0CA22C3E498F8E499F9121863
:1017D000088026C3E49AFAE49BFBE920E7E91218A3
:1017E00008E498F8E499F922C3E498F8E499F91226
:1017F0001808E498F8E499F9C3E49AFAE49BFB2208
:10180000EB20E7CFE920E7E0B90010BB0008E88A49
:10181000F084F8AAF022E4FBC8FA22EB70227B10D5
:10182000C833C8C933C9335007C39AC3DBF2800633
:101830009A50012ADBEAC833F4C8C933F4C9FA2242
:1018400075F008E4C833C8C933C933C99AC99B5075
:1018500004C92AC93BD5F0ECFBC833F4C8E4C9FA83
:1018600022600D08C6A2E713C618C613C6D5E0F35A
:1018700022600C08C6C313C618C613C6D5E0F422EE
:10188000700422600D18C6C333C608C633C6D5E03F
:10189000F41822254110AF08F541400C154280088C
:1018A000F54140021542D2AF2200C0D0254110AF11
:1018B00008F541500C05428008F54150020542D21E
:1018C000AFD0D0222541F58210AF08F541400C156C
:1018D000428008F54140021542D2AF85428322255D
:1018E00041F582E43542F583222541F8E43542F999
:1018F000222541FAE43542FB222541FCE43542FD34
:1019000022E4732541C582C0E0E54234FFC583C0AF
:10191000E0E541C3958224F810AF088583428582B3
:10192000418008858342858241D2AFCEF0A3E52075
:10193000F0A37821E608F0A3DEFAEFF0A3E5812416
:10194000FAF8E608F0A3E608F0A3E608F0A3080812
:10195000E608F0A3E608F0A315811581D0E0FED0DB
:10196000E0F8158115811581E8C0E0EEC0E0222580
:1019700041C582C0E0E54234FFC583C0E0E541C314
:10198000958224F910AF08858342858241800885BD
:101990008342858241D2AFCEF0A3E520F0A3782127
:1019A000E608F0A3DEFAEFF0A3E58124FBF8E608F1
:1019B000F0A3E608F0A30808E608F0A3E608F0A301
:1019C00015811581D0E0FED0E0F815811581E8C0C1
:1019D000E0EEC0E022854283854182E0A3FEE0A3E1
:1019E000F5207821E0A3F608DFFAE0A3FFE0A3C02A
:1019F000E0E0A3C0E0E0A3C0E0E0A3C0E0E0A3C05B
:101A0000E010AF0885824185834280088582418548
:101A10008342D2AFD083D082020CF58542838541C8
:101A200082E0A3FEE0A3F5207821E0A3F608DFFA28
:101A3000E0A3FFE0A3C0E0E0A3C0E0E0A3C0E0E0DB
:101A4000A3C0E010AF08858241858342800885826B
:101A500041858342D2AFD083D08222C0D02541C5F8
:101A600082C0E0E54234FFC583C0E0E541C3958212
:101A700024F310AF08858342858241800885834224
:101A8000858241D2AFC8F0A3E9F0A3EAF0A3EBF05E
:101A9000A37921E709F0A3D8FAECF0A3EDF0A3EEC7
:101AA000F0A3EFF0A3D0E0F0A3D0E0F0A3D0E0F0FB
:101AB000A3E520F0A3E5F0F0A322854283854182CF
:101AC000E0C0E0A3E0F9A3E0FAA3E0FBA37821E003
:101AD000F608A3DFFAE0FCA3E0FDA3E0FEA3E0FF2D
:101AE000A3E0C0E0A3E0C0E0A3E0F5D0A3E0F520D0
:101AF000A3E0A3F5F010AF088583428582418008FA
:101B0000858342858241D2AFD082D083D0E0F8D0A5
:101B1000E03274048006740280027401C0E0F404B0
:101B20001218C4D0E0121799227404800474028041
:101B300000CCC0E0EDC0E0E541C39CCCAD4250011B
:101B40001D10AF068C418D4280068C418D42D2AF74
:101B50001217A6D0E0FDD0E0FC22D083D082E9C0ED
:101B6000E0E493A3C386F0C5F095F0F908E493A3ED
:101B700086F0C5F095F0700BE493A3C3994005E996
:101B8000048002A3E475F002A42582F582E5F03515
:101B900083F583D0E0F9E493A3C0E0E493C0E022AE
:101BA000D083D082ECC0E0EDC0E0E493A3FCE493EA
:101BB000A3FDED4C600D121BECEC24FFFCED34FF9B
:101BC000FD80EFE493A3FCE493A3FDED4C600D12C4
:101BD0001C2BEC24FFFCED34FFFD80EFD0E0FDD0AA
:101BE000E0FCE493A3C0E0E493C0E022C0E0C3E4DF
:101BF0009396087401939618400FE4936670080852
:101C0000740193661870007019A3A3C3E493960837
:101C10007401939618A3A3400DD0E0D0E0D0E00269
:101C20001BDCA3A3A3A3A3A3D0E022C0E0C0F08841
:101C3000F0E4936670080874019366187000A8F0C9
:101C4000A3A3700BD0F0D0E0D0E0D0E0021BDCA367
:101C5000A3D0F0D0E022FFFF74F512196FEAFEEB7B
:101C6000FFEE2434F8EF3400F988218922EE243580
:101C7000121D84F8EE2437121D84F523EC8523F021
:101C8000A4FCAAF08523F0EDA42AFDE82CF8E43D9D
:101C9000F97A257B00121808EA852182852283F0D3
:101CA00074075AF87401B800028004C333D8FCFBEF
:101CB000EA131313541FF8EE28F8EF3400F9E82460
:101CC0005DF582E9121D875B6003EA801CEE243615
:101CD000121D84F5F0EA84A8F0EE28F8EF3400F93C
:101CE000E82438F582E9121D87F97F04021A1B7473
:101CF000F512196FEAFEEBFFEE2434121D84C0E0EA
:101D0000EE2435F582EF3400F583D0E0F08E828F3B
:101D100083A3A3A3A3A3E0FAA3E0FB8E828F83A3F4
:101D2000A3A3A3A3A3A3E0FCA3E0FDECC39AF52324
:101D3000ED9BF524EE247FF521EF3400F52285217B
:101D400082F583E06401702BEE2480F582EF34008D
:101D5000F583121B2D121D8D74021218A9E9601350
:101D60007CD57D07EEFAEFFB122D8285218285223C
:101D700083E4F0AC23AD24EEFAEFFB121C581225DD
:101D8000B3021CEAF582EF3400F583E022C082C082
:101D900083854182854283E0F8A3E0F9C3EA9CEBA6
:101DA0009D5010C3EC98ED99401BC3EA98EB9950F5
:101DB00014800EC3EA98EB994007C3EC98ED994064
:101DC00004790180027900D083D08222EAC39CFA90
:101DD000EB9DFB2274ED12196F90069BE064086086
:101DE00005E06407702C9061C8E060269006C9E0A9
:101DF000F874FF68601CE875F003A4C8AAF02AF91B
:101E000074CB28FE740639FF8E828F83A3A3A3E0D0
:101E100070057900021F74EE2468F529EF3400F58F
:101E20002A906060E0852982852A83F075233E75BB
:101E30002408752100752200E5D914F527E5D95449
:101E400003F528601CEE2482F525EF3400F5267496
:101E50000365286058E5276013EE2467121D84701F
:101E60000B793DEEFAEFFB122DA680A6900839E023
:101E700064016026852582852683E06004780480DD
:101E8000027800852721E521C398FA95E0FB122C02
:101E9000328A218B22EA45227006122FEC021E1292
:101EA000852582852683E070048A238B2478008030
:101EB00016E5D9C0E0882BE523252BF582E52434EF
:101EC00000F583D0E0F008E8C3952740E48525823B
:101ED000852683E0602874FC2527F5277823121BCC
:101EE00016AC27A928EEFAEFFB122E547402121832
:101EF000A9E9700AAA21AB2212341E021E617403E2
:101F0000652860588527257526007825121B16AC94
:101F100023AD24AA21AB22122E1874021218A9850F
:101F20002982852A83E0F8748068700575257F8092
:101F3000028825E525F5237823121B1AE528F523C9
:101F40007823121B1AA927AC21AD229006C9E0FA0A
:101F50007B00122AD074021218A9801390069BE00D
:101F60006408600BAC23AD24EEFAEFFB122EEA12EC
:101F70002FF879017F0C021A1B74F312196F74FC8D
:101F8000121893EAFEEBFF8921A2AFE433F522C2D7
:101F9000AFEE2463F523EF3400F5248010AA23ABC1
:101FA00024122DD012341E9007DCE004F085238229
:101FB000852483E0F8A3E0F9E849602FE82402FAD9
:101FC000E93400FBEA2402F525EB3400F5267825F8
:101FD000121B168A828B83E0FCA3E0F9EEFAEFFB7A
:101FE000122DC474021218A9E960B29007DCE060F7
:101FF000579007DDE0F89007DCE0C398500C7402BE
:10200000652170449007DEE0603E8E828F83A3A33B
:10201000A3A3E085418285428312205874021218DE
:10202000DFE81220589007DBE028F074021218DF76
:10203000AC82AD83854182854283AA82AB837901DC
:10204000122ADC9007DCE4F0E522A2E092AF7404EF
:102050001218A97F06021A1BF0A3E4F09007DCE037
:10206000F822FFFF8543878544C622C0E074EF1243
:102070001A5BA2AFE433FEC2AF759B00906182E0B1
:10208000A2E05012E591A2E0500C7591FE7401653A
:10209000437003121DD4E0A2E55051E591A2E55032
:1020A0004B7591DF90069BE064076005E064087063
:1020B0002374016543703579019006C9E0FA75F023
:1020C00003A4CAA8F028FB74CB2AFA74063BFB12BF
:1020D0001F798018E0640D70139006BDE004F06471
:1020E000287002E4F07A00E0F9122FFE906182E09D
:1020F000A2E64003022192E591A2E640030221926A
:102100007591BF90069BE064057008122F2C122F6A
:10211000388003122F32754300122F9EE990069CDF
:10212000F07900122F92122CF27A017B0090069A1D
:10213000E0F9123226907803E06442705590083D31
:10214000E014F0704DC2AF12214A00784CD0E0F696
:1021500018D0E0F6E59F540770057522FF800375DF
:10216000227FC4C0E0784BE6F52108E65522F5222F
:10217000740B7821121871D0E02521F8906270E07C
:10218000A2E740F8E8C333906272F0906270E0D248
:10219000E0F0906181E0A2E35009E5E9A2E3500399
:1021A00075E9F7A3E0A2E75009E591A2E7500375AE
:1021B000917FEEA2E092AF7F04021ABAC0E0C0D0D5
:1021C000C082C083906183E0A2E05009E5BFA2E035
:1021D000500375BFFEE0A2E15009E5BFA2E1500344
:1021E00075BFFDE0A2E25009E5BFA2E2500375BF52
:1021F000FBE0A2E35009E5BFA2E3500375BFF7E09F
:10220000A2E45009E5BFA2E4500375BFEFE0A2E5E8
:102210005009E5BFA2E5500375BFDFE0A2E6500913
:10222000E5BFA2E6500375BFBFD083D082D0D0D027
:10223000E032C0E074F2121A5BE5A7A2E4500FE5A9
:10224000A1A2E4500953A7EF75A1EF122286E5A7DA
:10225000A2E5500CE5A1A2E5500653A7DF75A1DF6A
:10226000E5A7A2E15009E5A1A2E1500375A1FDE5B2
:10227000A7A2E2500CE5A1A2E2500653A7FB75A16C
:10228000FB7F01021ABA74F812196F7543019006A8
:102290009BE0640670077A007B00122F14A2AFE463
:1022A00033FED2AF9006A1E0640170187A207B0063
:1022B00090069AE0F91232B67A207B0090069AE0F6
:1022C000F912322C906182E0D2E6F090083AE06098
:1022D0002185C64480169006A0E064017008E5C61A
:1022E00054F84405F5C653BEFC12206474016543DE
:1022F00060E4EEA2E092AF7F01021A1B8E458F468A
:1023000085824A858349854182854283E0CEA3E068
:10231000CF854A82854983EBC9EAC8EDCBECCA7503
:10232000F010C3E833C8E933C9EA33CAEB33CBC38F
:10233000EA9EF548EB9FF547B35004AB47AA48EC3B
:1023400033CCED33CDD5F0DAAE45AF462274F11281
:10235000196F8A218B228C238D2490911D78211254
:102360001706740F1218DF782512173F90911D7809
:102370002512170678217925120D489090F15010FA
:10238000782179251216C67821120D684014800E26
:10239000782579211216C67825120D685004790126
:1023A000800279007F08021A1B74ED12196F8A21CE
:1023B0008B228C238D2490911D7821121706741383
:1023C0001218DF782512173F90911D7825121706F5
:1023D00078257921120D484011782179251216C6E9
:1023E000AA21AB22AC23AD248022752900752A00D6
:1023F000752B00752C01782979251216C678297954
:102400002112168DAA29AB2AAC2BAD2C7F0C021AF7
:102410001B90911D782112173F8A828B837821129D
:1024200017197F04021A1B74F512196F8C828D83A1
:10243000782112173F8A828B8378211216F2122498
:102440007BC3E098F0A3E09912246D401E9090F5B4
:10245000782112173F8A828B8378211216B38E82DD
:102460008F83E02420F0A3E0344EF080A4F08E822D
:102470008F83C3E09420A3E0944E22EA2404F8EB77
:102480003400F9E8FEE9FF8C828D83A3A3A3A3E0C7
:10249000F8A3E0F98E828F832274F512196FE9FE9A
:1024A0009007F0E0FAA3E0FBEEC333F8E433F974ED
:1024B000ED28F582748F39F583E02AF521A3E03BFE
:1024C000F5227821121B169090A512175D1222FC9E
:1024D00074021218A98A218B228C238D24741078FF
:1024E00021121655AA21AB227F04021A1B74F11285
:1024F000196F8A258B268C278D28740F1218DFE020
:10250000FAA3E0FB74111218DFE0F521A3E0F52235
:102510007821121B16EA2401F521EB3400F522E4A0
:10252000F523F5247825792112155290908D782184
:1025300012173F78257921121552AA25AB26AC2710
:10254000AD281222FC74021218A98B22EA452260DF
:10255000047A0180027A00EC2AFCED3400FD741349
:102560001218DFE0F8A3E0F9E8FEE9FFECF8EDF976
:102570007A717B0212180888218922E4F523F52458
:102580008E828F83782112174EECF8EDF97A717BE9
:10259000021218088A218B22740578211218808E65
:1025A000828F83A3A3A3A3E521F0A3E522F07F08F4
:1025B000021A1BC082C083E9906000F0D083D082F1
:1025C00022C2AF02000022C0E074F2121A5BA2AF76
:1025D000E433FED2AFC2C0E5D1A2E4500653D1EF3E
:1025E0001233C4EEA2E092AF7F01021ABAC0E0C07B
:1025F000D0E8C0E0E9C0E0E5A8D2AFC2C7A2E7A238
:10260000E792AFD0E0F9D0E0F8D0D0D0E032120CB1
:10261000F8DDC904120CF8F2C904120CF8FBC90465
:10262000120CF8BECA04120CF8A4CB04120CF8C0A9
:10263000CB04120CF882CC04120CF853CF04120C09
:10264000F864D104120CF833D304120CF891D304BB
:10265000120CF88ED404120CF82BD504120CF8CA04
:10266000D604120CF88ED704120CF8DBD704120C27
:10267000F8D9D904120CF841DA04120CF822E20459
:10268000120CF870E204120CF89BBF07120CF8B29F
:10269000BF07120CF8E3BF07120CF81EC007120C9C
:1026A000F848C007120CF872C007120CF889C0076E
:1026B000120CF8A0C007120CF8B7C007120CF8E013
:1026C000C007120CF8F3C007120CF809C107120C6E
:1026D000F81CC107120CF843C107120CF88835002A
:1026E000120CF88C3600120CF8C43600120CF8E705
:1026F0003600120CF8F23600120CF8153700120CE6
:10270000F8243800120CF8F93800120CF87439006B
:10271000120CF8FC3900120CF8373A00120CF86E63
:102720003A00120CF8FC3A00120CF8D53B00120CDF
:10273000F8353C00120CF8403C00120CF8BF3C008D
:10274000120CF8C23C00120CF8C53C00120CF854F4
:102750003D00120CF8573D00120CF8873D00120C9A
:10276000F8B13D00120CF89F3E00120CF8513F00EA
:10277000120CF8819A07120CF8A99A07120CF8D7D4
:102780009A07120CF80E9B07120CF86C9B07120CA0
:10279000F8B79B07120CF8029C07120CF8429C0732
:1027A000120CF8889C07120CF8B69C07120CF873F0
:1027B0009D07120CF87D9D07120CF88A9D07120CDC
:1027C000F8BD9D07120CF8899E07120CF8959E071C
:1027D000120CF8AD9E07120CF8B79E07120CF838D1
:1027E000C907120CF850C907120CF868C907120C77
:1027F000F8C3B306120CF89FB406120CF803B60621
:10280000120CF85AB606120CF8DBB606120CF8CB0E
:10281000B706120CF818B806120CF89EB806120C7F
:10282000F8D0B806120CF8E4BA06120CF826BB066B
:10283000120CF844BB06120CF8C7BB06120CF89B2E
:10284000BC06120CF863BD06120CF83AF506120C21
:10285000F80DF606120CF8B6F606120CF809F70693
:10286000120CF8B9F706120CF845F806120CF831FC
:10287000F906120CF860F906120CF873FA06120C3D
:10288000F8BBFA06120CF890FB06120CF8CCFB060B
:10289000120CF8E8FB06120CF85DFC06120CF8733B
:1028A000FC06120CF899FC06120CF8B5FD06120C89
:1028B000F8BFFD06120CF8F4FE06120CF8ECFF0649
:1028C000120CF88F8607120CF8BF8707120CF8F26B
:1028D0008707120CF83C8807120CF8038A07120CC1
:1028E000F87ED705120CF8E8D705120CF847D90581
:1028F000120CF857D905120CF884D905120CF8E01F
:10290000D905120CF8E7DA05120CF8B1DB05120C48
:10291000F811DD05120CF854DD05120CF8F9DD058F
:10292000120CF846DE05120CF86CDE05120CF87A73
:10293000E005120CF87FE005120CF884E205120C99
:10294000F8D1E205120CF844E305120CF877E30520
:10295000120CF819E405120CF8C2E405120CF8FA8E
:10296000E405120CF8FDE405120CF845E505120C1F
:10297000F885E505120CF8DCE505120CF8D0B50772
:10298000120CF8E8B507120CF830B607120CF8462E
:10299000B607120CF88DB607120CF8A1B707120C87
:1029A000F82EB807120CF879B807120CF800B0042A
:1029B000120CF83BB004120CF880B004120CF84072
:1029C000B104120CF8C6B104120CF82BB204120CAC
:1029D000F857B204120CF890B204120CF8CEB404FA
:1029E000120CF8B2B604120CF898B804120CF8DB0A
:1029F000B904120CF829BC04120CF83BBD04120CEB
:102A0000F886BE04120CF896BF04120CF8B3BF048B
:102A1000120CF8EEBF04120CF810C004120CF8737C
:102A2000C004120CF834C504120CF8C9C504120C09
:102A3000F81BC604120CF839C604120CF893C6042D
:102A4000120CF87CC704120CF8F2C804120CF876C9
:102A5000C904120CF8CF9007120CF8D99007120C89
:102A6000F81C9107120CF8379107120CF8C7910760
:102A7000120CF8EF9107120CF82C9207120CF86365
:102A80009207120CF88C9207120CF8019307120CA3
:102A9000F8169307120CF82B9307120CF86C930797
:102AA000120CF8A69307120CF8D29307120CF80A2E
:102AB0009407120CF8699407120CF8E89407120CAA
:102AC000F8319507120CF85B9507120CF8869507FC
:102AD000120CF814C707120CF8BF9A06120CF8ED86
:102AE0009A06120CF83B9C06120CF81B9D06120C61
:102AF000F83A9D06120CF8B79D06120CF8FA9D06DE
:102B0000120CF8509F06120CF811A006120CF8983F
:102B1000A206120CF839A306120CF82FA406120C08
:102B2000F82CA506120CF886A606120CF811A706BA
:102B3000120CF897C407120CF800C507120CF854D1
:102B4000C507120CF87BC507120CF8ACC507120CB0
:102B5000F8DDA307120CF84AA407120CF891A40799
:102B6000120CF8A9A507120CF8A5A607120CF888F4
:102B7000A707120CF8EDDD06120CF82FDE06120C7A
:102B8000F801DF06120CF8DADF06120CF8D4E006C2
:102B9000120CF8B6E106120CF81FE206120CF8D57A
:102BA000E206120CF849E306120CF8B5E306120C23
:102BB000F8DEE306120CF858E406120CF8F1E4060D
:102BC000120CF856E506120CF86BE506120CF8B17B
:102BD000E506120CF8CAE506120CF82FE606120CF0
:102BE000F832E606120CF8FDB207120CF825B3070E
:102BF000120CF863B307120CF821B407120CF88812
:102C0000B407120CF8A4B407120CF8CCB407120CD9
:102C1000F8FCB407120CF80BB507120CF888B507CE
:102C2000120CF883B605120CF821B805120CF83C0A
:102C3000BA05120CF878BA05120CF8A5BA05120CF0
:102C4000F88ABB05120CF8D1BB05120CF815BC05AF
:102C5000120CF842BC05120CF88DBC05120CF8CD14
:102C6000BC05120CF8FBBC05120CF84DBD05120C8E
:102C7000F8DDBD05120CF87BC005120CF891C205F9
:102C8000120CF8CFC205120CF860C405120CF8A59E
:102C9000C405120CF81CC505120CF866C505120C0B
:102CA000F88CC505120CF874C605120CF874D4061D
:102CB000120CF8F3D406120CF8B5DA06120CF8C4AC
:102CC000DB06120CF82CDD06120CF8C3DD06120C24
:102CD000F8779105120CF8C09105120CF8ED9105EA
:102CE000120CF8209205120CF82D9205120CF839EE
:102CF0009205120CF84B9205120CF8329305120C47
:102D0000F8909305120CF8C59305120CF808950578
:102D1000120CF85F9505120CF8CC9505120CF88A88
:102D20009605120CF8439705120CF8B09705120C93
:102D3000F8629805120CF8729805120CF8F99805CB
:102D4000120CF8B89905120CF8E59905120CF85E0A
:102D50009A05120CF8BB9A05120CF8059B05120C8B
:102D6000F89B9B05120CF8669C05120CF81B9D0540
:102D7000120CF8909D05120CF8F19D05120CF85BF1
:102D80009E05120CF8949E05120CF8369F05120C45
:102D9000F846A005120CF886A005120CF8A3A005B1
:102DA000120CF8C2A005120CF809A105120CF82E9D
:102DB000A105120CF85BA105120CF8D5A105120CA7
:102DC000F816A205120CF83AA305120CF8EAA305AE
:102DD000120CF841A405120CF8ABA405120CF8C4AF
:102DE000A405120CF8AACA06120CF8FDCA06120CA9
:102DF000F809CB06120CF8DECB06120CF805CC064F
:102E0000120CF840CC06120CF8ACCC06120CF8E808
:102E1000CC06120CF821CD06120CF839CD06120C96
:102E2000F88ECD06120CF8A7CD06120CF8F0CD06E0
:102E3000120CF803CE06120CF81DCE06120CF83355
:102E4000CE06120CF866CF06120CF8ADD006120CA6
:102E5000F8AFD106120CF8A9D206120CF8FD3F000B
:102E6000120CF8888D06120CF8B88D06120CF8803A
:102E70009106120CF8D79206120CF8A09306120CC9
:102E8000F8209506120CF8F19506120CF82E96060D
:102E9000120CF8519606120CF88F9606120CF89840
:102EA0009606120CF8E29606120CF8EC9606120C36
:102EB000F8969706120CF86F9806120CF8C398064D
:102EC000120CF8259906120CF8789906120CF8A73E
:102ED0009906120CF8E49906120CF8F6A405120CE7
:102EE000F85DA805120CF863A805120CF8E5AD050D
:102EF000120CF85EB205120CF834B605120CF85E2E
:102F0000AC07120CF8D4AC07120CF8EAAC07120CA0
:102F1000F82BAD07120CF865AD07120CF8DEAD0703
:102F2000120CF819AE07120CF88CAE07120CF8CA86
:102F3000AE07120CF8D3AE07120CF8DFAE07120C76
:102F4000F8FBAE07120CF826AF07120CF83CAF07DF
:102F5000120CF880AF07120CF8B0AF07120CF8C3D0
:102F6000AF07120CF8DDAF07120CF806B007120C11
:102F7000F849B007120CF888B007120CF8C6B00771
:102F8000120CF82BB107120CF840B107120CF84BD9
:102F9000B107120CF858B107120CF86FB107120CF8
:102FA000F87DB107120CF888B107120CF894B1073C
:102FB000120CF8A7B107120CF8B2B107120CF8CF37
:102FC000B107120CF8DFB107120CF8F5B107120CBB
:102FD000F811B207120CF81CB207120CF831B20744
:102FE000120CF845B207120CF8A6B207120CF8AC96
:102FF000B207120CF8B2B207120CF8B8B207120CF2
:10300000F8CAB207120CF8058006120CF891800677
:10301000120CF8F08106120CF8118406120CF8FD5F
:103020008406120CF8328506120CF8548506120C30
:10303000F8038606120CF8FB8706120CF8248806A3
:10304000120CF8B68806120CF8E88806120CF8F58F
:103050008806120CF84C8906120CF8728906120CBC
:10306000F8DF8B06120CF8E28C06120CF83A8D068B
:10307000120CF885F405120CF88FF405120CF8B157
:10308000F405120CF8BDF405120CF856F605120CF6
:10309000F885F605120CF8A1F705120CF8FAF705F9
:1030A000120CF86EF905120CF8DBF905120CF81683
:1030B000FA05120CF855FA05120CF80EFD05120C63
:1030C000F828FD05120CF8B4FD05120CF8C2FD0538
:1030D000120CF81BFE05120CF829FE05120CF89CC8
:1030E000FE05120CF800FF05120CF84AFF05120C41
:1030F000F87CBF06120CF89EBF06120CF8C4C1067D
:10310000120CF8D9C406120CF8F1C506120CF8A47A
:10311000C606120CF886C706120CF855C107120C29
:10312000F87AC107120CF8ECC107120CF8EEED06A4
:10313000120CF8F7ED06120CF800EE06120CF8D798
:10314000EE06120CF888F006120CF8BEF006120C0F
:10315000F8F8F006120CF82EF106120CF868F106D9
:10316000120CF89CF106120CF8C8F106120CF811BA
:10317000F206120CF84BF206120CF894F206120C3E
:10318000F8ECF206120CF821F306120CF87CF306A8
:10319000120CF8B6F306120CF807F406120CF83D00
:1031A000F406120CF877F406120CF89AF406120CD6
:1031B000F86BCB07120CF897CB07120CF8F2CB0781
:1031C000120CF8FCCB07120CF80CCC07120CF824EC
:1031D000FA04120CF82EFA04120CF86CFA04120C11
:1031E000F8B5FA04120CF8EFFA04120CF845FB04D7
:1031F000120CF866FB04120CF86FFB04120CF8BA00
:10320000FB04120CF8E3FB04120CF8EDFB04120CA7
:10321000F859FC04120CF8EFFC04120CF839FD0408
:10322000120CF869FD04120CF8F2FD04120CF832CD
:10323000FE04120CF86AFE04120CF87CFE04120C58
:10324000F89BFE04120CF8A4FE04120CF86DFF04A7
:10325000120CF8F2C507120CF8E9C607120CF803B5
:10326000C707120CF8ACBD07120CF8E2BD07120C30
:10327000F818BE07120CF861BF07120CF857CE07FA
:10328000120CF86DCE07120CF877CE07120CF897D7
:10329000FF04120CF84AA807120CF85FA807120CDA
:1032A000F812A907120CF852A907120CF86BA9071B
:1032B000120CF89FA907120CF8ECA907120CF820C1
:1032C000AA07120CF862AA07120CF8C23F00120CEF
:1032D000F8D43F00120CF897A706120CF8F2A706D4
:1032E000120CF803A906120CF81AA906120CF846DB
:1032F000A906120CF8ACA906120CF8439F07120C91
:10330000F877A007120CF815A107120CF871A307A3
:10331000120CF88DA307120CF8A3B807120CF8C80A
:10332000B807120CF8F2B807120CF8C1CE07120C4D
:10333000F816CC07120CF827CC07120CF86CCF0744
:10334000120CF877CF07120CF883CF07120CF8EBAA
:10335000CD07120CF8FBCD07120CF80ACE07120CA1
:10336000F84ECE07120CF82DC807120CF8B2C80799
:10337000120CF818C907120CF8AE9507120CF86A6F
:103380009607120CF8269707120CF8AD9707120C47
:10339000F8929807120CF8429907120CF87D9907D9
:1033A000120CF8D59907120CF81B9A07120CF82981
:1033B0009A07120CF83C9A07120CF8589A07120C4C
:1033C000F8619A07120CF8789A07120CF8B9CC0732
:1033D000120CF838CD07120CF84ACD07120CF80081
:1033E0008007120CF83D8007120CF8598007120C68
:1033F000F8218107120CF8068207120CF865830782
:10340000120CF8D18307120CF8B78407120CF83E9F
:103410008507120CF84B8607120CF8FAC207120C3B
:10342000F84AC307120CF8D3C307120CF839C407C3
:10343000120CF86FBB07120CF899BB07120CF85F5F
:10344000BC07120CF83ABD07120CF856E606120C2F
:10345000F813E706120CF84EE706120CF876E706AA
:10346000120CF8D8E706120CF824E806120CF884BF
:10347000E806120CF817E906120CF816EA06120C08
:10348000F8A5EB06120CF828EC06120CF88FEC06E7
:10349000120CF8A6EC06120CF8B0ED06120CF8C9E6
:1034A000E605120CF82BEA05120CF8B3EB05120C2A
:1034B000F80AEC05120CF829EC05120CF8A7EC053B
:1034C000120CF846EE05120CF82AEF05120CF8E97A
:1034D000F205120CF8B9F305120CF8BFCA07120C6A
:1034E000F853CB07120CF8ACE204120CF850E304CA
:1034F000120CF8BEE304120CF8F6E304120CF8E91F
:10350000E404120CF81DE704120CF8BDE704120CD9
:10351000F8EEF504120CF83EF804120CF886F804E4
:10352000120CF88BF904120CF88EF904120CF8B690
:103530008B07120CF8FB8B07120CF8188C07120C77
:10354000F8658D07120CF8118E07120CF80F8F0713
:10355000120CF8919007120CF81BC705120CF82BEF
:10356000CC05120CF808CF07120CF8D3FF05120C8B
:10357000F855CD07120CF87FCD07120CF84ECF0787
:10358000FFFFFFFFFFFFFFFF74F2121903ECFEEDD8
:10359000FF8A828B83A3A3A3A3A3A3A3A3E0F52302
:1035A0007003023685EA2406F8EB3400F988218995
:1035B000228882F583E0FCA3E0FD8C828D83E0F518
:1035C00024A2E7504CE523C3940D500302368574C2
:1035D000F42523F523F525EC2525F525ED3400F517
:1035E000267825121B16E523F5257825121B1A7956
:1035F000018A828B83A3A3123A62123010740312E1
:1036000018A9E98E828F8370047401800974028086
:10361000058E828F83E4F0E524A2E65004D2F08088
:1036200002C2F0A2F0E433A3F0743F55248E828FDF
:1036300083A3A3F0EE2403F8EF3400F9E52324FF7D
:10364000FAE434FFFB88828983EAF0A3EBF0EE24EE
:1036500005FAEF3400FB88828983123CBA4960196D
:10366000852182852283E02401F8A3E03400F98AD1
:10367000828B83E8F0A3E980078A828B83E4F0A33E
:10368000F07900800279017F060219D574F71219CA
:10369000038C828D831239598C828D83A3A882A9D1
:1036A000831239628C828D83A3A31236B47A047B91
:1036B00000023710A3123BCE22C082C083123BB55A
:1036C0007A02802574F712190374091218DF123A6E
:1036D00062740B1218DF123A5B7001EB7005123A3C
:1036E0006880027904802980D07B00D083D0820258
:1036F0000CF574F712190374091218DF123BF670F7
:1037000001E9700A740B1218DF123BFD8002790484
:103710007F010219D574EE121903EAFEEBFF8C2526
:103720008D267521017522008C828D83A3858227C9
:1037300085832812381B752300803BE52975F0121C
:10374000A4F529E5F0F52A1237E2752910752A004B
:103750007829121B161237D61231D274021218A908
:10376000EE2410FEEF3400FFE5212412F521E522BE
:103770003400F5220523852582852683E0F8E5239C
:10378000C398504B8E828F83A3AA82AB83852382FA
:10379000858229752A00852782852883E064017047
:1037A0009A740278291218801237E2752902752A54
:1037B000007829121B161237D61231D27402121851
:1037C000A9EE2402FEEF3400FFE5212404809DAA27
:1037D00021AB22023E9AEC2404FCED3400FD0AEFFA
:1037E000FB22E5252529FCE526352AFD1237FE12A8
:1037F0003814EAFEEBFF8882898312380B22EC240E
:1038000002F8ED3400F98882898322A3123814A3C8
:103810000EAF8322E08E828F83F022123814A3AE83
:1038200082AF832274F2121903ECFEEDFF740E12C4
:1038300018DFE0F523A3E0F524C3E5239406E5248F
:10384000940050030238EE74101218DF1238F38E11
:10385000828F83E0FAA3E0F9EA852182852283F052
:10386000A3E9F08E828F83A3A3E0FA8E828F83A3D5
:10387000A3A3E0F8E4C8F9EA852182852283A3A303
:10388000F0A3E9123FB1A3A3A37402F0F5258826A3
:103890007825121B16EE2404FCEF3400FDE52124EC
:1038A00005FAE5223400FB1231D274021218A9E5A0
:1038B0002324FAF523852182852283A3A3A3A3A32E
:1038C000A3A3F0C3941150267524007823121B166D
:1038D000EE2406FCEF3400FDE5212408FAE522344D
:1038E00000FB1231D274021218A979008002790407
:1038F000023687123DA1F5222274F51219037523B1
:1039000000803585232175220074027821121880E9
:10391000EC2521F8ED3522F988828983A3AE82AFA8
:10392000831239598E828F83123C38E82403F8E9D8
:1039300012380312396205238C828D83E0F521E56C
:1039400023C3952140BD752200740278211218808E
:10395000AA21AB227F030219D51236B5A3AA82ABE6
:103960008322123AEDA30AAB832274101218A97FA6
:10397000040219D574F6121903740C1218DF123AE6
:1039800062EA2404F8EB3400F9740A1218DFE0FE4E
:10399000A3E0FF74066E7001EF704688828983741D
:1039A00002F08C828D831239F58A828B83F0A3EF2B
:1039B000123D41FEE4CEFFE5218A828B83A3A3F072
:1039C000A3EFF088828983E0F5218E227821121BF3
:1039D00016123D301231D274021218A97900023A3F
:1039E000C874146E7001EF70088882898374108027
:1039F000B0790480E9123DA1FFE5212274F6121985
:103A0000038C828D83A3E0F8F5F08C828D83E0A493
:103A1000FEE88A828B83F0A3AA82AB838E21752273
:103A2000007821121B16123CB11231D27402121806
:103A3000A9EE2401023AC374F7121903740912188B
:103A4000DF123A62740B1218DF123A5B7001EB70EE
:103A500005123A6880027904023710123B80740222
:103A60006A22E0FAA3E0FB22123C2279002274F6DB
:103A7000121903ECFEED123AD1121B168E828F83BF
:103A8000A3AC82AD831231D274021218A98E828F38
:103A900083E0FA7B00803174F6121903123ADFA337
:103AA0000AAB83EC2404123ACD121B16EC2405FC5D
:103AB000ED3400FD1231D274021218A98E828F8368
:103AC000E02404FAE43400FB7F020219D5FEED3451
:103AD00000FF8E828F83E0F521752200782122126B
:103AE0003BB9A30AAB831237FE123AED22123BCE4A
:103AF000A30AAB8388828983123BCD2274F4121906
:103B00000389218A22740C1218DF123B7CC3E894CB
:103B100002E994004061740E1218DF123A628C823E
:103B20008D83E0F523A3E0FFE5238A828B83F0A356
:103B3000EFF0EA2417123FBAE521F0EA2418123F09
:103B4000BAE522F0E52170047E1480027E08E824A4
:103B5000FEF5238A828B83A3A3F0EEC3952340173F
:103B60007524007823121B16123D8A1231D274027A
:103B70001218A979008002790402396F123B802261
:103B8000E0F8A3E0F92274F6121903123BB5A30A78
:103B9000AB83EC2402123ACD121B16EC2403FCED8D
:103BA0003400FD1231D274021218A98E828F83E084
:103BB0002402023AC3123BB9228C828D83123BCE7F
:103BC000A3AA82AB838C828D83123BCD22A3E08A91
:103BD000828B83F02274F712190374091218DF1212
:103BE0003BF67001E9700A740B1218DF123BFD807E
:103BF000027904023710123B8074046822123B8061
:103C0000123C228C828D83A3A3E0FE8C828D83A341
:103C1000A3A3E0FBEE88828983A3A3F0A3EBF07952
:103C200000228C828D83E0FEA3E0FBEE88828983F4
:103C3000F0A3EBF022023A6E1236B4A30AAB832251
:103C400074F6121903740A1218DF123CBAA2E0408B
:103C50005BE9C313E813F52274FE2522C3940A50CE
:103C60004B740C1218DF123CBA2416F582E9123F8D
:103C7000BDE522F075210080288C828D83E0FEA3B3
:103C8000E0FBEE2400E43BFFE52133FAE433FBE8FC
:103C90002AF582E93BF583EEF0A3EFF0123CB10583
:103CA00021E521C3952240D1790080027904023AAE
:103CB000C8EC2402FCED3400FD22123B80E8220215
:103CC0003A6E0239FC74F6121903740A1218DFE016
:103CD000FEA3E0FFC3EE9404EF9400404E740C1278
:103CE00018DF123D96F9E5218A828B83F0A3E91251
:103CF0003D41F8E4C8F9E5218A828B83A3A3F0A3B0
:103D0000E9F0EE24FCF5218A828B83A3A3A3A3F020
:103D1000C39413501688227821121B16123D3012BC
:103D200031D274021218A9790080027904023AC8CB
:103D3000EC2404FCED3400FDEA2405FAEB3400FB2E
:103D400022F08C828D83A3A3E0F5218C828D83A346
:103D5000A3A3E022023A97C082C0838541828542B4
:103D600083123A6274021218DF123B7C74016A708B
:103D700001EB700E8C828D83E088828983F079005C
:103D8000800279040236EB023B86123CB1EA24033E
:103D9000FAEB3400FB22123DA78C828D83123DA1E9
:103DA00022E0F521A3E022E0F8A3E0F9E8FAE9FB3C
:103DB0002274EE12190374FA1218938A278B288C36
:103DC000238D24892574181218DFE0F529A3E0F566
:103DD0002A7A177B00122BDE8A218B22AE21AF229A
:103DE000EE4F7003023E908E828F83752101752203
:103DF00000E525F0A3E5234524601BAC29AD2AAAE4
:103E000082AB83852382852483121901EA2401F57C
:103E100021EB3400F522E525A2E7502E7910AA27E0
:103E2000AB28122C08E97063EE2521FCEF3522FD4A
:103E3000A921EEFAEFFB12300AE9F5237044E521DF
:103E4000240CF521E5223400F52285418285428348
:103E50007404F0A3E4F074021218DFEEF0A3EFF0A4
:103E600074041218DFE521F0A3E522F08541828574
:103E70004283AC82AD83AA27AB28122B36E9F52307
:103E80006011EEFAEFFB12341E800875231980F2E0
:103E9000752313A92374061218A97F0A0219D57471
:103EA000F412190374F0121893EAFEEBFF74026C1B
:103EB0007001ED600874106C7001ED7018741E12C2
:103EC00018DF123B7C7402687001E9600C741068A2
:103ED0007001E9600479008075741C1218DF1238D3
:103EE000F3E86C7002E96D700F8C238D2478231237
:103EF0001B16AC21AD22804E74106C7001ED854113
:103F000082854283AC82AD837021AA21AB22122725
:103F10006A7521107522007821121B16740212187E
:103F2000DFAC82AD83EEFAEFFB801B12276A7523AC
:103F3000107524007823121B1674021218DFAC824D
:103F4000AD83AA21AB221231E474021218A90239FE
:103F50006A74F41219038A218B22ECFEEDFFEA4504
:103F6000226049EE4F6045752310752400782312B6
:103F70001B167CCD7D8FEEFAEFFB1231D27402124C
:103F800018A9852182852283E0C0E0EE240CF58209
:103F9000EF123FBDD0E0123FB1E0C0E0EE240DF5DE
:103FA00082EF123FBDD0E0F0790180027900023942
:103FB0006FF0852182852283A322F582EB3400F500
:103FC000832274F7121903E9700579FF1232327FE8
:103FD000010219D5C082C08374FE1218937902AA17
:103FE00041AB42122C56854182854283E0FAA3E020
:103FF000FB74021218A9D083D082020CF5020CF5D2
:020000040002F8
:1030000074F7121903E99005DAF07C127D067AFF55
:103010007BFF122A289005DB74FFF0A3F0A3E4F0F5
:10302000A3F079051229BC9005DAE0F91228EA7AB2
:10303000467B2A122BEA7F010219D574F412190378
:103040008A218B22EB548060309005DAE0F912324D
:103050000E8A238B24AE23AF24EE4F60138E828F13
:1030600083E064B070031229D4EEFAEFFB1231FC56
:10307000AA21E5226480FB80047A007B0002B25220
:1030800074F212190374FC121893EAFEEBFFEE4F70
:10309000603874021218DFEEF0A3EF12B4B7ECF050
:1030A000A3ED12B4B7AA82AB831228E4E9F521702C
:1030B0007374121218DF12C06BE523452460658E0D
:1030C000828F8312B12EEE4F700575210280557AE2
:1030D000067B0012326E8A258B26A825A926E84990
:1030E0007005752113803D88828983E412B138A36D
:1030F000A3EEF0A3EF12C504E523F0A3E524F090BE
:1031000005E012B1C09005E06017E0FCA3E0800389
:10311000EAFCEBFD8C828D8312B1C070F38C828D42
:103120008312BF90A92174041218A902C68EA3A30A
:10313000A3A3E0FEA3E0FF22F0A3F088828983220C
:1031400074F21219038923E975F017A4FEAFF09009
:1031500005DFE4F09005DD12B1C0600A1232749010
:1031600005DDE4F0A3F0EEFAEFFB12326E8A218B5C
:1031700022EA4522602FEEFCEFFD79001231EA9041
:1031800005DDE521F0A3E522F07B00800812B1AA5D
:10319000E4F0A3F00BEBC3952340F2E5239005DFA9
:1031A000F079008002791302C68EEB75F017A4F84F
:1031B000A9F09005DDE028FAA3E0398A82F58322A0
:1031C00012BD26EA4B2274F41219037521007522F0
:1031D00000740C1218DF12C4D8FEE9FF800CE52140
:1031E0002401F521E5223400F522C3E5219CE522E6
:1031F0009D50328521238522247403782312188060
:10320000EA2523F8EB3524F988828983A3A3A3A3B5
:10321000A3A312C06BEE65237003EF652470BFE8B3
:10322000FAE9FB80047A007B00802774F41219030A
:103230007900EAA2E0501B7521787522907821125E
:103240001B167C047D007AFA7B121229B6740212D6
:1032500018A97F040219D5C082C0839005E012B27C
:103260008A601C88828983A3A3E06A7003A3E06B51
:103270008882898370E8A3A3A3A312BD2280047A65
:10328000007B00D083D082020CF512C761E849228E
:1032900074EE12190374FC121893EAFEEBFF8541D9
:1032A00082854283E4F0A3F0EE240212BF74EE2480
:1032B0000512B4A5EE2404F527EF12B88AE024FE27
:1032C000603924FC604624FE605224FE605E24FEC9
:1032D000700302B3AA24FE700302B42224FE70031A
:1032E00002B43124FE700302B44024FC700302B423
:1032F0004F24FE700302B45E02B49B9005F974176C
:10330000F0A3E412B4BF12268C02B49B85418285DF
:103310004283AC82AD831229DA02B46B8541828587
:103320004283AC82AD831229E002B46B85252185EE
:10333000262274021218DFAC82AD83852182852299
:103340008312BD221229028A258B26AC25AD26ECDC
:103350004D6042E4F525F5267825121B167525F9F2
:103360007526057825121B167525FA75260578250C
:10337000121B1674081218DF121B2D791612BD1CB1
:10338000122A1C74081218A9E9F525700B12BD1831
:103390001226A4800F75250185218285228312B40F
:1033A000AD12BF9085252102B46E74021218DFACF5
:1033B00082AD8385258285268312BD221229028A49
:1033C000298B2AAC29AD2AEC4D60438525828526C0
:1033D00083A3A3121B2D7529F9752A057829121BC1
:1033E000167529FA752A057829121B167408121801
:1033F000DF121B2D791612BD1C122A1C740812181C
:10340000A9E9F522700B12BD181226AA800F7522A9
:103410000185258285268312B4AD12BF90852221B5
:10342000804C854182854283AC82AD831229E6803F
:103430003A854182854283AC82AD831229EC802B90
:10344000854182854283AC82AD831229F2801C853E
:103450004182854283AC82AD831229F8800D85417B
:1034600082854283AC82AD831229FEE9F521E521F4
:1034700060298E828F83A3E06414601F8527828574
:103480002883E09005F912B4B712C75D9005FA12CF
:10349000BF90E521A312B4BF122686EEFAEFFB120D
:1034A000298002BE7CF525EF3400F5262212C76183
:1034B00085418285428322F085418285428322F0C4
:1034C0007CF97D0585238285248312BD262274EE36
:1034D00012190374FC1218938A238B248C278D28CD
:1034E000EA2405F521EB3400F5227C157D007900F6
:1034F0007AF97B051231EAE5212402F525E522124D
:10350000B4A885418285428385822985832A7829CA
:10351000121B16852182852283A3A3A3A312B9D2ED
:10352000121B16E5212405F529E5223400F52A7839
:1035300029121B1685258285268312BD2C1228FC94
:1035400074061218A98A298B2AAE29AF2AE52324EA
:1035500002F523E52412BF77EE4F700302B6948084
:103560001774021218DF12BD2288828983EAF0A341
:10357000EBF09005F9E004F09005F9E0C394054004
:103580000302B694E4F529F52A7829121B16752949
:10359000E2752A057829121B167529E3752A057824
:1035A00029121B1674061218DF121B2D7910EEFC5F
:1035B000EFFD12BD1C122A1C74081218A9E9705ED6
:1035C000852182852283A3A3A3A3A3A3A3E0F890CC
:1035D00005E2E068704812B9D2121B167CE37D0543
:1035E000E5212408FAE5223400FB1231E4740212CA
:1035F00018A9E960298E828F83A3A3A3A312BD22F9
:103600009005F9E0F5297402782912188074FA25DA
:1036100029F5827405352AF583EAF0A3EBF07402EC
:103620001218DF85822985832A7829121B167402D5
:103630001218DF121B2D85258285268312C7721270
:10364000290874041218A98A298B2AAE29AF2A9056
:1036500005F9E0F529752A0074027829121880749A
:10366000F92529F87405352AF988828983A312B1CE
:10367000C0700302B558E82403F8E93400F9EE4FAE
:10368000600302B5618882898374FFF0A3F090051E
:10369000F9E004F09005F9E0600A12BD18122698CE
:1036A0007900800B85218285228312BF87790A02E7
:1036B000BE7C74EA12190374FE1218938C2B8D2CA5
:1036C000EA2405F525EB12C8DC12B132752100752C
:1036D0002200EA2402F529EB3400F52A854182858F
:1036E00042838582238583247823121B16852582B5
:1036F000852683A3A3A3A312B894121B16E5252441
:1037000005F523E52612BF777823121B168525823F
:1037100085268312C7701228FC74061218A98A2302
:103720008B24EA4524700302B845EA2404F527EB0C
:1037300012B88A12B1328A828B83A3A3A3E0F985DF
:103740002982852A8312BD221228F0E9F52260031E
:1037500002B845E4F52DF52E782D121B16752DE2D5
:10376000752E05782D121B16752DE3752E05782DF7
:10377000121B1674061218DF121B2D7913AC23AD21
:1037800024852982852A8312BD22122A1C740812DC
:1037900018A9E9F522600302B8459005E2E0F8E5D2
:1037A000217009E024029005FAF080179005FAE0F4
:1037B000FCE82402FAE43400FBEA6C7001EB6003DD
:1037C00002B849852182AA8212B9C9941412B9C1DA
:1037D0005073852782852883E0C0E074FB2A12B8E5
:1037E00081D0E0F00521852782852883A3E0C0E011
:1037F00085212374FB252312B881D0E0F0052190A8
:1038000005E212B894121B167CE37D058521237412
:10381000FB2523FA74053400FB1231D2740212180E
:10382000A99005E2E02521F52174FF6E700374FF75
:103830006F6012EE24010EEF3400FFE521C39414F3
:10384000500302B6DCE521601312BC0D8529828588
:103850002A8312BD2212269E79008014E52270036D
:1038600075220A852B82852C83EEF0A3EFF0A92226
:1038700074021218A97F0E0219D585212574FB2523
:1038800025F58274053400F583223400F528852758
:1038900082F5832212C5172274EE12190374FE12E8
:1038A00018938C278D28EA2405F525EB12B4A8750A
:1038B00024009005F9E4F0F523EA2402F521EB3425
:1038C00000F52280499005F9E0FA9005E2E0F8124F
:1038D000B9C9941712B9C1400D9005F9E0F87416F2
:1038E000C3989005E2F012B9D2121B167CE37D0555
:1038F00074FA2AFA74053400FB1231D274021218D9
:10390000A99005E2E0F89005F9E028F00523E52507
:103910002416F582E52612B885E0F8E523C3984021
:103920000302B9AA9005F9E0C39416507DE523C3BC
:1039300033F8E433F9E52528FEE52639FF85418291
:10394000854283AC82AD838E828F8312BD22122981
:10395000028A298B2AAC29AD2AEC4D700575240109
:103960008043E4F529F52A7829121B167529E2759A
:103970002A057829121B167529E3752A057829125C
:103980001B1674061218DF121B2D791685218285ED
:10399000228312BD22122A1C74081218A9E9F524E8
:1039A000700302B8C512BF8380107CF97D058521A4
:1039B0008285228312BD221226B0A924740202BE7F
:1039C0007EE99400C365D03322EA28F8E43400F994
:1039D000E822E0F529752A0078292274EA121903F1
:1039E00074FC1218938A258B268C2B8D2CEA2405C7
:1039F000F523EB12BF77752100752200E523240221
:103A0000F529E5243400F52A74021218DF8582278F
:103A10008583287827121B16852382852483A3A3F8
:103A2000A3A312C4C3121B16E5232405F527E5241E
:103A30003400F5287827121B16852982852A8312DF
:103A4000BF7D12BD1C1228FC74061218A98A278B90
:103A500028AE27AF28E5252402F527E5263400F512
:103A60002880408882898374FFF0052112B87A7417
:103A7000FFF005219005E2E0F52575260078251276
:103A80001B167CE37D0585212574FB2525FA74052D
:103A90003400FB1231D274021218A99005E2E0251D
:103AA00021F521EE4F60718E828F83A3A3A3E0F9ED
:103AB00085278285288312BD221228F0E9F522EE9F
:103AC000240412B4A5E97044E4F52DF52E782D12E6
:103AD0001B16752DE2752E05782D121B16752DE31C
:103AE000752E05782D121B1674081218DF121B2D67
:103AF0007911EEFCEFFD85278285288312BD221205
:103B00002A1C74081218A9E9F522602785258285E8
:103B1000268312BC0312BF90E521700302BBE91299
:103B2000BC0D85278285288312BD221226B6790016
:103B300002BBFE852182AA82EA9005E27009E02498
:103B4000049005FAF08022E0F89005FAE0F52DE8FF
:103B50002404FCE43400FDEC652D7001ED70C0120E
:103B6000B9C9941212B9C150B6852582852683E061
:103B7000C0E074FB2A12B881D0E0F00521852582CF
:103B8000852683A3E0C0E012B87AD0E012BC1F857E
:103B900082258583267825121B1674041218DF12DD
:103BA0001B2D852982852A8312C772122908740465
:103BB0001218A98A258B26AE25AF2685212574FBF0
:103BC0002525F874053400F9EE4F700302BA6385B9
:103BD0004182854283E08882898312BC1FA3E0C0B2
:103BE000E012B87AD0E002BA71E522700375220AB9
:103BF00085238285248312BC0312BF90A9227404FA
:103C000002B87212C761852B82852C83229005FA37
:103C1000E0F5F0E521849005F9F07CF97D0522F0CE
:103C200005218541828542832274EC12190374FEBA
:103C30001218938A218B228C278D28EA2405FEEB0B
:103C40003400FF854182854283AC82AD838E828FB2
:103C50008312BD221229028A238B24EE241812B467
:103C6000A5EA4524700302BCF312BE6550328541BB
:103C70008285428312BD22122A108A298B2AEA45A4
:103C80002A606B7912AC23AD2485218285228312B0
:103C9000BD22852982852A83121901E9F5237058EE
:103CA000E4F523F5247823121B168E828F83A3A3B9
:103CB000E0F5237823121B16EE240312BF74782339
:103CC000121B168E828F8312BD2C122A22740612AA
:103CD00018A9E9F5237021852582852683E0701FC8
:103CE00085218285228312BD221226BC8011752374
:103CF0000E80097523018004E523600312BF8385CC
:103D00002582852683E0600479008002A92374025D
:103D10001218A97F0C0219D57CF97D0585238285AF
:103D2000248312BD2622E0FAA3E0FB22E0FCA3E0FC
:103D3000FD85218285228312BD262274EE1219038D
:103D400074FE1218938A218B228C258D26EA240575
:103D5000FEEB3400FF752700854182854283AC82EB
:103D6000AD838E828F8312BD221229028A238B2477
:103D7000EA4524700302BE5112BE6550358541826A
:103D800085428312BD22122A108A278B28EA4528F1
:103D9000605E7912AC23AD2485218285228312BD19
:103DA00022852782852883121901E9F527600302FD
:103DB000BE5485218285228312C06BAA23FB122A5E
:103DC000048A298B2AA829A92AE849701E7AFF7B30
:103DD000FF122A048A298B2AA829A92AE849606C9B
:103DE00088828983E523F0A3E524F075230080070A
:103DF00075270E805F05239005DFE0FAE523C39A5F
:103E0000504AE52375F017A4FAABF088828983A3A2
:103E1000A3E02AFAA3E03BFB8A828B8312BF7DECEE
:103E20004D70D27523177524007823121B16EEFCF3
:103E3000EFFD1231D274021218A9EEFCEFFD8521BC
:103E40008285228312BD221226C280147527098022
:103E50000375270112C75985258285268312BF90D5
:103E6000A92702B9BCE5212402F521E5223400F599
:103E7000228A828B83A3A3A3E0A2E52274041218F2
:103E8000A97F0A0219D574EC1219038C298D2AEA2C
:103E90002405F525EB12B4A8752800EA2402F523C1
:103EA000EB12BF77852382F58312BD22122A048A82
:103EB000218B22EA4522700302BF697527008071B9
:103EC000852582852683E06401704F8E828F83A3CF
:103ED000A3121B2D8E828F83A3A3A3A3E0F52B75C2
:103EE0002C00782B121B16EE2405F52BEF3400F571
:103EF0002C782B121B1612BD1C122A2274061218C3
:103F0000A9E9F5286014852582852683E4F012C787
:103F100059852982852A8312BF907C177D007900FC
:103F2000EEFAEFFB1231EA8E828F83E4F0A3F00504
:103F3000279005DFE0F8E527C398501EE52775F0C8
:103F400017A4F8A9F0852182852283A3A312C8E6CD
:103F500012BF7DEC4D600302BEC0852182852283A5
:103F600074FFF0A3F0E528700612BD1C1226C8A944
:103F70002802BD13F523EF3400F52422A3E0FCA3AF
:103F8000E0FD228E828F8312C76185278285288378
:103F9000E8F0A3E9F022C082C0839005DBE06A70FC
:103FA00003A3E06B70067ADB7B0580047A007B005C
:103FB00002B283C082C08378008C828D83E06A70F5
:103FC00003A3E06B7010E875F003A4F8A9F0EC28E7
:103FD000FAED39FB8015088C828D83A3A3A3E06AD8
:103FE0007003A3E06B60DF7A007B0002B28374F69B
:103FF0001219031229CE8A828B83E58245837006CB
:104000007A007B008007A3A3A3A312BD2202C60AE5
:1040100074F2121903E9FE740E1218DF12C06B74E9
:10402000101218DF12C4E38C828D83E064027036B4
:10403000A312C767F525A3E0F9A8257402687003E9
:1040400074296970217525027526007825121B16C2
:104050007821121B167823121B16EEF9122A3A74D5
:10406000061218A98002790102C68EE0F523A3E0AA
:10407000F5242274E812190374FB121893E98541A0
:1040800082854283F08A2F8B30ECFEEDFF7529008C
:10409000741D1218DF12C75D741D1218DF12BF9055
:1040A0008E828F83A3A3A3E0A2E4502D741D121867
:1040B000DF12BD22122A108A828B83E5824583702B
:1040C0000302C4B4790AEEFCEFFDAA2FAB3012193B
:1040D00001E9F529600302C4B7741F1218DF12C486
:1040E000E374211218DF12C06B74231218DFE0F59D
:1040F00027A3E0F5288E828F83E06402600302C468
:1041000062A312C75D852182852283A385822B85C8
:10411000832CEE240612B4A588828983E0FAA3E0FA
:10412000F9EA2400F52DE439F52E782D121BA001B3
:10413000000028012857C1070002281CC203288953
:10414000C1002953C301297EC302291FC303295378
:10415000C30429FDC362C4E5274528600302C45D8A
:1041600085258285268312C4D8FAE9FB8A828B834F
:10417000E085238285248312C50E121B168A828B4A
:1041800083A3E0FCA3E002C3E7E527452860030220
:10419000C45D8523828524837401F012C4EB8521DC
:1041A00082852283F07C007D008E828F83A3A3A36F
:1041B000A3E02401FAA3E03400FB122902EA4B60D9
:1041C000418A828B83E02402F8852382852483E060
:1041D00028F0EA2404F8EB3400F988828983E0852A
:1041E0002B82852C8312C52012C50E121B168A82C3
:1041F0008B8312BF7CE5212403FAE5223400FB0205
:10420000C3EC852382852483E02404F07C047D00B4
:104210007900AA2BAB2C1231EA02C4B7E527452856
:10422000600302C45D12C4EBFEA3E0FF8523828518
:1042300024837404F0EE852182852283F0EF852BA0
:1042400082852C83F074031218DFAC82AD83EEFA02
:10425000EFFB1229028A258B26EA4526700302C34A
:10426000008A828B83A3A312B12E74011218DF85FA
:1042700082278583287827121B1674051218DF12EF
:104280001B2D7CFF7DFF12290874041218A98B28AE
:10429000EA4528703385258285268312C4C3121B04
:1042A00016852582852683A3121B2D7C027D007A2C
:1042B0003C7B9112276474041218A9E9700A7401F6
:1042C0001218DF74FFF0A3F08E828F83E064027017
:1042D000397525027526007825121B168E828F836C
:1042E00012BF7CE5212404FAE5223400FB1231D20E
:1042F00074021218A9852382852483E02402800990
:1043000074011218DFEEF0A3EFF074011218DF123F
:10431000C4D4F074011218DFA312C4CC02C457E550
:10432000274528600302C45D85258285268312BF48
:104330007DAA2FAB30122A2E852382852483740216
:10434000F0EA852182852283F0852B82852C83EB00
:1043500002C45AE5274528600302C45D12C4EBF885
:10436000A3E0F98523828524837402F0E885218205
:10437000852283F0E9852B82852C8302C45A85250A
:104380008285268312BD221231CCEAFC8C82A8825F
:10439000C39527E49528405FE865277002E52870FB
:1043A000047C008022854182854283E0FAE5272A49
:1043B000FAE5283400FBC3EA98EB94005003E08050
:1043C00005E527CCC39CFCEC852382852483F08CF7
:1043D000237524007823121B16852582852683E009
:1043E0002527FCA3E03528FDAA21AB221231D27487
:1043F000021218A902C4B775290702C4B7E52745F8
:1044000028705A85258285268312C75D852382857B
:104410002483740712B13A12C4CC12B13AA3E085D6
:104420002B82852C83F0E82402FAE93400FB8A828F
:104430008B8312C4CC12C4FB12C4D4A312C50412C1
:10444000C4DDF0E82405F8E93400F9888289831294
:10445000C4DDA312C520A3A3A3A3F0805A75290B22
:104460008055741D1218DF12BD221229CE8A828B4C
:1044700083E5824583603D12C75D88258926E8452E
:104480002660317827121B167823121B167821120A
:104490001B1674061218DFE0F9EEFCEFFDAA2FAB35
:1044A0003085258285268312190174061218A9E920
:1044B000F529800375290EA92974051218A97F1002
:1044C0000219D5E0F527752800782722E08521829A
:1044D0008522832212C52A2212C761E82212C52A28
:1044E000A3A322E0F521A3E0F522228525828526DB
:1044F00083E0F8A3E0F5838882E022A3A3F08A8218
:104500008B83A322F088828983A3A3A3A322F08AAA
:10451000828B8312C51722E0F523752400782322AD
:10452000F088828983A312C52A22E0852182852210
:1045300083A3A32274EE12190374FE1218938A2324
:104540008B24ECFAEDFB74141218DFE0F529A3E0DC
:10455000F52A74161218DFE0FE74181218DFE0F561
:1045600027A3E0F528854182854283AC82AD831282
:1045700029028A258B26EA452660498541828542A3
:104580008312BD221229CE8A828B83E58245836005
:104590002FA3A312C4E3E521452260247827121B30
:1045A000167829121B16EEF9AC25AD26AA23AB24EA
:1045B00085218285228312190174041218A98006AC
:1045C000790E8002790102B9BC74F612190374FFE6
:1045D0006A700374FF6B70168C828D8312C60FE4B1
:1045E000F08C828D83A3A3A312C60FA38018122A76
:1045F0000A8A218B22A821A922E849600D88828994
:104600008374FF12B138A3A3E4F07F020219D574BA
:10461000FFF0A3F08C828D83A3A32274F6121903FA
:10462000122A0A8A828B83E58245836006A3A3E06F
:10463000FA80027A007B0080D174F21219038A2179
:104640008B22ECFEEDFF740E1218DFE0F523122A28
:104650000A8A258B26A825A926E8497026EEFCEFB4
:10466000FD7AFF7BFF122A0A8A258B26A825A92618
:10467000E84970047911801688828983E521F0A3C6
:10468000E522F088828983A3A3E523F079007F06E1
:104690000219D574EE121903EAFEEBFF8C218D226C
:1046A000892574141218DF12C75D74161218DF12F0
:1046B000BD22752600E849600302C75174026525D2
:1046C000600302C74C74121218DF12C767FCA3E024
:1046D000F9EC2400F527E439F528EAF4F8EBF4F9CD
:1046E000EC58F8E52859F9E849705CE5212406F80A
:1046F000ED3400F9882389248882F58312C7721269
:104700002A2E8A298B2AE52765297004E528652A3F
:1047100060427827121B1685238285248312C77274
:10472000122A3474021218A9E9F526702778271284
:104730001B16852182852283A3A312C770122A4CDF
:1047400074021218A9800D752680800875260D80C8
:104750000375260BA92602BE818E828F8312C76144
:1047600022E0F8A3E0F92212C76188828983E0225F
:10477000A3A3E0FCA3E0FDEEFAEFFB2274E812191C
:104780000374E7121893854182854283EAF0A3EB14
:10479000F08C2F8D3089277521007522007431121D
:1047A00018DFE0F52BA3E0F52C74331218DFE0F5E9
:1047B0002DA3E0F52E74351218DFE0F528E52275FB
:1047C000F003A4F8A9F085418285428312C8E6E08F
:1047D000F47003A3E0F4700302C8C9EE2402F525C7
:1047E000EF12C8DCE0700302C8C9852F238530248E
:1047F0007823121B16AC2DAD2EAA2BAB2C1229C27E
:1048000074021218A98A238B24EA4524700302C873
:10481000C9E4F529F52A7829121B1674061218DF47
:1048200085822985832A7829121B1674091218DFBC
:1048300085822985832A7829121B16852B82852C4F
:1048400083A3A3A3A3121B2D7914AC23AD248E82C2
:104850008F8312BD22122A1C74081218A9E97069EC
:10486000852382852483A3A3A3A312C75D740212A8
:1048700018DF12BF90852582852683E0A2E05018BC
:10488000A92774021218DFAC82AD838E828F831247
:10489000BD2212291AE94221852582852683E0A2BC
:1048A000E15026E528F5237823121B1AA927740363
:1048B0001218DFAC82AD838E828F8312BD22122943
:1048C0001474011218A9E942210522E522C39402B9
:1048D000500302C7BDA921741902C4BB3400F526D8
:1048E000852582F58322E028FEA3E039FF8E828FA2
:1048F000832274F2121903EAFEEBFF892474016526
:1049000024600E74026524706A7901122C08E97023
:1049100062EEFAEFFB122A048A218B22EA4522601A
:1049200047752300800B7C177D0079001231EA0562
:10493000239005DFE0F8E523C3985021E52375F0C7
:1049400017A4F8A9F0852182852283A3A3E028FA81
:10495000A3E039FB8A828B8312B28A70C9852182D7
:1049600085228374FFF0A3F07C127D06EEFAEFFB44
:10497000122A2802C68E74F21219038A218B22ECA5
:10498000FEEDFF740E1218DF12C06B9012F8E0F407
:10499000603D7A097B001231F6EA4B60328A828BE5
:1049A0008374B1F0A3E412C4FDA312C4FBA3E521F8
:1049B000F0A3E52212C9D2EEF0A3EF12C9D2A3A34D
:1049C000E523F0A3E524F09012F8E0F91232020298
:1049D000C68EF08A828B83A3A3A3A3A322C082C026
:1049E000839011B5E06405700479018002790002BA
:1049F000D38A75C9A075C950020CF5C082C08375F1
:104A0000F7E043F30153FDFE438F0143F30253FDEF
:104A1000FD438F0243F30453FDFB438F0443F3082C
:104A200053FDF7438F0843F31053FDEF438F1053AB
:104A3000F3DF53FDDF438F2053F3BF53FDBF438F9D
:104A40004053F37F53FD7F438F8053F4FE43FE01B9
:104A5000D29053F4FD43FE02D29153F4FB43FE0483
:104A6000D29253F4F743FE08C29353F4EF43FE107F
:104A7000C29443F42043FEDF43F48053FE7F43F6A9
:104A80008043F44043FEBF53F5FE53FFFE53F5FD54
:104A900043FF02C2A153F5FB43FF04C2A243FF0838
:104AA000C2A343FF10C2A49005517401F0900555B4
:104AB000F079001232D402D38A7F010219D574F63C
:104AC000121903E9FE74016E701E7521FC75220037
:104AD0007821121B167C007D007A247B0312356836
:104AE00074021218A902CB8A7521A37522007821BD
:104AF000121B167C007D007A817B021235687402DD
:104B00001218A99002817401F07C407D907A957B07
:104B100002123574900283749D12E1AF9003150464
:104B2000F07C267D907A857B021235749002E874C1
:104B30000812E1AFA3740312E1AF9002FC7468F0B5
:104B4000A3742112E1CE9002EC12CB8FA312CB8F73
:104B500090030C74FCF0A3745312E1CE900308127E
:104B6000E1C890030474D8F0A3745912E1CE900305
:104B70000012E1C890031112CF0D900556F0900578
:104B800057F0900558F0900559F07F020219D512A0
:104B9000CB97A312CB972274F4F0A37401F0A3E493
:104BA000F0A3F02274F7121903E9FE900AFA7401D7
:104BB000F0EE900280F07A017B0012322602CAB930
:104BC000C082C083E975F005A4FAABF074242AF51D
:104BD0008274033BF583E0F874385890054BF0601D
:104BE0001224F8602824F8603824F8604824F8601B
:104BF00058806A12CC7A700790031174018009748E
:104C0000026A7059900311E412CF12806912CC7AB3
:104C10007005900311805274026A704190031180F4
:104C20005412CC7A7005900312803E74026A702D83
:104C3000900312804012CC7A7005900313802A747E
:104C4000026A7019900313802C12CC7A70059003BD
:104C500014801674026A7005900314801874075843
:104C6000FA74036A70079005547401800974046A29
:104C70007005900554E4F002D38A740758FA740161
:104C80006A2274EA1219037AED7B0412330A123293
:104C90005C8A218B228C238D249002E478211217C8
:104CA0004E9090ED782512173F782179251215D274
:104CB00012CED5703A7E009002DDE06E602AEE25BD
:104CC000E0F8E433F974CD28F8740239F988828960
:104CD00083C3E09403A3E09400400D88828983E0BD
:104CE00024FEF0A3E034FFF00EEEC3940840C89019
:104CF00002E4782112173F9090FD782512173F7833
:104D00002179251215D212CED5700312D7857E00D7
:104D1000EE75F005A4F8A9F0742428F52D74033974
:104D2000F52E852D82F583E054C0600E24C06056B8
:104D300024C0700302CDC802CE3BA3782112173FD6
:104D4000E521452245234524700302CE3B9002E431
:104D50007821120D0D600302CE3BEEF912262C12C3
:104D600034F09011ECE0700302CE3B14F0852D82FC
:104D7000852E83A312CF0C852D82852E83F090047F
:104D80002A04F002CE3B9004F112CF2D9090FD78D2
:104D90002512173F7821792512155212CF3C121790
:104DA0003F782979251215527821792912168D908C
:104DB00004F312D6C212168D852D82852E83A37818
:104DC00021120D0D7075806E9004F312CF2D12CF4D
:104DD0003C12173F7829792512155278217929122A
:104DE000168D9004F112CF489090FD782512173F50
:104DF000782979251215527821792912168D900477
:104E0000F4E024FFF529E434FFF52A3395E0F52B8F
:104E1000F52C9090ED782512173F782979251215F9
:104E2000527821792912168D852D82852E83A378BB
:104E300021120D0D7005EEF912262C0EEEC39432E0
:104E4000500302CD1090042AE06401600302CED02A
:104E50009011F0E4F0A3F09011EEF0A3F0FEEE75E7
:104E6000F005A4F8A9F0742428F8740339F9E8FAD5
:104E7000E9FB8A828B83A3A882A9838A828B83E041
:104E800054C0888289837825601712173F12CEEBB1
:104E900012165512CEDE12165512CF199011F0804F
:104EA0001A12173F12CED5601912CEEB12165512F8
:104EB000CEDE12165512CF199011EEE028F0A3E0C5
:104EC00039F00EEEC39432409590042AE412E1DEEC
:104ED0007F0E0219D5E52545264527452822A8211C
:104EE000EC28FCE43DFD7418782522852521A821B5
:104EF000852622E522F521E82521FCE43400FD8801
:104F0000218527238528247410782122E412CF12CA
:104F1000F022F0A3F0A3F0A322EC2525F8E43DF95C
:104F20008A828B83E0FAE82AF8E439F92212CF3139
:104F300022E0F521E4F522F523F524229004F21273
:104F4000CF48909101782522E0F529E4F52AF52B48
:104F5000F52C2274F0121903900570E0703A9091CC
:104F600005782112173F900B377821120D58505AAF
:104F7000900B37C08212D14575830BD082782112F5
:104F80000D684046900562E4F0A293403D90055EB6
:104F900012D13E4035E48031900B37782512173F0F
:104FA00012D15912155290133B7825120D58501AF0
:104FB00090055EE4F0A293501190056212D13E403C
:104FC00009900570E4F0900562F0900571E070437F
:104FD000909105782112173F900B3B7821120D58C4
:104FE0005063900B3BC08212D14575830BD0827801
:104FF00021120D68404F900563E4F0A29440469062
:10500000055F12D13E403E9005717401F090055F3E
:10501000E48031900B3B782512173F12D1591215BD
:105020005290133F7825120D58501A90055FE4F006
:10503000A294501190056312D13E4009900571E48D
:10504000F0900563F0900572E0704390910578212F
:1050500012173F900B3F7821120D585063900B3F71
:10506000C08212D14575830BD0827821120D684021
:105070004F900564E4F0A2A3404690056012D13E33
:10508000403E9005727401F0900560E48031900B11
:105090003F782512173F12D15912155290134378B9
:1050A00025120D58501A900560E4F0A2A3501190FB
:1050B000056412D13E4009900572E4F0900564F059
:1050C000900573E07043909105782112173F900B83
:1050D000437821120D585063900B43C08212D14582
:1050E00075830BD0827821120D68404F900565E4DE
:1050F000F0A2A4404690056112D13E403E90057357
:105100007401F0900561E48031900B43782512170B
:105110003F12D1591215529013477825120D58504D
:105120001A900561E4F0A2A4501190056512D13ED9
:105130004009900573E4F0900565F002DA2BE00475
:10514000F0C39429229002E812D14C22E0F521A369
:10515000E0F522E4F523F524229002EA12D14C78FE
:105160002579212274EC12190390050712D32D1210
:105170000DA29004FD12D31E120DA2A293401F9007
:105180009109782912173F78257929120FAD7825D2
:105190007921120F61503E9005747401803690059C
:1051A00074E06401702F90050712E2069004FDE0A0
:1051B000687003A3E069601D909109782912173F78
:1051C00078217929120FAD78217925120F615005C8
:1051D000900574E4F090050912D32D120DA29004ED
:1051E000FF12D31E120DA2A294401F90910978299C
:1051F00012173F78257929120FAD78257921120FE2
:1052000061503E90057574018036900575E064012B
:10521000702F90050912E2069004FFE0687003A366
:10522000E069601D909109782912173F782179294A
:10523000120FAD78217925120F615005900575E4A4
:10524000F090050B12D32D120DA290050112D31E62
:10525000120DA2A2A3401F909109782912173F783E
:10526000257929120FAD78257921120F61503E90D2
:10527000057674018036900576E06401702F900504
:105280000B12E206900501E0687003A3E069601D5F
:10529000909109782912173F78217929120FAD785A
:1052A000217925120F615005900576E4F090050DE7
:1052B00012D32D120DA290050312D31E120DA2A21D
:1052C000A4401F909109782912173F782579291257
