:020000040000FA
:0600000002011D02205068
:03002B000226C9E1
:030053000220C6C2
:10008300021EFFE5C754F84401F5C77901220000B9
:100093000080FB120086B90003020107E47921788E
:1000A30008B800028004F709D8FCE479297802B87B
:1000B30000028004F709D8FCE490028178BF790735
:1000C3008002F0A3D8FCD9FA781A90014D7A01BACC
:1000D30000028007E493A3F608DAF990093FAA82A5
:1000E300AB8390014E783B79048015E493A3AC82F3
:1000F300AD838A828B83F0A3AA82AB838C828D83A8
:10010300D8E9D9E775822C75839B740312012F7587
:100113008291758300740012012F75D00075813FA1
:10012300751881751902759F00020096C09FF59F8F
:10013300E473D09F22D083D082C09FE493C0E07445
:100143000193C0E0740293F59F2201FF0000B40005
:100153000028002800283075A000A000A000A000FF
:1001630000080008E001F00010001000100010006B
:100173001000100050005000500010001000D00775
:100183000000000000000F000100050030750700AB
:100193001000010081FF00000000FF8606A4068C0A
:1001A30006FF02020208025000A0000000E803025A
:1001B3000690010000E38F02F28F0100009609020E
:1001C300F88F010000B30202F28F010000970902C9
:1001D300FA8F010000C90202F28F010000980902A0
:1001E300FC8F010000CB0202F28F0100009909028B
:1001F300FE8F080000CC0202F28F0100009A090270
:1002030000900100009B09FF0100FF2002069001FE
:100213000000EF8F02F28F010000FF09020290003D
:100223000000000002F68F0300001903B60CB60CA1
:10023300B60CB60CB60CB60CB60CB60CB60CB60CAB
:10024300B60CB60CB60C920FAA0F8C0FFFFF02026E
:1002530002020202020202010D0000001001020666
:1002630090010000EC8F02F28F010000420A021697
:10027300900100005C0702F28F010000430A0214A0
:1002830090010000138F02F28F010000440A021252
:1002930090010000F78E02F28F010000450A021060
:1002A30090010000A38E02F28F010000460A020EA5
:1002B30090010000B58E02F28F010000470A020C84
:1002C30090010000918E02F28F010000480A020A99
:1002D300900100007F8E02F28F010000490A02287C
:1002E30090010000058F02F28F0100004A0A022EDE
:1002F300900100004B0A01E803053F100AFF0001CB
:100303003075030201060000000000000000000039
:1003130000000000000000000000000000000000DA
:100323000000FFFF0600800CE803140953696D7099
:100333006C65424C455065726970686572616C0505
:100343001250002003020A000201050302F0FF53CA
:10035300696D706C6520424C452050657269706808
:100363006572616CAC130000B2130A436861726179
:100373006374657269737469632031000243686151
:100383007261637465726973746963203200084330
:1003930068617261637465726973746963203300A1
:1003A3001043686172616374657269737469632071
:1003B30034000243686172616374657269737469BE
:1003C30063203500020690010000E68F02F28F01E0
:1003D30000005E0B021C90030000290902F48F0148
:1003E30000005F0B02F28F010000700B021E9001F0
:1003F30000002A0902F48F010000710B02F28F0141
:100403000000820B0220900200002B0902F48F01EE
:100413000000830B02F28F010000940B0222900074
:1004230000002C0902F68F0300002D0902F48F014E
:100433000000950B02F28F010000A60B022490042A
:100443000000330902F48F010000A70B104B6579FC
:1004530020507265737320537461746500020690B3
:10046300010000E98F02F28F010000400C022C9082
:10047300000000380902F68F030000390902F48FE7
:10048300010000410C1201380D8F03120138248F33
:1004930003120138558F03120138908F031201386C
:1004A300BA8F03120138E48F03120138FB8F031252
:1004B3000138129003120138299003120138529027
:1004C300031201386590031201387B90031201383F
:1004D3008E9003120138B59003120138019802126D
:1004E30001380599021201383D99021201386099C9
:1004F300021201386B99021201388E9902120138E7
:100503009D9A02120138729B02120138ED9B02126E
:100513000138759C02120138B09C02120138E79C25
:1005230002120138759D021201384E9E02120138E3
:10053300AE9E02120138B99E02120138389F021290
:1005430001383B9F021201383E9F02120138CD9FB2
:1005530002120138D09F0212013800A002120138A2
:100563002AA00212013818A102120138CAA10212EC
:100573000138CDDB02120138F5DB0212013823DC2E
:10058300021201385ADC02120138B8DC02120138B7
:1005930003DD021201384EDD021201388EDD021234
:1005A3000138D4DD0212013802DE02120138BFDE47
:1005B30002120138C9DE02120138D6DE02120138F6
:1005C30009DF02120138D5DF02120138E1DF02121E
:1005D3000138F9DF0212013803E0021201387D9875
:1005E300031201388B9803120138A39803120138C0
:1005F300BB980312013827B001120138D3B001129E
:1006030001384EB1011201386FB201120138ABB299
:100613000112013854B3011201383BB401120138FD
:100623009FB501120138F6B50112013877B60112F0
:10063300013867B701120138B4B7011201383AB86B
:10064300011201386CB80112013880BA0112013865
:10065300C2BA01120138E0BA0112013863BB0112B8
:10066300013837BC01120138FFBC011201383AC509
:10067300021201380DC602120138B6C60212013841
:1006830009C702120138B9C70212013845C802125C
:10069300013831C90212013860C90212013873CA24
:1006A30002120138BBCA0212013890CB0212013880
:1006B300CCCB02120138E8CB02120138A89A0312FC
:1006C300013805F7021201381BF70212013841F70E
:1006D300021201385DF80212013867F8021201387C
:1006E3009CF90212013894FA02120138E3D1021282
:1006F300013813D30212013846D30212013890D3C2
:100703000212013857D50212013838A001120138FC
:10071300A2A00112013801A20112013811A2011293
:1007230001383EA20112013895A2011201383EA3FD
:100733000112013845A4011201380FA50112013835
:100743006FA601120138B2A60112013857A7011290
:100753000138A4A701120138CAA701120138D8A988
:1007630001120138DDA901120138E2AB011201388F
:100773002FAC01120138A2AC01120138D5AC011221
:10078300013877AD0112013820AE0112013858AE9D
:10079300011201385BAE01120138A3AE0112013818
:1007A300E3AE011201383AAF01120138F9820312A4
:1007B30001381183031201385983031201386F83FF
:1007C30003120138B68303120138CA8403120138B5
:1007D300578503120138A28503120138F826001247
:1007E30001380427001201383F27001201388427FB
:1007F30000120138442800120138CA2800120138B7
:100803002F29001201385B290012013894290012A4
:100813000138D22B00120138B62D001201389C2F5B
:1008230000120138DF30001201382D330012013875
:100833003F34001201388A35001201389A3600120B
:100843000138B73600120138F23600120138143776
:1008530000120138773700120138383C0012013892
:10086300CD3C001201381E3D00120138453D0012F7
:100873000138973D00120138B53D001201380F3E93
:1008830000120138F83E001201386E4000120138A0
:10089300F240001201383CE50212013846E502122B
:1008A300013889E502120138A4E50212013834E661
:1008B300021201385CE60212013899E6021201388D
:1008C300D0E602120138F9E6021201386EE702128D
:1008D300013883E70212013898E702120138C9E7A9
:1008E30002120138DDE70212013802E80212013870
:1008F3003CE80212013868E802120138A0E802124B
:1009030001381FE90212013868E90212013892E93D
:1009130002120138BDE90212013869950312013848
:100923000080021201382E80021201387C810212EB
:1009330001385C82021201387B8202120138F8828C
:10094300021201383B8302120138918402120138EA
:10095300528502120138D987021201387A880212AD
:1009630001387089021201386D8A02120138C78B6F
:1009730002120138528C021201380E94031201380C
:10098300779403120138CB9403120138F2940312C3
:1009930001382395031201387FEE02120138ECEE81
:1009A3000212013833EF021201384BF00212013800
:1009B30047F1021201382AF202120138E9F6011254
:1009C30001382BF701120138FDF701120138D6F86F
:1009D30001120138D0F901120138B2FA01120138BB
:1009E3001BFB01120138D1FB0112013845FC011236
:1009F3000138B1FC01120138DAFC0112013854FD4F
:100A030001120138EDFD0112013852FE01120138C5
:100A130067FE01120138ADFE01120138C6FE011254
:100A230001382BFF011201382EFF0112013800801B
:100A3300031201382880031201386680031201383B
:100A43002481031201388B8103120138A781031219
:100A53000138CF8103120138FF81031201380E825E
:100A6300031201388B8203120138B1820312013859
:100A7300319001120138CF9101120138EA9301122A
:100A83000138269401120138539401120138389524
:100A9300011201387F9501120138C3950112013803
:100AA300D5950112013815960112013842960112AB
:100AB30001388D9601120138CD9601120138FB964B
:100AC300011201384D9701120138DD9701120138E7
:100AD3007B9A01120138919C01120138CF9C0112BB
:100AE3000138609E01120138A59E011201381C9F36
:100AF30001120138669F01120138919F01120138DA
:100B030005AC0212013884AC0212013846B202125B
:100B1300013855B302120138BDB40212013854B57D
:100B230002120138EF56001201383857001201380B
:100B3300655700120138985700120138A557001263
:100B43000138B15700120138C35700120138AA58AF
:100B5300001201380859001201383D5900120138BA
:100B6300805A00120138CD5A00120138F15A00128E
:100B730001385E5B001201381C5C00120138D55C41
:100B830000120138425D00120138F45D0012013891
:100B9300045E001201388B5E001201384A5F0012B6
:100BA3000138775F00120138F05F001201384D60A1
:100BB300001201389760001201382D6100120138CC
:100BC300F86100120138AD6200120138226300128D
:100BD3000138836300120138ED6300120138266483
:100BE30000120138C86400120138D86500120138B8
:100BF3001866001201383566001201385466001277
:100C030001389B6600120138C06600120138ED6698
:100C130000120138676700120138A8670012013813
:100C2300CC68001201387C6900120138D3690012C4
:100C330001383D6A00120138566A001201383BA29E
:100C4300021201388EA2021201389AA2021201384E
:100C53006FA30212013896A302120138D1A3021224
:100C630001383DA40212013879A402120138B2A45A
:100C730002120138CAA4021201381FA50212013858
:100C830038A50212013881A50212013894A5021277
:100C93000138AEA502120138C4A502120138F7A625
:100CA300021201383EA80212013840A9021201388B
:100CB3003AAA02120138ED2600120138B2E90112F4
:100CC3000138E2E901120138AAED0112013801EFFE
:100CD30001120138CAEF011201384AF10112013839
:100CE3001BF20112013858F2011201387BF2011292
:100CF3000138B9F201120138C2F2011201380CF3C2
:100D03000112013816F301120138C0F30112013840
:100D130099F401120138EDF4011201384FF5011273
:100D23000138A2F501120138D1F5011201380EF68E
:100D330001120138886A00120138EF6D0012013880
:100D4300F56D00120138777300120138F077001245
:100D53000138C67B00120138157C001201388B7CE8
:100D630000120138A17C00120138E27C0012013824
:100D73001C7D00120138957D00120138D07D0012D0
:100D83000138437E00120138817E001201388A7EC9
:100D930000120138967E00120138B27E001201382B
:100DA300DD7E00120138F37E001201381C7F001231
:100DB30001387F7F001201380AD7021201381DD78C
:100DC3000212013837D70212013860D702120138F4
:100DD300A3D702120138E2D70212013820D8021237
:100DE300013885D8021201389AD802120138A5D8E1
:100DF30002120138B2D802120138C9D802120138DE
:100E0300D7D802120138E2D802120138EED8021202
:100E1300013801D9021201380CD9021201382FD935
:100E230002120138D6D902120138E6D9021201386A
:100E330000DA021201381DDA0212013839DA02121D
:100E430001385EDA0212013869DA021201387EDAF9
:100E53000212013892DA02120138F3DA021201386F
:100E6300F9DA02120138FFDA0212013805DB021245
:100E730001381DDB0212013850DB0212013889CD23
:100E8300011201380DCE01120138BCCE0112013816
:100E93001BD0011201383CD20112013828D30112B0
:100EA30001385DD3011201387FD3011201382ED4EA
:100EB3000112013826D6011201384FD6011201382A
:100EC300E1D60112013813D70112013820D70112DC
:100ED300013877D7011201389DD7011201380ADA98
:100EE300011201380DDB0112013865DB01120138F3
:100EF30018BF0112013822C00112013809C10112C1
:100F0300013813C10112013835C10112013841C141
:100F130001120138DAC20112013809C30112013882
:100F230025C4011201387EC401120138E4C501123F
:100F33000138C3C6011201381FC7011201388CC71B
:100F430001120138C7C70112013806C8011201385E
:100F5300BFCA01120138D9CA0112013865CB011287
:100F6300013873CB01120138CCCB01120138DACB33
:100F7300011201384DCC01120138B1CC01120138F4
:100F8300FBCC01120138D38C02120138F58C02120A
:100F930001381B8F02120138309202120138489334
:100FA30002120138FB9302120138DD940212013858
:100FB300C79003120138EC90031201385E910312BB
:100FC3000138C0BD02120138C9BD02120138D2BDB9
:100FD30002120138A9BE021201385AC002120138A6
:100FE30090C002120138CAC00212013800C10212B5
:100FF30001383AC1021201386EC1021201389AC196
:1010030002120138E3C1021201381DC20212013873
:1010130066C202120138BEC202120138F3C20212C2
:1010230001384EC30212013888C302120138D9C3F2
:10103300021201380FC40212013849C402120138E6
:1010430077C4021201389AC40212013852FF011206
:1010530001387EFF01120138D9FF01120138E3FF85
:1010630001120138F3FF011201385DCC021201387D
:1010730067CC02120138A5CC02120138EECC021261
:10108300013828CD0212013882CD02120138A3CDD6
:1010930002120138ACCD02120138F9CD0212013827
:1010A30022CE021201382CCE0212013898CE02123F
:1010B30001382ACF0212013874CF02120138AACFA5
:1010C3000212013836D00212013877D002120138E9
:1010D300AED002120138C0D002120138DFD00212A2
:1010E3000138E8D002120138B5D1021201388697CF
:1010F300031201381C8D03120138528D031201387B
:10110300888D03120138D38E03120138109A03120B
:101113000138269A03120138309A031201387A9A59
:10112300031201388C9B03120138E5E902120138DE
:10113300FAE902120138AAEA02120138EAEA0212B3
:10114300013803EB021201383EEB021201388BEB3C
:1011530002120138BDEB02120138FFEB0212013813
:1011630000EE0212013872EE02120138EB9B0312F9
:101173000138FD9B031201382C9C03120138CC85E6
:1011830003120138F185031201381B86031201385B
:10119300449C03120138594100120138BE43001226
:1011A30001385F4500120138134600120138A64684
:1011B300001201382B470012013850470012013842
:1011C300A64A001201382C4B001201385F4C001262
:1011D3000138994C00120138CE4C001201388E4E62
:1011E30000120138EB4E00120138344F001201385F
:1011F3009F4F001201381050001201384250001264
:1012030001385A5000120138A35100120138B3516A
:1012130000120138CE5200120138F0520012013888
:10122300265300120138DA540012013867550012B0
:101233000138A65500120138CA5600120138299DFB
:1012430003120138AF7F00120138EE7F001201381C
:101253003A9D031201385499031201386499031219
:1012630001387699031201380A9A031201388296DB
:10127300031201380797031201386D9703120138DF
:10128300ECF20212013800F3021201387AF302126F
:1012930001385EF40212013835F6021201389AF66B
:1012A30002120138F1F6021201389A9C0312013836
:1012B300AF9C03120138CE9C03120138F87F001251
:1012C3000138DD8A03120138728C03120138D38C82
:1012D30003120138198D031201386C92031201387D
:1012E300BE9203120138489303120138AF930312DD
:1012F3000138988803120138C28803120138908993
:10130300031201386B8A031201387EB502120138C9
:1013130045B6021201387CB602120138A6B6021293
:10132300013806B7021201385CB702120138C1B79F
:101333000212013859B80212013868B90212013891
:10134300FFBA021201388CBB02120138F3BB02123E
:1013530001380ABC0212013824BD0212013862BDF1
:1013630002120138B3DB0112013834DF01120138F4
:10137300BCE00112013813E10112013832E101121C
:101383000138B0E10112013846E3011201382BE4C0
:101393000112013839E8011201380FE9011201384D
:1013A3008AE00212013837E3021201385DE40212C7
:1013B300013807E5021201389EFA02120138E3FAF6
:1013C3000212013800FB02120138B6FB0212013887
:1013D30009FC02120138DFFC02120138F9FD021286
:1013E300013832FE0212013877FE02120138CBFEB9
:1013F300021201384EFF02120138C6FF02120138F1
:10140300DF9C031201380B9D03E066701008A3E014
:1014130066700A08A3E066700408A3E06622C3E7C7
:10142300960809E7960809E7960809E79622C3E0B4
:101433009608A3E09608A3E09608A3E09622C008C6
:10144300C3E096F50808A3E096420808A3E0964295
:101453000808A3E09645087001D3D00822080808BD
:10146300EAC0E0EBC0E086F0E7A4FA180986F0E7EB
:10147300A42AFA180986F0E7A42AFA180986F0E7DD
:10148300A42AFA1986F0E7A4FBE5F02AFA190886DC
:10149300F0E7A42BFBE5F03AFA190886F0E7A42B52
:1014A300FBE5F03AFA18180986F0E7A4C5F02BFB20
:1014B300E43AFA1908E7C5F0C6A426F6E5F03BFBC3
:1014C300E43AFA1886F0E7A4F6E5F00826F6E43BDA
:1014D30008F6E43A08F6D0E0FBD0E0FA22E4CFC005
:1014E300E0E4CEC0E0E4CDC0E0E4CCC0E075F020A1
:1014F300C3E633F608E633F608E633F608E633F6D2
:10150300181818EC33FCED33FDEE33FEEF33FFC355
:10151300EC9709ED9709EE9709EF97191919400F01
:10152300FFEC97FC09ED97FD09EE97FE191906D517
:10153300F0BEECF709EDF709EEF709EFF719191902
:10154300D0E0FCD0E0FDD0E0FED0E0FF2260160842
:101553000808C6C313C618C613C618C613C618C6CA
:1015630013C6D5E0EA227009080808226016181885
:1015730018C6C333C608C633C608C633C608C6333F
:10158300C6D5E0EA22E627F60809E637F60809E6B3
:1015930037F60809E637F622E026F608A3E036F622
:1015A30008A3E036F608A3E036F622E026F008A307
:1015B300E036F008A3E036F008A3E036F022C3E6F5
:1015C30097F60809E697F60809E697F60809E697F5
:1015D300F622C3E096F008A3E096F008A3E096F0A5
:1015E30008A3E096F022E056F608A3E056F608A317
:1015F300E056F608A3E056F622E056F008A3E056BC
:10160300F008A3E056F008A3E056F022E0F608A3A2
:10161300E0F608A3E0F608A3E0F622E6F008A3E666
:10162300F008A3E6F008A3E6F022E0FAA3E0FBA3A8
:10163300E0FCA3E0FD22EAF0A3EBF0A3ECF0A3EDC2
:10164300F022CAC0E0E6F0A308DAFAD0E0FA22CA30
:10165300C0E0E0A3C582CCC582C583CDC583F0A31A
:10166300C582CCC582C583CDC583DAE6D0E0CA2264
:10167300C3E498F8E499F91216B48026C3E49AFAFD
:10168300E49BFBE920E7E91216B4E498F8E499F93E
:1016930022C3E498F8E499F91216B4E498F8E499AB
:1016A300F9C3E49AFAE49BFB22EB20E7CFE920E7B6
:1016B300E0B90010BB0008E88AF084F8AAF022E43D
:1016C300FBC8FA22EB70227B10C833C8C933C93375
:1016D3005007C39AC3DBF280069A50012ADBEAC89B
:1016E30033F4C8C933F4C9FA2275F008E4C833C81F
:1016F300C933C933C99AC99B5004C92AC93BD5F018
:10170300ECFBC833F4C8E4C9FA22600D08C6A2E7AB
:1017130013C618C613C6D5E0F322600C08C6C3135C
:10172300C618C613C6D5E0F422700422600D18C68D
:10173300C333C608C633C6D5E0F41822251810AF44
:1017430008F518400215198008F51840021519D23A
:10175300AF22C0D0251810AF08F518500205198024
:1017630008F51850020519D2AFD0D0222518F582FA
:1017730010AF08F518400215198008F51840021536
:1017830019D2AF851983222518F582E43519F5831B
:1017930022E4732518C582C0E0E51934FFC583C070
:1017A300E0E518C3958224F810AF08858319858274
:1017B300188008858319858218D2AFCEF0A3E5205F
:1017C300F0A37808E608F0A3DEFAEFF0A3E581249E
:1017D300FAF8E608F0A3E608F0A3E608F0A3080881
:1017E300E608F0A3E608F0A315811581D0E0FED04A
:1017F300E0F8158115811581E8C0E0EEC0E02225EF
:1018030018C582C0E0E51934FFC583C0E0E518C3FD
:10181300958224F910AF088583198582188008857D
:101823008319858218D2AFCEF0A3E520F0A3780800
:10183300E608F0A3DEFAEFF0A3E58124FBF8E6085F
:10184300F0A3E608F0A30808E608F0A3E608F0A36F
:1018530015811581D0E0FED0E0F815811581E8C02F
:10186300E0EEC0E022851983851882E0A3FEE0A3A1
:10187300F5207808E0A3F608DFFAE0A3FFE0A3C0B1
:10188300E0E0A3C0E0E0A3C0E0E0A3C0E0E0A3C0C9
:10189300E010AF0885821885831980088582188532
:1018A3008319D2AFD083D08202013585198385187D
:1018B30082E0A3FEE0A3F5207808E0A3F608DFFAB0
:1018C300E0A3FFE0A3C0E0E0A3C0E0E0A3C0E0E04A
:1018D300A3C0E010AF08858218858319800885822C
:1018E30018858319D2AFD083D08222C0D02518C5E2
:1018F30082C0E0E51934FFC583C0E0E518C39582D3
:1019030024F310AF0885831985821880088583190D
:10191300858218D2AFC8F0A3E9F0A3EAF0A3EBF0F5
:10192300A37908E709F0A3D8FAECF0A3EDF0A3EE4E
:10193300F0A3EFF0A3D0E0F0A3D0E0F0A3D0E0F069
:10194300A3E520F0A3E5F0F0A3228519838518828F
:10195300E0C0E0A3E0F9A3E0FAA3E0FBA37808E08A
:10196300F608A3DFFAE0FCA3E0FDA3E0FEA3E0FF9B
:10197300A3E0C0E0A3E0C0E0A3E0F5D0A3E0F5203E
:10198300A3E0A3F5F010AF088583198582188008BA
:10199300858319858218D2AFD082D083D0E0F8D066
:1019A300E03274048006740280027401C0E0F4041F
:1019B30012176FD0E012164522740480047402805B
:1019C30000CCC0E0EDC0E0E518C39CCCAD195001DC
:1019D3001D10AF068C188D1980068C188D19D2AF87
:1019E300121652D0E0FDD0E0FC22D083D082E9C0B1
:1019F300E0E493A3C386F0C5F095F0F908E493A35C
:101A030086F0C5F095F0700BE493A3C3994005E904
:101A1300048002A3E475F002A42582F582E5F03583
:101A230083F583D0E0F9E493A3C0E0E493C0E0221C
:101A3300D083D082ECC0E0EDC0E0E493A3FCE49358
:101A4300A3FDED4C600D121A7FEC24FFFCED34FF77
:101A5300FD80EFE493A3FCE493A3FDED4C600D1232
:101A63001ABEEC24FFFCED34FFFD80EFD0E0FDD087
:101A7300E0FCE493A3C0E0E493C0E022C0E0C3E44D
:101A83009396087401939618400FE49366700808C0
:101A9300740193661870007019A3A3C3E4939608A6
:101AA3007401939618A3A3400DD0E0D0E0D0E002D8
:101AB3001A6FA3A3A3A3A3A3D0E022C0E0C0F0881E
:101AC300F0E4936670080874019366187000A8F038
:101AD300A3A3700BD0F0D0E0D0E0D0E0021A6FA344
:061AE300A3D0F0D0E022C8
:101AEC0074F5121802EAFEEBFFEE2434F8EF340022
:101AFC00F988088909EE2435121C18F8EE243712DF
:101B0C001C18F50AEC850AF0A4FCAAF0850AF0ED85
:101B1C00A42AFDE82CF8E43DF97A257B001216B4D2
:101B2C00EA850882850983F074075AF87401B800B5
:101B3C00028004C333D8FCFBEA131313541FF8EED2
:101B4C0028F8EF3400F9E8245DF582E9121C1B5BE0
:101B5C006003EA801CEE2436121C18F5F0EA84A807
:101B6C00F0EE28F8EF3400F9E82438F582E9121C7D
:101B7C001BF97F040218AE74F5121802EAFEEBFF93
:101B8C00EE2434121C18C0E0EE2435F582EF34003C
:101B9C00F583D0E0F08E828F83A3A3A3A3A3E0FAF6
:101BAC00A3E0FB8E828F83A3A3A3A3A3A3A3E0FC38
:101BBC00A3E0FDECC39AF50AED9BF50BEE247FF543
:101BCC0008EF3400F509850882F583E06401702B79
:101BDC00EE2480F582EF3400F5831219C0121C211B
:101BEC007402121755E960137CDC7D04EEFAEFFBEE
:101BFC00120BDE850882850983E4F0AC0AAD0BEE8E
:101C0C00FAEFFB121AEC1226B5021B7EF582EF34AA
:101C1C0000F583E022C082C083851882851983E099
:101C2C00F8A3E0F9C3EA9CEB9D5010C3EC98ED9936
:101C3C00401BC3EA98EB995014800EC3EA98EB99B9
:101C4C004007C3EC98ED994004790180027900D0EB
:101C5C0083D08222EAC39CFAEB9DFB2274ED12180E
:101C6C00029003A2E064086005E06407702C9061A8
:101C7C00C8E060269003D0E0F874FF68601CE8753B
:101C8C00F003A4C8AAF02AF974D228FE740339FF11
:101C9C008E828F83A3A3A3E070057900021E08EE49
:101CAC002468F510EF3400F511906060E085108227
:101CBC00851183F0750A45750B05750800750900CB
:101CCC00E5D914F50EE5D95403F50F601CEE24820A
:101CDC00F50CEF3400F50D7403650F6058E50E60DC
:101CEC0013EE2467121C18700B793DEEFAEFFB1201
:101CFC000C0280A6900540E064016026850C82856C
:101D0C000D83E06004780480027800850E08E508F5
:101D1C00C398FA95E0FB120A828A088B09EA4509F6
:101D2C007006120E60021CA6850C82850D83E07075
:101D3C00048A0A8B0B78008016E5D9C0E08812E57E
:101D4C000A2512F582E50B3400F583D0E0F008E8A3
:101D5C00C3950E40E4850C82850D83E0602874FCED
:101D6C00250EF50E780A1219A9AC0EA90FEEFAEF92
:101D7C00FB120CB07402121755E9700AAA08AB09D1
:101D8C001212E0021CF57403650F6058850E0C7579
:101D9C000D00780C1219A9AC0AAD0BAA08AB0912EC
:101DAC000C747402121755851082851183E0F87437
:101DBC0080687005750C7F8002880CE50CF50A783C
:101DCC000A1219ADE50FF50A780A1219ADA90EAC75
:101DDC0008AD099003D0E0FA7B0012091A740212C4
:101DEC00175580139003A2E06408600BAC0AAD0B8E
:101DFC00EEFAEFFB120D46120E6C79017F0C0218F5
:101E0C00AE74F312180274FC12173FEAFEEBFF8952
:101E1C0008A2AFE433F509C2AFEE2463F50AEF3440
:101E2C0000F50B8010AA0AAB0B120C2C1212E090CE
:101E3C0004E3E004F0850A82850B83E0F8A3E0F963
:101E4C00E849602FE82402FAE93400FBEA2402F5A1
:101E5C000CEB3400F50D780C1219A98A828B83E0F7
:101E6C00FCA3E0F9EEFAEFFB120C207402121755EA
:101E7C00E960B29004E3E060579004E4E0F8900469
:101E8C00E3E0C398500C7402650870449004E5E0DC
:101E9C00603E8E828F83A3A3A3A3E085188285194D
:101EAC0083121EEC740212178AE8121EEC9004E2E4
:101EBC00E028F0740212178AAC82AD8385188285F3
:101ECC001983AA82AB8379011209269004E3E4F00A
:101EDC00E509A2E092AF74041217557F060218AE02
:101EEC00F0A3E4F09004E3E0F8220000852187855C
:101EFC0022C622C0E074EF1218EEA2AFE433FEC289
:101F0C00AF759B00906182E0A2E05012E591A2E0D7
:101F1C00500C7591FE740165217003121C68E0A2CF
:101F2C00E55051E591A2E5504B7591DF9003A2E08D
:101F3C0064076005E06408702374016521703579CD
:101F4C00019003D0E0FA75F003A4CAA8F028FB7442
:101F5C00D22AFA74033BFB121E0D8018E0640D703C
:101F6C00139003C4E004F064287002E4F07A00E0FB
:101F7C00F9120E72906182E0A2E64003022026E57F
:101F8C0091A2E640030220267591BF9003A2E06463
:101F9C00057008120D88120D948003120D8E752198
:101FAC0000120E00E99003A3F07900120DF4120B4D
:101FBC00487A017B009003A1E0F91210C4907803D9
:101FCC00E064427055900544E014F0704DC2AF12BD
:101FDC001FDE00782AD0E0F618D0E0F6E59F540713
:101FEC0070057509FF800375097FC4C0E07829E688
:101FFC00F50808E65509F509740B780812171DD079
:10200C00E02508F8906270E0A2E740F8E8C333904E
:10201C006272F0906270E0D2E0F0906181E0A2E335
:10202C005009E5E9A2E3500375E9F7A3E0A2E750F4
:10203C0009E591A2E7500375917FEEA2E092AF7F84
:10204C000402194DC0E0C0D0C082C083906183E00F
:10205C00A2E05009E5BFA2E0500375BFFEE0A2E18B
:10206C005009E5BFA2E1500375BFFDE0A2E25009A3
:10207C00E5BFA2E2500375BFFBE0A2E35009E5BF48
:10208C00A2E3500375BFF7E0A2E45009E5BFA2E458
:10209C00500375BFEFE0A2E55009E5BFA2E5500380
:1020AC0075BFDFE0A2E65009E5BFA2E6500375BF9D
:1020BC00BFD083D082D0D0D0E032C0E074F21218FE
:1020CC00EEE5A7A2E4500FE5A1A2E4500953A7EF57
:1020DC0075A1EF12211AE5A7A2E5500CE5A1A2E526
:1020EC00500653A7DF75A1DFE5A7A2E15009E5A1D2
:1020FC00A2E1500375A1FDE5A7A2E2500CE5A1A257
:10210C00E2500653A7FB75A1FB7F0102194D74F831
:10211C001218027521019003A2E0640670077A0080
:10212C007B00120D70A2AFE433FED2AF9003A8E097
:10213C00640170187A207B009003A1E0F912114E13
:10214C007A207B009003A1E0F91210CA906182E022
:10215C00D2E6F0900541E0602185C62280169003FE
:10216C00A7E064017008E5C654F84405F5C653BEF3
:10217C00FC121EF87401652160E4EEA2E092AF7FC0
:10218C00010218AE8E238F2485822885832785181B
:10219C0082851983E0CEA3E0CF852882852783EB47
:1021AC00C9EAC8EDCBECCA75F010C3E833C8E93303
:1021BC00C9EA33CAEB33CBC3EA9EF526EB9FF52570
:1021CC00B35004AB25AA26EC33CCED33CDD5F0DAE5
:1021DC00AE23AF242274E912180274FA12173FEAE4
:1021EC00FEEBFF8C088D099003A2E024F7C3940545
:1021FC00500675100102230C120CE68A0A8B0BEAAE
:10220C00450B7003022309120DA68A0C8B0D120DBF
:10221C00A6EA650C7003EB650D60ECEEFCEFFD853A
:10222C001882851983AA82AB83120DAC850A82852C
:10223C000B83A3A3780C12160F908FC7780C121572
:10224C00E9851882851983781412160F908FC77838
:10225C00141215E9780C7914121421501F780C798A
:10226C00141215C1908F63780C1214414047850CE1
:10227C0010850D11850E12850F138045908F638587
:10228C0014108515118516128517137810790C12F8
:10229C0015C17810121441501C7510007511007581
:1022AC001200751301781079141215C17810790C7D
:1022BC00121588800C7510017511007512007513BC
:1022CC000074097810121569908F67780C12160F2C
:1022DC007810790C1214E09003A2E06408600AE014
:1022EC0064066005E064057020908F6B7810121402
:1022FC00415016908F6F781012159B800C75100042
:10230C007511007512007513008508828509837894
:10231C001012161E74061217557F100218AE74F7A1
:10232C00121802120DBE90053FE06401701090620D
:10233C0045E4F0A3F053F4F343FE0C5390F3120D69
:10234C005EE5C654804449F5C6E59E547F644970E9
:10235C00F8906185740FF090053DE0F47002A3E0F5
:10236C00602C75080175090090053DE0780812177E
:10237C002CE508F4FAA3E0600814600A14600C80E1
:10238C000DEA52808008EA52908003EA52A079004C
:10239C007F020218AE74F7121802E9FEEAFF74010C
:1023AC006E700C7A807B009003A1E0F91210C4903F
:1023BC0026F0E493F46008E493F9120B2A80095395
:1023CC00C680E59E547F70FA120D6490053FE06460
:1023DC00017003120B6090053DE0F47002A3E06005
:1023EC002A75080175090090053DE0780812172C34
:1023FC00AA08A3E0600814600A14600C800DEA427D
:10240C00808008EA42908003EA42A0120CE68A0817
:10241C008B09A808A909E8496017E5E170FCE824D4
:10242C0014F582E93400F583E0F874FF68600288E3
:10243C00E174016F700A7A019003A1E0F91211188E
:10244C0002239C74F11218028A088B098C0A8D0BDA
:10245C00908FC778081215E9740F12178A780C122E
:10246C00160F908FC7780C1215E97808790C121496
:10247C0021908F6350107808790C1215C1780812CE
:10248C0014414014800E780C79081215C1780C1286
:10249C00144150047901800279007F080218AE744F
:1024AC00ED1218028A088B098C0A8D0B908FC77855
:1024BC00081215E9741312178A780C12160F908FE4
:1024CC00C7780C1215E9780C790812142140117890
:1024DC0008790C1215C1AA08AB09AC0AAD0B802205
:1024EC007510007511007512007513017810790CB8
:1024FC001215C178107908121588AA10AB11AC12FC
:10250C00AD137F0C0218AE908FC7780812160F8A85
:10251C00828B8378081215FC7F040218AE74F512B6
:10252C0018028C828D83780812160F8A828B83781E
:10253C00081215D512257DC3E098F0A3E099122559
:10254C006F401E908F9B780812160F8A828B8378AF
:10255C00081215AE8E828F83E02420F0A3E0344E57
:10256C00F080A4F08E828F83C3E09420A3E0944E7D
:10257C0022EA2404F8EB3400F9E8FEE9FF8C828DA2
:10258C0083A3A3A3A3E0F8A3E0F98E828F83227424
:10259C00F5121802E9FE9004F7E0FAA3E0FBEEC393
:1025AC0033F8E433F974E728F582748E39F583E057
:1025BC002AF508A3E03BF50978081219A9908FD3E6
:1025CC0012162D12219074021217558A088B098C41
:1025DC000A8D0B74107808121550AA08AB097F04E9
:1025EC000218AE74F11218028A0C8B0D8C0E8D0F22
:1025FC00740F12178AE0FAA3E0FB741112178AE029
:10260C00F508A3E0F50978081219A9EA2401F508E0
:10261C00EB3400F509E4F50AF50B780C7908121483
:10262C0060908F7B780812160F780C790812146062
:10263C00AA0CAB0DAC0EAD0F1221907402121755F3
:10264C008B09EA450960047A0180027A00EC2AFCC5
:10265C00ED3400FD741312178AE0F8A3E0F9E8FEDC
:10266C00E9FFECF8EDF97A717B021216B48808894F
:10267C0009E4F50AF50B8E828F83780812161EEC8E
:10268C00F8EDF97A717B021216B48A088B0974057D
:10269C00780812172C8E828F83A3A3A3A3E508F0CE
:1026AC00A3E509F07F080218AEC082C083E99060F0
:1026BC0000F0D083D08222C2AF02000022C0E0C062
:1026CC00D0E8C0E0E9C0E0E5A8D2AFC2C7751A00F7
:1026DC00A2E7A2E792AFD0E0F9D0E0F8D0D0D0E0FA
:1026EC0032020135FFFFFFFFFFFFFFFFC082C083F7
:1026FC00E99009FEF002298774F7121796E9900207
:10270C00E1F07C197D037AFF7BFF12086C9002E2EA
:10271C0074FFF0A3F0A3E4F0A3F079051207F49092
:10272C0002E1E0F91207167A8A7B08120A347F015B
:10273C0002186874F41217968A088B09EB5480609F
:10274C00309002E1E0F91210AC8A0A8B0BAE0AAFA2
:10275C000BEE4F60138E828F83E064B0700312080F
:10276C000CEEFAEFFB12109AAA08E5096480FB80C4
:10277C00047A007B0002295674F212179674FC122C
:10278C00173FEAFEEBFFEE4F6038740212178AEE29
:10279C00F0A3EF122BBBECF0A3ED122BBBAA82AB78
:1027AC0083120710E9F5087073741212178A123726
:1027BC006FE50A450B60658E828F83122832EE4FCF
:1027CC00700575080280557A067B001211008A0C80
:1027DC008B0DA80CA90DE8497005750813803D8870
:1027EC00828983E412283CA3A3EEF0A3EF123C08E9
:1027FC00E50AF0A3E50BF09002E71228C49002E77B
:10280C006017E0FCA3E08003EAFCEBFD8C828D8377
:10281C001228C470F38C828D83123694A908740428
:10282C00121755023E0AA3A3A3A3E0FEA3E0FF22C6
:10283C00F0A3F0888289832274F2121796890AE930
:10284C0075F017A4FEAFF09002E6E4F09002E412EB
:10285C0028C4600A1211069002E4E4F0A3F0EEFA28
:10286C00EFFB1211008A088B09EA4509602FEEFC78
:10287C00EFFD79001210889002E4E508F0A3E50959
:10288C00F07B0080081228AEE4F0A3F00BEBC395AC
:10289C000A40F2E50A9002E6F07900800279130210
:1028AC003E0AEB75F017A4F8A9F09002E4E028FAC0
:1028BC00A3E0398A82F5832212342AEA4B2274F47B
:1028CC00121796750800750900740C12178A123BC2
:1028DC00DCFEE9FF800CE5082401F508E50934006D
:1028EC00F509C3E5089CE5099D503285080A850960
:1028FC000B7403780A12172CEA250AF8EB350BF93E
:10290C0088828983A3A3A3A3A3A312376FEE650ABE
:10291C007003EF650B70BFE8FAE9FB80047A007B6B
:10292C0000802774F41217967900EAA2E0501B7508
:10293C00084C75098F78081219A97C047D007A005F
:10294C007B0A1207EE74021217557F04021868C036
:10295C0082C0839002E712298E601C88828983A32F
:10296C00A3E06A7003A3E06B8882898370E8A3A359
:10297C00A3A312342680047A007B00D083D0820279
:10298C000135123EDDE8492274EE12179674FC12E2
:10299C00173FEAFEEBFF851882851983E4F0A3F05C
:1029AC00EE2402123678EE2405122BA9EE2404F53F
:1029BC000EEF122F8EE024FE603924FC604624FEBC
:1029CC00605224FE605E24FE7003022AAE24FE7068
:1029DC0003022B2624FE7003022B3524FE70030207
:1029EC002B4424FC7003022B5324FE7003022B6235
:1029FC00022B9F9003007417F0A3E4122BC3120454
:102A0C008E022B9F851882851983AC82AD831208A8
:102A1C0012022B6F851882851983AC82AD83120844
:102A2C0018022B6F850C08850D09740212178AACDD
:102A3C0082AD838508828509831234261207348A75
:102A4C000C8B0DAC0CAD0DEC4D6042E4F50CF50DA2
:102A5C00780C1219A9750C00750D03780C1219A9B4
:102A6C00750C01750D03780C1219A9740812178ACC
:102A7C001219C07916123420120854740812175502
:102A8C00E9F50C700B12341C1204A6800F750C01A6
:102A9C00850882850983122BB1123694850C0802A5
:102AAC002B72740212178AAC82AD83850C82850D51
:102ABC00831234261207348A108B11AC10AD11EC32
:102ACC004D6043850C82850D83A3A31219C075102C
:102ADC000075110378101219A9751001751103787E
:102AEC00101219A9740812178A1219C07916123407
:102AFC00201208547408121755E9F509700B12349A
:102B0C001C1204AC800F750901850C82850D831293
:102B1C002BB1123694850908804C8518828519834F
:102B2C00AC82AD8312081E803A851882851983AC5D
:102B3C0082AD83120824802B851882851983AC8280
:102B4C00AD8312082A801C851882851983AC82AD4E
:102B5C0083120830800D851882851983AC82AD8371
:102B6C00120836E9F508E50860298E828F83A3E008
:102B7C006414601F850E82850F83E0900300122B76
:102B8C00BB123ED9900301123694E508A3122BC355
:102B9C00120488EEFAEFFB1207B2023580F50CEF47
:102BAC003400F50D22123EDD85188285198322F042
:102BBC0085188285198322F07C007D03850A828525
:102BCC000B8312342A2274EE12179674FC12173FE0
:102BDC008A0A8B0B8C0E8D0FEA2405F508EB34005A
:102BEC00F5097C157D0079007A007B03121088E5CD
:102BFC00082402F50CE509122BAC85188285198383
:102C0C0085821085831178101219A985088285098F
:102C1C0083A3A3A3A31230D61219A9E5082405F5A2
:102C2C0010E5093400F51178101219A9850C82856C
:102C3C000D8312343012072E74061217558A108B1E
:102C4C0011AE10AF11E50A2402F50AE50B12367B22
:102C5C00EE4F7003022D988017740212178A1234EB
:102C6C002688828983EAF0A3EBF0900300E004F05D
:102C7C00900300E0C394054003022D98E4F510F591
:102C8C001178101219A97510E97511027810121922
:102C9C00A97510EA75110278101219A97406121789
:102CAC008A1219C07910EEFCEFFD12342012085470
:102CBC007408121755E9705E850882850983A3A3F1
:102CCC00A3A3A3A3A3E0F89002E9E0687048123034
:102CDC00D61219A97CEA7D02E5082408FAE5093424
:102CEC0000FB1210827402121755E960298E828F34
:102CFC0083A3A3A3A3123426900300E0F51074025F
:102D0C00781012172C74012510F58274033511F507
:102D1C0083EAF0A3EBF0740212178A858210858384
:102D2C001178101219A9740212178A1219C0850C85
:102D3C0082850D83123EEE12073A74041217558ADF
:102D4C00108B11AE10AF11900300E0F5107511004F
:102D5C007402781012172C74002510F874033511B6
:102D6C00F988828983A31228C47003022C5CE8249E
:102D7C0003F8E93400F9EE4F6003022C6588828970
:102D8C008374FFF0A3F0900300E004F0900300E0E4
:102D9C00600A12341C12049A7900800B8508828513
:102DAC00098312368B790A02358074EA12179674ED
:102DBC00FE12173F8C128D13EA2405F50CEB124012
:102DCC0058122836750800750900EA2402F510EB34
:102DDC003400F51185188285198385820A85830B49
:102DEC00780A1219A9850C82850D83A3A3A3A312BB
:102DFC002F981219A9E50C2405F50AE50D12367B5E
:102E0C00780A1219A9850C82850D83123EEC1207E3
:102E1C002E74061217558A0A8B0BEA450B700302A7
:102E2C002F49EA2404F50EEB122F8E1228368A82D3
:102E3C008B83A3A3A3E0F98510828511831234261A
:102E4C0012071CE9F5096003022F49E4F514F51586
:102E5C0078141219A97514E975150278141219A9A8
:102E6C007514EA75150278141219A9740612178ACA
:102E7C001219C07913AC0AAD0B851082851183121F
:102E8C0034261208547408121755E9F50960030228
:102E9C002F499002E9E0F8E5087009E0240290035C
:102EAC0001F08017900301E0FCE82402FAE43400FE
:102EBC00FBEA6C7001EB6003022F4D850882AA823D
:102ECC001230CD94141230C55073850E82850F8349
:102EDC00E0C0E074022A122F85D0E0F00508850EC0
:102EEC0082850F83A3E0C0E085080A7402250A12CC
:102EFC002F85D0E0F005089002E9122F981219A93D
:102F0C007CEA7D0285080A7402250AFA74033400EF
:102F1C00FB12107074021217559002E9E02508F5A7
:102F2C000874FF6E700374FF6F6012EE24010EEFD5
:102F3C003400FFE508C394145003022DE0E508604B
:102F4C00131233118510828511831234261204A0BA
:102F5C0079008014E509700375090A8512828513BE
:102F6C0083EEF0A3EFF0A90974021217557F0E023D
:102F7C00186885080C7402250CF58274033400F56E
:102F8C0083223400F50F850E82F58322123C1B221E
:102F9C0074EE12179674FE12173F8C0E8D0FEA24E6
:102FAC0005F50CEB122BAC750B00900300E4F0F55F
:102FBC000AEA2402F508EB3400F509804990030075
:102FCC00E0FA9002E9E0F81230CD94171230C540C7
:102FDC000D900300E0F87416C3989002E9F01230DB
:102FEC00D61219A97CEA7D0274012AFA7403340002
:102FFC00FB12107074021217559002E9E0F890035E
:10300C0000E028F0050AE50C2416F582E50D122FD8
:10301C0089E0F8E50AC39840030230AE900300E063
:10302C00C39416507DE50AC333F8E433F9E50C2854
:10303C00FEE50D39FF851882851983AC82AD838E30
:10304C00828F831234261207348A108B11AC10AD88
:10305C0011EC4D7005750B018043E4F510F51178FA
:10306C00101219A97510E975110278101219A975A9
:10307C0010EA75110278101219A9740612178A1227
:10308C0019C07916850882850983123426120854D2
:10309C007408121755E9F50B7003022FC912368705
:1030AC0080107C007D0385088285098312342612EA
:1030BC0004B2A90B7402023582E99400C365D033C3
:1030CC0022EA28F8E43400F9E822E0F51075110042
:1030DC0078102274EA12179674FC12173F8A0C8B24
:1030EC000D8C128D13EA2405F50AEB12367B75084C
:1030FC0000750900E50A2402F510E50B3400F51102
:10310C00740212178A85820E85830F780E1219A904
:10311C00850A82850B83A3A3A3A3123BC71219A90B
:10312C00E50A2405F50EE50B3400F50F780E12199F
:10313C00A985108285118312368112342012072E34
:10314C0074061217558A0E8B0FAE0EAF0FE50C24BA
:10315C0002F50EE50D3400F50F80408882898374EA
:10316C00FFF00508122F7E74FFF005089002E9E0CD
:10317C00F50C750D00780C1219A97CEA7D028508F6
:10318C000C7402250CFA74033400FB1210707402D8
:10319C001217559002E9E02508F508EE4F60718E84
:1031AC00828F83A3A3A3E0F9850E82850F8312344B
:1031BC002612071CE9F509EE2404122BA9E9704428
:1031CC00E4F514F51578141219A97514E97515029E
:1031DC0078141219A97514EA75150278141219A924
:1031EC00740812178A1219C07911EEFCEFFD850EC6
:1031FC0082850F831234261208547408121755E96D
:10320C00F5096027850C82850D83123307123694DD
:10321C00E50870030232ED123311850E82850F839F
:10322C001234261204B87900023302850882AA826D
:10323C00EA9002E97009E02404900301F08022E096
:10324C00F8900301E0F514E82404FCE43400FDECF0
:10325C0065147001ED70C01230CD94121230C5504F
:10326C00B6850C82850D83E0C0E074022A122F858E
:10327C00D0E0F00508850C82850D83A3E0C0E01238
:10328C002F7ED0E012332385820C85830D780C12AF
:10329C0019A9740412178A1219C08510828511831A
:1032AC00123EEE12073A74041217558A0C8B0DAEAF
:1032BC000CAF0D85080C7402250CF874033400F95E
:1032CC00EE4F7003023167851882851983E088827E
:1032DC008983123323A3E0C0E0122F7ED0E00231A9
:1032EC0075E509700375090A850A82850B8312330B
:1032FC0007123694A9097404022F76123EDD85124A
:10330C008285138322900301E0F5F0E50884900395
:10331C0000F07C007D0322F0050885188285198356
:10332C002274EC12179674FE12173F8A088B098CC4
:10333C000E8D0FEA2405FEEB3400FF8518828519EB
:10334C0083AC82AD838E828F831234261207348A2B
:10335C000A8B0BEE2418122BA9EA450B70030233CF
:10336C00F71235695032851882851983123426126A
:10337C0008488A108B11EA4511606B7912AC0AADC2
:10338C000B8508828509831234268510828511836A
:10339C00121794E9F50A7058E4F50AF50B780A123D
:1033AC0019A98E828F83A3A3E0F50A780A1219A9B2
:1033BC00EE2403123678780A1219A98E828F8312A2
:1033CC00343012085A7406121755E9F50A70218523
:1033DC000C82850D83E0701F850882850983123469
:1033EC00261204BE8011750A0E8009750A0180042C
:1033FC00E50A6003123687850C82850D83E0600434
:10340C0079008002A90A74021217557F0C02186801
:10341C007C007D03850A82850B8312342A22E0FA14
:10342C00A3E0FB22E0FCA3E0FD8508828509831262
:10343C00342A2274EE12179674FE12173F8A088BE8
:10344C00098C0C8D0DEA2405FEEB3400FF750E0083
:10345C00851882851983AC82AD838E828F8312345A
:10346C00261207348A0A8B0BEA450B70030235557A
:10347C001235695035851882851983123426120845
:10348C00488A0E8B0FEA450F605E7912AC0AAD0BC1
:10349C00850882850983123426850E82850F831256
:1034AC001794E9F50E600302355885088285098367
:1034BC0012376FAA0AFB12083C8A108B11A810A9AC
:1034CC0011E849701E7AFF7BFF12083C8A108B11A1
:1034DC00A810A911E849606C88828983E50AF0A3D9
:1034EC00E50BF0750A008007750E0E805F050A90DB
:1034FC0002E6E0FAE50AC39A504AE50A75F017A409
:10350C00FAABF088828983A3A3E02AFAA3E03BFB01
:10351C008A828B83123681EC4D70D2750A17750B2B
:10352C0000780A1219A9EEFCEFFD12107074021249
:10353C001755EEFCEFFD850882850983123426129F
:10354C0004C48014750E098003750E01123ED585D6
:10355C000C82850D83123694A90E0230C0E5082426
:10356C0002F508E5093400F5098A828B83A3A3A32D
:10357C00E0A2E52274041217557F0A02186874EC55
:10358C001217968C108D11EA2405F50CEB122BAC4E
:10359C00750F00EA2402F50AEB12367B850A82F5D8
:1035AC008312342612083C8A088B09EA45097003F9
:1035BC0002366D750E008071850C82850D83E0647A
:1035CC0001704F8E828F83A3A31219C08E828F83BA
:1035DC00A3A3A3A3E0F51275130078121219A9EE98
:1035EC002405F512EF3400F51378121219A91234D0
:1035FC002012085A7406121755E9F50F6014850C41
:10360C0082850D83E4F0123ED585108285118312DC
:10361C0036947C177D007900EEFAEFFB1210888E41
:10362C00828F83E4F0A3F0050E9002E6E0F8E50E3D
:10363C00C398501EE50E75F017A4F8A9F085088202
:10364C00850983A3A3124062123681EC4D600302FC
:10365C0035C485088285098374FFF0A3F0E50F70EB
:10366C00061234201204CAA90F023417F50AEF34DB
:10367C0000F50B22A3E0FCA3E0FD228E828F8312C7
:10368C003EDD850E82850F83E8F0A3E9F022C0822F
:10369C00C0839002E2E06A7003A3E06B70067AE2EA
:1036AC007B0280047A007B00022987C082C0837869
:1036BC00008C828D83E06A7003A3E06B7010E87558
:1036CC00F003A4F8A9F0EC28FAED39FB8015088C6E
:1036DC00828D83A3A3A3E06A7003A3E06B60DF7AFF
:1036EC00007B0002298774F61217961208068A824C
:1036FC008B83E582458370067A007B008007A3A349
:10370C00A3A3123426023D8674F2121796E9FE74B6
:10371C000E12178A12376F741012178A123BE78C2D
:10372C00828D83E064027036A3123EE3F50CA3E0B5
:10373C00F9A80C74026870037429697021750C0265
:10374C00750D00780C1219A978081219A9780A12AB
:10375C0019A9EEF912087E74061217558002790128
:10376C00023E0AE0F50AA3E0F50B2274E812179664
:10377C0074FB12173FE9851882851983F08A168B22
:10378C0017ECFEEDFF751000741D12178A123ED94E
:10379C00741D12178A1236948E828F83A3A3A3E012
:1037AC00A2E4502D741D12178A1234261208488A6E
:1037BC00828B83E58245837003023BB8790AEEFC69
:1037CC00EFFDAA16AB17121794E9F5106003023B34
:1037DC00BB741F12178A123BE7742112178A123717
:1037EC006F742312178AE0F50EA3E0F50F8E828F0B
:1037FC0083E064026003023B66A3123ED985088213
:10380C00850983A3858212858313EE2406122BA9C6
:10381C0088828983E0FAA3E0F9EA2400F514E439FC
:10382C00F5157814121A330100002801285B3807AB
:10383C00000228203903288D380029573A012982A3
:10384C003A0229233A0329573A0429013B663BE5FE
:10385C000E450F6003023B61850C82850D83123B84
:10386C00DCFAE9FB8A828B83E0850A82850B831262
:10387C003C121219A98A828B83A3E0FCA3E0023AC2
:10388C00EBE50E450F6003023B61850A82850B83D5
:10389C007401F0123BEF850882850983F07C007D72
:1038AC00008E828F83A3A3A3A3E02401FAA3E034A8
:1038BC0000FB120734EA4B60418A828B83E02402BE
:1038CC00F8850A82850B83E028F0EA2404F8EB34AF
:1038DC0000F988828983E0851282851383123C2447
:1038EC00123C121219A98A828B83123680E50824A5
:1038FC0003FAE5093400FB023AF0850A82850B8352
:10390C00E02404F07C047D007900AA12AB131210A1
:10391C0088023BBBE50E450F6003023B61123BEF97
:10392C00FEA3E0FF850A82850B837404F0EE850804
:10393C0082850983F0EF851282851383F07403125C
:10394C00178AAC82AD83EEFAEFFB1207348A0C8B2C
:10395C000DEA450D7003023A048A828B83A3A312ED
:10396C002832740112178A85820E85830F780E1205
:10397C0019A9740512178A1219C07CFF7DFF120752
:10398C003A74041217558B0FEA450F7033850C826D
:10399C00850D83123BC71219A9850C82850D83A353
:1039AC001219C07C027D007A047B901205667404A7
:1039BC00121755E9700A740112178A74FFF0A3F0FC
:1039CC008E828F83E064027039750C02750D00785D
:1039DC000C1219A98E828F83123680E5082404FA02
:1039EC00E5093400FB1210707402121755850A8217
:1039FC00850B83E024028009740112178AEEF0A370
:103A0C00EFF0740112178A123BD8F0740112178A66
:103A1C00A3123BD0023B5BE50E450F6003023B61FA
:103A2C00850C82850D83123681AA16AB171208728B
:103A3C00850A82850B837402F0EA850882850983E6
:103A4C00F0851282851383EB023B5EE50E450F6019
:103A5C0003023B61123BEFF8A3E0F9850A82850B68
:103A6C00837402F0E8850882850983F0E985128267
:103A7C00851383023B5E850C82850D8312342612DE
:103A8C00106AEAFC8C82A882C3950EE4950F405F05
:103A9C00E8650E7002E50F70047C008022851882A8
:103AAC00851983E0FAE50E2AFAE50F3400FBC3EA28
:103ABC0098EB94005003E08005E50ECCC39CFCEC25
:103ACC00850A82850B83F08C0A750B00780A121913
:103ADC00A9850C82850D83E0250EFCA3E0350FFD36
:103AEC00AA08AB091210707402121755023BBB7571
:103AFC001007023BBBE50E450F705A850C82850DF5
:103B0C0083123ED9850A82850B83740712283E12D4
:103B1C003BD012283EA3E0851282851383F0E82463
:103B2C0002FAE93400FB8A828B83123BD0123BFFF2
:103B3C00123BD8A3123C08123BE1F0E82405F8E94B
:103B4C003400F988828983123BE1A3123C24A3A39D
:103B5C00A3A3F0805A75100B8055741D12178A128E
:103B6C0034261208068A828B83E5824583603D12D7
:103B7C003ED9880C890DE8450D6031780E1219A9D3
:103B8C00780A1219A978081219A9740612178AE072
:103B9C00F9EEFCEFFDAA16AB17850C82850D83128E
:103BAC0017947406121755E9F510800375100EA9B9
:103BBC001074051217557F10021868E0F50E750F7A
:103BCC0000780E22E085088285098322123C2E2281
:103BDC00123EDDE822123C2EA3A322E0F508A3E05E
:103BEC00F50922850C82850D83E0F8A3E0F5838826
:103BFC0082E022A3A3F08A828B83A322F08882899D
:103C0C0083A3A3A3A322F08A828B83123C1B22E002
:103C1C00F50A750B00780A22F088828983A3123C7E
:103C2C002E22E0850882850983A3A32274EE121745
:103C3C009674FE12173F8A0A8B0BECFAEDFB741488
:103C4C0012178AE0F510A3E0F511741612178AE02A
:103C5C00FE741812178AE0F50EA3E0F50F85188292
:103C6C00851983AC82AD831207348A0C8B0DEA451F
:103C7C000D60498518828519831234261208068A2C
:103C8C00828B83E5824583602FA3A3123BE7E50873
:103C9C0045096024780E1219A978101219A9EEF9A9
:103CAC00AC0CAD0DAA0AAB0B8508828509831217E3
:103CBC009474041217558006790E80027901023033
:103CCC00C074F612179674FE12173F740C12178AF2
:103CDC00123BDC851882851983F0740112178AE96E
:103CEC00F0E4F508F50978081219A97508027808A6
:103CFC001219A9740412178A858208858309780819
:103D0C001219A912085A7406121755740212175573
:103D1C00806874F7121796EAFEEBFF89087C197D10
:103D2C0003120872EA5402600BA908EEFAEFFB12B8
:103D3C0007288002790102273A74F612179674FF4D
:103D4C006A700374FF6B70168C828D83123D8BE44A
:103D5C00F08C828D83A3A3A3123D8BA38018120831
:103D6C00428A088B09A808A909E849600D8882894C
:103D7C008374FF12283CA3A3E4F07F02021868743A
:103D8C00FFF0A3F08C828D83A3A32274F6121796F6
:103D9C001208428A828B83E58245836006A3A3E0E6
:103DAC00FA80027A007B0080D174F21217968A088E
:103DBC008B09ECFEEDFF740E12178AE0F50A12085F
:103DCC00428A0C8B0DA80CA90DE8497026EEFCEF6D
:103DDC00FD7AFF7BFF1208428A0C8B0DA80CA90DF3
:103DEC00E84970047911801688828983E508F0A36C
:103DFC00E509F088828983A3A3E50AF079007F06A0
:103E0C0002186874EE121796EAFEEBFF8C088D0907
:103E1C00890C741412178A123ED9741612178A124E
:103E2C003426750D00E8496003023ECD7402650C22
:103E3C006003023EC8741212178A123EE3FCA3E020
:103E4C00F9EC2400F50EE439F50FEAF4F8EBF4F98B
:103E5C00EC58F8E50F59F9E849705CE5082406F8C8
:103E6C00ED3400F9880A890B8882F583123EEE1234
:103E7C0008728A108B11E50E65107004E50F651140
:103E8C006042780E1219A9850A82850B83123EEEC8
:103E9C001208787402121755E9F50D7027780E1276
:103EAC0019A9850882850983A3A3123EEC120890F8
:103EBC007402121755800D750D808008750D0D80DC
:103ECC0003750D0BA90D0235858E828F83123EDD95
:103EDC0022E0F8A3E0F922123EDD88828983E022F9
:103EEC00A3A3E0FCA3E0FDEEFAEFFB2274E81217AB
:103EFC009674E712173F851882851983EAF0A3EBB5
:103F0C00F08C168D17890E75080075090074311226
:103F1C00178AE0F512A3E0F513743312178AE0F553
:103F2C0014A3E0F515743512178AE0F50FE5097541
:103F3C00F003A4F8A9F0851882851983124062E079
:103F4C00F47003A3E0F47003024045EE2402F50C78
:103F5C00EF124058E0700302404585160A85170B96
:103F6C00780A1219A9AC14AD15AA12AB131207FAE0
:103F7C0074021217558A0A8B0BEA450B7003024028
:103F8C0045E4F510F51178101219A9740612178A68
:103F9C0085821085831178101219A9740912178A59
:103FAC0085821085831178101219A98512828513C8
:103FBC0083A3A3A3A31219C07914AC0AAD0B8E82F0
:103FCC008F831234261208547408121755E970693D
:103FDC00850A82850B83A3A3A3A3123ED974021274
:103FEC00178A123694850C82850D83E0A2E0501856
:103FFC00A90E740212178AAC82AD838E828F831243
:10400C00342612074CE94208850C82850D83E0A208
:10401C00E15026E50FF50A780A1219ADA90E7403C2
:10402C0012178AAC82AD838E828F831234261207CC
:10403C00467401121755E942080509E509C39402B3
:10404C005003023F39A9087419023BBF3400F50D27
:10405C00850C82F58322E028FEA3E039FF8E828F47
:10406C00832274F2121796EAFEEBFF890B7401653A
:10407C000B600E7402650B706A7901120A52E970BA
:10408C0062EEFAEFFB12083C8A088B09EA450960DC
:10409C0047750A00800B7C177D007900121088058B
:1040AC000A9002E6E0F8E50AC3985021E50A75F09B
:1040BC0017A4F8A9F0850882850983A3A3E028FA40
:1040CC00A3E039FB8A828B8312298E70C985088202
:1040DC0085098374FFF0A3F07C197D03EEFAEFFBE6
:1040EC0012086C023E0A74F21217968A088B09ECBD
:1040FC00FEEDFF740E12178A12376F9009FEE0F472
:10410C00603D7A097B00121094EA4B60328A828BF4
:10411C008374B1F0A3E4123C01A3123BFFA3E508A6
:10412C00F0A3E50912414EEEF0A3EF12414EA3A30A
:10413C00E50AF0A3E50BF09009FEE0F91210A002DD
:10414C003E0AF08A828B83A3A3A3A3A32274F0124A
:10415C00179674FA12173F890BECFEEDFF750A00E7
:10416C008A088B0978081219ED0004108C439C41C5
:10417C00BA41D441EC410A42224245425D4271426D
:10418C009B42234334434B4366438C438C43B142A1
:10419C007401650B60030243878E828F83E0F8C342
:1041AC0094034003024387E8900AEA0243637402D3
:1041BC00650B60030243878E828F83124A89900AB3
:1041CC00EBE8F0A3E90243637401650B600302435F
:1041DC00871243B44003024387E8900765024363A8
:1041EC007401650B60030243878E828F83E0F8C3F2
:1041FC0094054003024387E8900766024363740109
:10420C00650B60030243871243B44003024387E803
:10421C009007670243637410650B60030243877554
:10422C00081075090078081219A97A687B07121012
:10423C007074021217550243AD7401650B600302D2
:10424C0043871243B44003024387E8900778024344
:10425C00637401650B60030243878E828F83E09049
:10426C000AEE0243637404650B60030243878E827B
:10427C008F83780C12160F908FD3780C1214415038
:10428C000302438790077A780C12161E0243ADE99D
:10429C0060030243871206D4E970051211FC80609A
:1042AC0090080D806E7407650B60030243877508D8
:1042BC000675090078081219A98E828F83A3AC8227
:1042CC00AD83740212178AAA82AB83121076740221
:1042DC001217557C007D00851882851983AA82AB44
:1042EC00838E828F83E0F91211A2E9F508C3940A38
:1042FC0040030243AA1206D4E9700CA90812120258
:10430C00795012135E806F740E2508F58274083490
:10431C0000F583740180407401650B705E1243B428
:10432C005059E8900779802F7401650B704D8E827F
:10433C008F83E0F8C3940A5042E8900AED80187419
:10434C0001650B70368E828F83E0F874F928C39464
:10435C000A5028E8900AEFF080477401650B701B37
:10436C0090080CE0F88E828F83E090080CF0E870D7
:10437C0030E06401702B1211F08026750A18802130
:10438C00C3EA9427EB940050157402650B700F8EE2
:10439C00828F83124E88120572E9F50A8003750A22
:1043AC0002A90A7406024A7E8E828F83E0F8C394B7
:1043BC00022274F012179674CC12173F8C0A8D0BD4
:1043CC00742012178AAC82AD8375838F7582347416
:1043DC0006121652742012178AAC82AD831211A2E7
:1043EC00E9F508744412178AE0FEE9C3940A400305
:1043FC0002452C75F006E9A4F509742612178AAC4F
:10440C0082AD837A0E74202509F9121358E97009CC
:10441C00743212178AE0FF80027F00900AEAE0648F
:10442C0002700474018001E4F50D780D1219ADEEE3
:10443C00FDEFFCA908AA0AAB0B1212267401121785
:10444C00557C147D007900740C12178AAA82AB83F8
:10445C00121088740C12178AAC82AD837A107424F3
:10446C002509F9121358E9703C7C1079FF740C1271
:10447C00178AAA82AB831210E8E97029741C1217F0
:10448C008AAC82AD837A0474252509F91213587409
:10449C000C12178AAC82AD83EFA2E0E433F9AA0ABE
:1044AC00AB0B1205FC851882851983AC82AD837A1F
:1044BC000C74702508F9121358E97053851882850D
:1044CC001983AA82AB831211D2750800E50875F026
:1044DC0003A4F8A9F0851882851983E58228F8E5EC
:1044EC0083124C92124E82601D88828983A3A3E0B2
:1044FC00F50E750F00780E1219A9AA0AAB0B12084B
:10450C006074021217550508E508C3940440BDEF0A
:10451C00A2E1500C900764E0F9AA0AAB0B120866F2
:10452C0074046E7027900AEAE06402701F7A00909F
:10453C000778E060010A900765E060047804800267
:10454C007800E84AF9AA0AAB0B1206BC790074345D
:10455C00024A7E74F0121796EAFEEBFF8C088D0966
:10456C00750A0AE9600C146009146037146079024A
:10457C00460E1211E4E9F50AC3940A400302460EF2
:10458C00E5084509607C750E06750F00780E12194A
:10459C00A9EEFCEFFDAA08AB0912107074021217F9
:1045AC0055805F750B00750E06750F00780E12198D
:1045BC00A9EEFCEFFDE50B75F00EA4F8A9F07486DE
:1045CC0028FA740739FB1210827402121755E9602D
:1045DC000C850B0AE50AC3940A50278016050BE5D7
:1045EC000BC3940A501C80BE1211EAE9F50AC3945D
:1045FC000A500FE50845096009AA08AB09A90A1277
:10460C0011DEA90A024A8174F412179689087509F9
:10461C001574FF6A700374FF6B70277E00AC087A08
:10462C00027B00EEF91211C0E960037509000EEE71
:10463C00C3940A40E8E50860537A147B12120A64AA
:10464C00804A120A468A0A8B0BAE0AAF0BEE4F60F9
:10465C00387C007D00EE2405FAEF3400FB8E828F4F
:10466C0083A3A3A3A3E0F91211A2E9C3940A500CEB
:10467C00AC087A027B001211C0750900E508600CC9
:10468C00EEFAEFFB1212148003750914A9098005C8
:10469C00740E1217557F0402186874F2121796ECF8
:1046AC00FEEDFF750815740E12178AE0F50AA3E0EB
:1046BC00F50B74FF6A700374FF6B7021750900AC05
:1046CC000AAD0BEEFAEFFBA9091211C6E9600375EE
:1046DC0008000509E509C3940A503F80E2120A4616
:1046EC008A828B83E5824583602D7C007D00E58288
:1046FC002405FAE5833400FBA3A3A3A3E0F912116C
:10470C00A2E9C3940A5013AC0AAD0BEEFAEFFB12FC
:10471C0011C67508008003750814A9080254C4C09A
:10472C0082C08390077EEAF0A3EBF0900764E0FC74
:10473C007D007A267B00120572900764E0F912075F
:10474C00DC02531F74F012179674EC12173FEAFE3A
:10475C00EBFFEE240CF50CEF3400F50DEE2405F513
:10476C000EEF3400F50FEE2409F50AEF3400F50BCB
:10477C00EE2403F508EF3400F5098E828F83A3A392
:10478C00E024FA7003024A2224FD700302493D140E
:10479C00700302482914601024FD7003024914149C
:1047AC007003024971024A7A1256BF6048E0F583E1
:1047BC008882124A89880E890FE8450F6037850C6C
:1047CC0082850D83E0F50C780C1219ADEE240BF5F7
:1047DC0082EF124C59F9850A82850B83124E880A96
:1047EC000A0AAB09850E82850F8312179474011285
:1047FC001755024A7A850A82850B831219C09007D5
:10480C007A12162D12060E7402121755E970030255
:10481C004A7A7901850A82850B830249ED8E828F53
:10482C0083A385820A85830BE060030248F7850E1B
:10483C0082850F83E0A2E040030248F7900818122B
:10484C0056C260030248F77C0E7D00790085188201
:10485C00851983AA82AB83121088850C82850D83FF
:10486C001252EAEA4B6010750C06750D00780C12AA
:10487C0019A9EA2410801B1252E4120A46EA4B7062
:10488C0003024A7A750C06750D00780C1219A9EA08
:10489C002405FCEB3400FD740212178AAA82AB8348
:1048AC001210707402121755850E82850F83E0A2C8
:1048BC00E25004D2F08002C2F0A2F0E433F8740C9F
:1048CC0012178AE048F0EEFCEFFD851882851983FB
:1048DC00AA82AB831211D8E970117A027B0090077F
:1048EC0064E0F91210C47900024A7C1256BF7003BE
:1048FC00024A7A124A8F7003024A7A850A82850B21
:10490C0083E0FC7901024A161256BF7003024A7A00
:10491C00124A86890BE8450B7003024A7A8E828F05
:10492C0083A3E0FC79021252E48882850B83024A4D
:10493C001D7C007D00EE2404FAEF3400FB85088218
:10494C00850983E0F91211A2E9F8C3940A40030225
:10495C004A7AEE240AFCEF124E5EE8A42425F912E2
:10496C001352024A7A1252E4900779E06007900AD7
:10497C00EDE0F9806F900AEAE07004790580651229
:10498C000A468A0C8B0DA80CA90DE82404F50CE939
:10499C003400F50D8E828F83A3A3A3A3A3A3A3E05E
:1049AC00A2E05046E8497003024A7A850C82850DD4
:1049BC0083E0FE6035850A82850B83E05410702AF3
:1049CC00740E12178AAC82AD83E82405FAE9340020
:1049DC00FBEEF91211A2E9701179038508828509A1
:1049EC00831252EA120608024A7AAC0EAD0F850CFD
:1049FC0082850D83E0F91252E41212201256BF6028
:104A0C006D124A8F60687C0079001252E48E828F9E
:104A1C008312179480581206D4E9705290080DE056
:104A2C00640170151211FC90080DE4F07C0AFDF97C
:104A3C007A0E7B08121088802D750A00850A08747E
:104A4C000E2508FE74083400FF8E828F83E064010B
:104A5C00700BA90A1212028E828F83E4F0050AE50C
:104A6C000AC3940A40D6795012135E1211F07901E0
:104A7C0074141217557F08021868124A9EE0F8A3A6
:104A8C00E0F922124A9EE0F8A3E0F9E8FEE9FFEE15
:104A9C004F22E0F5838882A3A32274F41217967434
:104AAC00F212173FEAFE8C0B75F006E9A42420F5F0
:104ABC0008851882851983AC82AD837A0EF912139E
:104ACC0058E970577C0679FF851882851983AA826C
:104ADC00AB831210E8E97043740C12178A124A89DE
:104AEC00E8F509E50B6005EE42098004EEF4520985
:104AFC00850982AA82E86A7001E9601B740C12179E
:104B0C008AEAF0A3E4F0851882851983AC82AD8320
:104B1C007A0EA90812135279018002790002469C80
:104B2C0074F212179674E612173F890A8A088B09D9
:104B3C00ECFEEDFF740C12178AAC82AD837A0E7505
:104B4C00F006E9A42420F9121358E96003024C4C36
:104B5C007C0679FF740C12178AAA82AB831210E8B8
:104B6C00E96003024C4C7470250AF50B851882859C
:104B7C001983AC82AD837A0CF9121358E9600302E5
:104B8C004C48851882851983AA82AB831211D2E511
:104B9C00084509702C7C0C7900851882851983AA2C
:104BAC0082AB831210E8E96003024C487C0C7D0058
:104BBC007900851882851983AA82AB8312108880AC
:104BCC005D851882851983AC82AD83AA08AB091266
:104BDC0011CC8A0C8B0DA80CA90DE8497028EE4F4E
:104BEC00605E851882851983AC82AD837A007B0068
:104BFC001211CCEAF8EBF9EA4B604588828983E51F
:104C0C0008F0A3E509F0124C53FAEE6A7001EF605C
:104C1C002BEEF04F700888828983E4F0A3F085189E
:104C2C0082851983AA82AB831211D28518828519C9
:104C3C0083AC82AD837A0CA90B12135279018002DA
:104C4C007900741A0254C1E82402F582E93400F5A3
:104C5C0083E02274F71217967F00EF75F003A4F827
:104C6C00A9F0EC28F8ED124C92E06A7003A3E06B0B
:104C7C007006E8FAE9FB800B0FEFC3940440DB7A73
:104C8C00007B0002503D39F9888289832274F71227
:104C9C0017967E00EE75F003A4F8A9F0EA28F8EB5D
:104CAC00124C92E0F4FCA3E0F4FD88828983ECF0D2
:104CBC00A3EDF0124C53F4F00EEEC3940440D50265
:104CCC00503D74F212179674F412173FEAFEEBFF84
:104CDC008C088D099008181256C27051EE4F700353
:104CEC00024E57EC45097003024E571211E4E9903D
:104CFC000AF0F0C3940A4035750B007C0679FFE589
:104D0C000B75F00EA4FAABF074802AFA74073BFB17
:104D1C001210E8E96005850B0A800C050BE50BC346
:104D2C00940A40D7750A0AE50A900AF0F0900AF046
:104D3C00E0C3940A4003024E5775F006E0A4FB90C2
:104D4C0008181256C2706FEEFCEFFD7A0E74202B11
:104D5C00F91213527C0C7D0079FF8518828519831A
:104D6C00AA82AB83121088851882851983AC82AD18
:104D7C00837A0C900AF0E02470F9121352750C0E21
:104D8C00750D00780C1219A9EEFCEFFD900AF0E0FD
:104D9C0075F00EA4F8A9F0748028FA740739FB1288
:104DAC0010707402121755900818E508F0A3E50965
:104DBC00F07900024E59E0C82406124E7B601A7A34
:104DCC001B74212BF9121352124E672406F582E83C
:104DDC003400F583E4F0A380D7124E67240A124EF8
:104DEC007B60107A1B74222BF9121352124E67241B
:104DFC000A80DA124E67240C124E7B60107A107403
:104E0C00232BF9121352124E67240C80C0124E70D1
:104E1C00124E7B602A7A1074242BF9121352124E04
:104E2C0070F582E8124C592410FCA3E0124E5E90EF
:104E3C000AF0E0A42425F9121352124E70808E90C1
:104E4C00080CE0600312122C12121A7901740C0275
:104E5C0054C13400FD7A0475F00622900818E0F86D
:104E6C00A3E0C822900818E0F8A3E0C8240822F5B3
:104E7C0082E83400F583124E88EC4D22E0FCA3E06E
:104E8C00FD2274F412179674F212173FEAFEEBFF30
:104E9C00E9C3940A5004EE4F70047902803E8518E1
:104EAC0082851983AC82AD837A0E75F006E9A42451
:104EBC0020F9121358E9F5087020750A06750B00D5
:104ECC00780A1219A9740212178AAC82AD83EEFA11
:104EDC00EFFB1210707402121755A90802469C744D
:104EEC00F4121796EAFEEBFF750800750A06750BAF
:104EFC0000780A1219A9EEFCEFFDE50875F00EA476
:104F0C00F8A9F0748028FA740739FB121082740225
:104F1C00121755E96004A908800B0508E508C3942D
:104F2C000A40C8790A0246A174F712179674F01257
:104F3C00173FEAFEEBFF750800851882851983ACD4
:104F4C0082AD837A1075F006E508A42423F91213B8
:104F5C0058E9702C7C1079FF851882851983AA82F8
:104F6C00AB831210E8E97018EEFCEFFD8518828512
:104F7C001983AA82AB831205DEE97004A908800BA1
:104F8C000508E508C3940A40B0790A741012175545
:104F9C0002503D74F7121796750800E50875F00E6F
:104FAC00A4F8A9F0748028FE740739FFEEFCEFFD1D
:104FBC007A0E75F006E508A42420F9121358E9605E
:104FCC002C7C067D0079FFEEFAEFFB1210887C0634
:104FDC007D0079FFEE2406FAEF3400FB121088EE08
:104FEC00240CF582EF3400F583E4F0A3F00508E51A
:104FFC0008C3940A40A590080CE0600312122C120E
:10500C00121A802D74F71217967E007F007C067999
:10501C00FFEF75F00EA4FAABF074802AFA74073B1C
:10502C00FB1210E8E970010E0FEFC3940A40DEEE9C
:10503C00F97F0102186874F71217967E00EEF912C8
:10504C0012020EEEC3940A5003E960F180E374F38C
:10505C0012179674CB12173FE9FE900AF0E06E70AF
:10506C001B7A017B00900764E0F91210CA7A027B6C
:10507C0000900764E0F91210CA12123875F006EEAF
:10508C00A4FF74202FF508742712178AAC82AD8305
:10509C007A0EA908121358E960030251947C067920
:1050AC00FF742712178AAA82AB831210E8E96003F7
:1050BC000251947C0E7D0079FF742712178AAA8204
:1050CC00AB831210887C1B7D0079FF740C12178A3D
:1050DC00AA82AB831210887C0C7D0079FF85188224
:1050EC00851983AA82AB83121088742712178AAC95
:1050FC0082AD837A0EA908121352E9F508740C12CA
:10510C00178AAC82AD837A1B74212FF9121352E9E2
:10511C00F509740C12178AAC82AD837A1B74222F9A
:10512C00F9121352E9F50A740C12178AAC82AD838A
:10513C007A1074232FF9121352E9F50B740C121711
:10514C008AAC82AD837A1074242FF9121352E9F5CC
:10515C000C740C12178AAC82AD837A0474252FF967
:10516C00121352E9FF851882851983AC82AD837ABC
:10517C000C74702EF9121352E9F8E509450A450B27
:10518C00450C4F4842088003750800A90874351275
:10519C0017557F0502186874F7121796E990076483
:1051AC00F01211F002503D74F4121796EAFEEBFF68
:1051BC005480700302524B900764E0F91210AC8AD1
:1051CC00088B09EA4509607078018A828B83E02498
:1051DC0050603D14600624E1604F8052A3A3A3A34A
:1051EC00E0704E8A828B83A3A3A3A3A3A3A312195B
:1051FC00C08A828B83A3A3A3A3A3124E888A828B1B
:10520C0083A3A31252EA1211AE7402121755802115
:10521C00A3A3A3A3E0641E701879008A828B83A3D6
:10522C00A31252EA1211A880081211BAE9F8E86028
:10523C0007AA08AB0912109AEEFAEF64808065EEAB
:10524C00540260237C007D007A007B001211D8E9A7
:10525C0060117A017B00900764E0F91210C4EE64CF
:10526C0002803F7A028046EEA2E0503F1252BE12FC
:10527C0052EA121232E9602F1256BF601F124A8690
:10528C0088088909E8450960137C0079011252BE2F
:10529C001252EA850882850983121794121238EE8D
:1052AC006401FAEFFB80087A0180027A007B00022D
:1052BC0046A1900818E0F8A3124A9EA3227F02028E
:1052CC001868C082C083900764E0F98A828B83A33C
:1052DC001252EA120866803B850882850983E0FA3F
:1052EC00A3E0FB22C082C08374FF12173F1211F699
:1052FC00E9C39402851882851983400474028002E4
:10530C00740AF0AC82AD837A0179051206EC740153
:10531C00121755D083D08202013574F2121796748D
:10532C00E812173FEAFEEBFF890A8C088D097C18FE
:10533C007D007900851882851983AA82AB831210AF
:10534C0088851882851983EEF0A3EFF0900766E04C
:10535C00C0E0740212178AD0E0F0900767E0C0E05A
:10536C00740312178AD0E0F0900AEFE0C0E07417D3
:10537C0012178AD0E0F0741512178AE054FEF8A3C5
:10538C00E0F9900AEEE0A2E0E433FAE84AF874158A
:10539C0012178A1254D0A2E15004D2F08002C2F04B
:1053AC00E854FDFAA2F0E43333F8EA48F874151225
:1053BC00178A1254D0A2E35004D2F08002C2F0E853
:1053CC0054F7FAA2F0E433F50C750D007403780C65
:1053DC0012172C1254C912178A1254D0A2E450047A
:1053EC00D2F08002C2F0E854EFFAA2F0E433F50CEC
:1053FC007404780C12172C1254C912178A1254D038
:10540C00A2E55004D2F08002C2F0E854DFFAA2F018
:10541C00E433F50C7405780C12172C1254C91217BE
:10542C008A1254D0A2E25004D2F08002C2F0E854A6
:10543C00FBFAA2F0E433F50C7402780C12172C1260
:10544C0054C912178AE8F0A3E9F0900767E0601DD1
:10545C00750C10780C1219A97C687D07740612174C
:10546C008AAA82AB831210707402121755900778B7
:10547C00E06011E50A6009741512178AE04402F025
:10548C00780180027800741412178AE048F09007B3
:10549C0065E06004780480027800741412178AE0C6
:1054AC0048F0AC08AD09851882851983AA82AB83B4
:1054BC0012060274181217557F06021868EA450C7A
:1054CC00F8741522E8F0A3E9F0900AEEE02274F3E8
:1054DC0012179674E512173FEAFEEBFF8C098D0A42
:1054EC00742812178AE0F50C75F006E9A4F8740814
:1054FC00650A700474228002742128F50B7C1B7DD4
:10550C00007900851882851983AA82AB83121088D2
:10551C00851882851983AC82AD837A1BA90B121373
:10552C0058E97032741A12178AE024F9C3940A509D
:10553C0025E50CF50B780B1219AD740112178AAC1A
:10554C0082AD83E509A2E0E433F9EEFAEFFB120633
:10555C00147401121755741B02519B74F712179691
:10556C001208DE750800E50875F00EA4F8A9F074B1
:10557C008028FE740739FF7C0679FFEEFAEFFB12E8
:10558C0010E8E97009EEFAEFFB79001208E405085F
:10559C00E508C3940A40CF02503D74F61217967476
:1055AC00FD12173FEAFEEBFF90081A1256C2703933
:1055BC0075081C75090878081219A975080275096F
:1055CC000078081219A97508F675098F7808121950
:1055DC00A97CFF7DFF7A017B0012072E740612173F
:1055EC005590081AEAF0A3EBF090081A1256C27004
:1055FC00030256A9E4F508F50978081219A97404F0
:10560C0012178A85820885830978081219A97404EF
:10561C0012178A85820885830978081219A99008BF
:10562C001C1219C0790290081A1256B71208547439
:10563C0008121755E97034851882851983E0FA74BD
:10564C000112178AE0F9EA2400F508E439F509EAB1
:10565C004509601778081219A990081A1252C1A3AB
:10566C001256B71211AE7402121755E4F508F5096B
:10567C0078081219A990081C1219C07CFF7DFF90A4
:10568C00081A1252EA12073A740412175590081AA3
:10569C00EAF0A3EBF090081A1256C270047901805C
:1056AC0002790074031217550252C9124E88EEFA91
:1056BC00EFFB2290077EE0F8A3E0F9E84922C082D4
:1056CC00C0839008181256C260109008181252EA43
:1056DC0012109A900818E4F0A3F0900AF0740AF0F3
:1056EC0002531FC082C0839061907404F0A374486D
:1056FC00F0A3E4F09061807440F09061BC7407F00A
:10570C009061877469F09061B67416F07900120B91
:10571C004E7902120B549026F0E493F46006E49355
:10572C00F9120B2A7905120E54025AEAC082C08370
:10573C00E9540FF9906185E0696012E5C654804424
:10574C0049F5C6E59E547F644970F8E9F053C6806C
:10575C00E59E547F70FA025AEA74F7121796E5A880
:10576C00FE53A87E120B36C2BA539AFEC289759BA1
:10577C0000C2C2120B3C75A91175B905120B42D2AD
:10578C00BA439A0174805E42A8026081C082C083D1
:10579C00906181E4F0A3025AE775E90075910075F8
:1057AC00BF00020135C082C083906181E4F0A37414
:1057BC00C0F0A3E4025AE9C082C08374F812173F08
:1057CC009003A4126A1A70030258A29003A4E05426
:1057DC004060237908851882851983AA82AB8312CD
:1057EC000C4A851882851983AA82AB831209029010
:1057FC0003A4E054BFF0E054806010790C7A657B10
:10580C0005120C4A9003A4E0547FF0E0A2E0500F84
:10581C007900120B4E1209089003A4E054FEF0E03C
:10582C005402600F7901120B4E1209089003A4E088
:10583C0054FDF0E05404600F7900120B5412090E61
:10584C009003A4E054FBF0E05408600F7901120BB4
:10585C005412090E9003A4E054F7F0E05410600FBA
:10586C007902120B5412090E9003A4E054EFF0E0ED
:10587C005420600F7903120B5412090E9003A4E00C
:10588C0054DFF0A3E05401600D120B601209149068
:10589C0003A5E054FEF07408121755025AEAC082B0
:1058AC00C083E9600514602A804F90619A7433F0CC
:1058BC00A37455F09061A0743AF090053FE0640138
:1058CC007009C2919003A67467802D9003A6746131
:1058DC00802690619A743FF0A3745AF09061A07482
:1058EC007FF090053FE064017009D2919003A6749B
:1058FC007180059003A6746AF0025AEAC082C083D4
:10590C00E9600B14600D14601714600C8020902655
:10591C00F480159026F5801090053FE06401700529
:10592C009026F680039026F7E493906186F0025A55
:10593C00EA74EE12179674F412173F8518828519C3
:10594C0083AC82AD8375838F7582BF74041216523B
:10595C009026F493F46003025A67907808E0C3949D
:10596C00025003025A47740412178AAC82AD837535
:10597C00838F7582267408121652FC7EFF7FFF8E71
:10598C000C7D008C8285820E800F74086D606D74A6
:10599C00096D6068740A6D60638D08750900740286
:1059AC00780812172C125A7112160FA909E50AC998
:1059BC00F8881074187808121550E5104508FAE9A3
:1059CC00FBE50EC333F8E433F9740412178AE5824D
:1059DC0028F582E58339125F71C3E89AE99B400888
:1059EC00E8C39AF8E99B8006EAC398F8EB99F9C3E7
:1059FC00E89EE99F5006E8FEE9FF8D0C0DEDC3947F
:105A0C0013408774FF6E700374FF6F6024850C085D
:105A1C007402780812172C125A7112160F851882FC
:105A2C00851983E582250EF582E583126410E5085D
:105A3C00F00CECC3940450030259877508017509E6
:105A4C000078081219A9740212178AAC82AD837AF5
:105A5C00BD7B091212747402121755740C1217556F
:105A6C007F0A02186874482508F58274783509F5A0
:105A7C0083780822C082C083906186E0F89026F774
:105A8C00E4936870099026F6E493906186F0906137
:105A9C00AE7468F0A3746AF090624574FBF0A304D2
:105AAC00F053F4FD43FE0290053F7401F09061A0A9
:105ABC00E0643A7004790080027901120B4E025AAC
:105ACC00EAC082C0839004F1E06401700A9004F68D
:105ADC00E06004790C800279008003F0A3F0D0839D
:105AEC00D082020135C082C08375E1F19004F4E0EC
:105AFC00604D146009146051146049147050120BFD
:105B0C00729004EAE0F97AEB7B04120DD6908FB711
:105B1C0012162D120E0C908FCB12162D120DE29028
:105B2C0004F5E0F9120DEE7901120E48125C0D2409
:105B3C001612640D748AF0A3740BF07900809F1216
