:020000040000FA
:104000007BD8FFFF0100007C42424242FFFFFFFFDE
:10401000FFFFFFFFFFFFFFFFFFFFFFFFFFFFFFFFB0
:10402000000102030405060708090A0BFFFFFFFF52
:104030000244DD0259BCFFFFFFFFFFFFFFFFFFFF50
:10404000FFFFFFFFFFFFFFFFFFFFFFFFFFFFFFFF80
:10405000FFFFFFFFFFFFFFFFFFFFFF025DEDFFFF21
:10406000FFFFFFFFFFFFFFFFFFFFFFFFFFFFFFFF60
:10407000FFFFFF025DC7FFFFFFFFFFFFFFFFFFFF27
:10408000FFFFFF025A32FFFFFFFFFFFFFFFFFFFFAF
:10409000FFFFFFFFFFFFFFFFFFFFFFFFFFFFFFFF30
:1040A000FFFFFFFFFFFFFFFFFFFFFFFFFFFFFFFF20
:1040B000FFFFFF02586B0101FF0000B40000280061
:1040C0002800283075A000A000A000A00000080073
:1040D00008E001F0001000100010001000100010A7
:1040E0000050005000500010001000D007000000E9
:1040F0000000000F000100050030750700100001EE
:104100000081FF00000000FF60607E606660FF02CB
:10411000020208025000A0000000E80302789101AA
:1041200000003D9102409101000090120246910171
:104130000000AC050240910100009112024891017B
:104140000000C2050240910100009212024A910152
:104150000000C4050240910100009312024C910836
:104160000000C5050240910100009412024E910129
:1041700000009512FF0100FF20027891010000313C
:1041800091024091010000F91202509100000000DC
:104190000002449103000012065A665A665A665A93
:1041A000665A665A665A665A665A665A665A665A0F
:1041B000665A66FA681269F468FF00400000004021
:1041C0000000004000000040000002020202020263
:1041D000020202010D0000001001027891010000AE
:1041E00034910240910100004B13026491010000E0
:1041F000B70E0240910100004C13026291010000D1
:1042000033900240910100004D13026091010000C3
:10421000FD8F0240910100004E13025E91010000EB
:10422000878F0240910100004F13025C9101000052
:10423000AB8F0240910100005013025A910100001F
:10424000998F024091010000511302589101000022
:10425000758F024091010000521302549101000039
:104260000B90024091010000531302529101000093
:1042700054131C0278910100003A91024091010010
:1042800000F31310968E020000F410024491030014
:1042900000F61002429101000019900240910100C5
:1042A00000F31310A68E020000F5100244910300E3
:1042B00000FC100242910100004C90FFFFFF000142
:1042C000307503020106000000000000000000003D
:1042D00000000000000000000000000000000000DE
:1042E0000000FFFF0600800CE8030201060302E065
:1042F000FF1A6D206D266D0A4368617261637465F3
:10430000726973746963203100024368617261638A
:10431000746572697374696320320008436861725E
:104320006163746572697374696320330010436854
:104330006172616374657269737469632034000229
:10434000436861726163746572697374696320356F
:10435000001A43686172616374657269737469639A
:10436000203600027891010000379102409101004F
:10437000007814026C91030000F4110242910100D4
:104380000079140240910100008A14026E9101002C
:1043900000F5110242910100008B140240910100CE
:1043A000009C14027091020000F61102429101007B
:1043B000009D14024091010000AE140272910000B1
:1043C00000F711024491030000F81102429101002C
:1043D00000AF14024091010000C014027491040067
:1043E00000FE11024291010000C11402409101003F
:1043F00000D21402769103000003120244910300DC
:10440000001712024291010000D3143031323334CC
:10441000353637383941424344454600286E756C7D
:104420006C20706F696E74657229003031323334DC
:104430003536373839616263646566003F3F3F0057
:104440000000807F0000803FF9021550B743BA5149
:104450000000204100E7DB2E0000A040E5C754F833
:104460004404F5C779012200000080FB12445CB9C6
:1044700000030244C7E479437808B800028004F7D7
:1044800009D8FCE4794B7802B800028004F709D817
:10449000FCE490028078B879108002F0A3D8FCD9AF
:1044A000FA7A377B129040B678A779048015E493A6
:1044B000A3AD82AE838A828B83F0A3AA82AB838D65
:1044C000828E83D8E9D9E775827F7583927404124E
:1044D00044EF75826775834474001244EF75D00011
:1044E00075815F754180754202759F0002446CC002
:1044F0009FF59FE473D09F22D083D082C09FE49326
:10450000C0E0740193C0E0740293F59F22E06670EE
:104510001008A3E066700A08A3E066700408A3E030
:104520006622C021C3E096F52108A3E09642210847
:10453000A3E096422108A3E0964221A2D265D0339F
:10454000E5217001D3D02122C3E7960809E7960838
:1045500009E7960809E79622C3E09608A3E09608C3
:10456000A3E09608A3E09622C021C3E096F52108B7
:10457000A3E096422108A3E096422108A3E09645D5
:10458000217001D3D02122080808E630E711124E2D
:104590004112459F080808C64480C61818182218FA
:1045A0001818E9799EC608CAC608CBC608CCC6C387
:1045B00070207996CACBCC7019798ECBCC701379D8
:1045C00086CC700EF9802ACA33CACB33CBCC33CC1D
:1045D000331930E7F2CCCBCA3350147004EA30E020
:1045E0000DE4CA3ACACB3BCBCC3CCC500209C3E960
:1045F00013C6CC182313C6CB18C6CA18C6F9221284
:10460000463F20F01430E72B74FFFCFBFA747F80E8
:1046100022E4FCFBFA7480801AB48008BC00F2BB70
:1046200000EF800F50EBF9E4C39AFAE49BFBE49CA3
:10463000FCE499C6CC18C6CB18C6CA18C6F922E441
:10464000C9C608CAC608CBC6D3330308CCC6339242
:10465000F0C3947F402E94184019C9B90704CACBFF
:10466000CC225025C309CA33CACB33CBCC33CC338D
:10467000D9F422F4600DC9CCC313CB13CBCA13CA2F
:10468000D9F6CC22E4FCFBFA2214FCFBFA22E62643
:1046900018461846184622E727194719471947228E
:1046A000181818E60846087009E626087005E6336B
:1046B000F4220822191919E70947097009E727099F
:1046C0007005E733F4220922E6084608C3134608BA
:1046D000336002E633F422E7094709C3134709337D
:1046E0006002E733F4221246C860251246D76020E4
:1046F00012468E7003024697080808E76670101885
:1047000019E766700A1819E76670041819E7662237
:10471000F4221246C8601C1246D7601712468E70EB
:10472000071246977001D322C0D01246977006D068
:10473000D0B322C32233D0D0501430E0F6C3E79672
:104740000809E7960809E7960809E796B32220E0EA
:10475000D5E6970809E6970809E6970809E697B3AA
:10476000221246C8601B1246D7601612468E70078A
:10477000124697600CB322C0D01246977005D0D075
:1047800022C32233D0D0501330E0EBC3E7960809A0
:10479000E7960809E7960809E7962220E0E4E697FD
:1047A0000809E6970809E6970809E69722001246E5
:1047B000C8604F1246D76012E7548066F61246A0D2
:1047C0007011124697703B090909F4F618F618F6AD
:1047D00018F6221246B4701512468E08080860EAD0
:1047E000E6447FF618768018E4F618F62212468E14
:1047F00060161246977012E4F608F608F608E654BA
:1048000080F609090918181822EAC0E0EBC0E0ECAC
:10481000C0E0EDC0E0E687F0A4FBACF008E687F06E
:10482000A42CFCE435F0FA1809E687F0A42C4B60C0
:10483000027401CA35F0FCE433FB09E687F0D2F7D5
:10484000A42CCB35F0FC1908E687F0A42BCC35F06E
:10485000FBE433FD0819E687F0D2E7A42C4ACB35F8
:10486000F0CD3400FC09E687F0D2E7A42DCC35F07A
:10487000FDE433FA0918E687F0D2F7A42CCD35F021
:10488000CA3400FC08E687F0D2E7D2F7A42ACC3578
:10489000F07A7E20E70B0ACB33CBCD33CDCC33CCB3
:1048A00033CB3350147004ED30E00ED2F1E4CD3D43
:1048B000CDCC3CCC3B5005DA05C2F1EB547FC6337E
:1048C00008E63392F0FBE73309E733C39A502D2B08
:1048D00070190C0D4C4D70151806E608C333700D99
:1048E00020F10AA2F013F6E418800B4024E4F6301D
:1048F000F002768018F618F618F68024D33B145090
:104900001074FFA2F013F6187680E418F618F680FB
:104910000FA2F013F618E63303F618ECF618EDF6CE
:10492000D0E0FDD0E0FCD0E0FBD0E0FA221246D788
:1049300060461246C8603DE9687008F618F618F639
:1049400018F622748067F7124961090909748067B3
:10495000F7221246C8601D1246D770051919198032
:104960001A1246A0701F1246B4C37003E6673319CB
:10497000191940071818182208080874FFF618F6C5
:1049800018F618F6221246B4601712469770219254
:10499000F012468E7019501720F014080808090903
:1049A00009E7F61819E7F61819E7F61819E7F622D5
:1049B00012468E60E6E869701F0808E62480F60853
:1049C000E436F618547FB47F0CE654806007F6E4B2
:1049D00018F618F622181822E9C6CC08C6CD08C663
:1049E000CE08C6CFC0E0E8C0E0EAC0E0EBC0E00916
:1049F000E9F809E7FA09E7FBE6F918E6F8C3EC98E5
:104A0000ED99EE9AEBC2E7F5F0EFC2E795F0500EA4
:104A1000600CEBCFFBEACEFAE9CDF9E8CCF8EAA2DC
:104A2000E7D2E7FAEB33FB13F5F0EEA2E7D2E7FEAD
:104A3000EF33FFC5F013A2E730E601B313C5F0C3AF
:104A4000C0E0C0F07F00C39BFB605E9418600F4025
:104A50001D14601AD0E023F9D0E0F8024B338AF03D
:104A6000E9486003D2F0E4AFF0FAF9F8803BEB30AC
:104A7000E40D89F0EA6003D2F0E4AFF0F9CAF8EB94
:104A800030E30D88F0EF6002D2F0AFF0E4CAC9F86D
:104A9000EB54076014FBC3EA13FAE913F9E813F8BF
:104AA000EF135002D2E0FFDBEDD0E0C0E030E73999
:104AB000C3E49FFFF5F0EC98FC42F0ED99FD42F065
:104AC000EE9AFE42F0D0E0F9D0E0F8E5F0607AE945
:104AD00023F9EE20E742D8028067C3EF33FFEC33BF
:104AE000FCED33FDEE33FE80EAEC28FCED39FDEE03
:104AF0003AFED0E023F9D0E0F84002801BC3EE1369
:104B0000FEED13FDEC13FCEF135002D2E0FF08B8EA
:104B100000067F7F74FF802EEF3350178CF020F05B
:104B20000260100CBC000C0DBD00080EBE00040895
:104B3000E860DFE933E813FFEE2313FE4F4D4C80AE
:104B400008E95480FFE4FEFDFCEE33EF33F470041B
:104B5000FCFD7E80D0E0FBD0E0FAD0E0F8D0E0CFE2
:104B6000C618CEC618CDC618CCC6F9221246C870D3
:104B700004181818221246D7700D74FFF61819F68B
:104B80001819F61819F622E7548066F612468E7048
:104B90000F12469770F014F608F608F608F680D162
:104BA000124697700CF608F608768008E6447F8077
:104BB000EC1246B7700C1246A360BFE65480F6E4D0
:104BC00080BB1246A3700519191980A5E869700CFD
:104BD000763F18768018F618F6E8F922E6CDC0E0A0
:104BE00018ECC0E0E633CD33CDD313F6E719FCE77C
:104BF000191933CC33C3947F400ECD9D502408E661
:104C00005480F6E418F6800FF4043D14501408E6BE
:104C1000447FF6187680E418F618F6D0E0FCD0E071
:104C2000FD22CCD313CCFD18E4C6CBC0E018E4C6FB
:104C3000CAC0E00808ED08C633E613F618E433C628
:104C400075F003C3CA97CA09CB97CB199C40047D62
:104C500008802EBD0003024D1516B6FF0506060896
:104C60001618C3CA33CACB33CB33CA27CA09CB37CA
:104C7000CB193CC37D08803E187D0820E75CC63315
:104C8000C6CA33CACB33CB33DDF1D5F0EB30E77B8B
:104C9000CA97CA09CB974ACB199C406F4B7025E63F
:104CA00020E0218066187D08C3CA97CA09CB97CB3C
:104CB000199CD3C633C6CA33CACB33CB3350C9DDF4
:104CC000E7D5F0E1D3E4C636C608C636C608C63610
:104CD000C608C636C61818188031C3CA97CA09CB89
:104CE00097CB199CB34097C633C6CA33CACB33CBD4
:104CF00033DD34D5F02EC6A2E0C640C8CA27CA09A3
:104D0000CB37194A70BECB3CB480B90808E63308EB
:104D1000E633601F181818D0E0FAD0E0FBD0E0FCB2
:104D2000D0E0FD22187D08CA27CA09CB37CB193C31
:104D3000D3808013F618E4B67F11F618B6FF0EF68E
:104D400018C60470D20808768080CAF618F618F6DD
:104D500080C5080808EAC0E0EBC0E086F0E7A4FAE6
:104D6000180986F0E7A42AFA180986F0E7A42AFAB7
:104D7000180986F0E7A42AFA1986F0E7A4FBE5F003
:104D80002AFA190886F0E7A42BFBE5F03AFA19088D
:104D900086F0E7A42BFBE5F03AFA18180986F0E74D
:104DA000A4C5F02BFBE43AFA1908E7C5F0C6A4261F
:104DB000F6E5F03BFBE43AFA1886F0E7A4F6E5F0F6
:104DC0000826F6E43B08F6E43A08F6D0E0FBD0E02B
:104DD000FA22E4CFC0E0E4CEC0E0E4CDC0E0E4CC11
:104DE000C0E075F020E626F608E633F608E633F66E
:104DF00008E633F6181818EC33FCED33FDEE33FEFD
:104E0000EF33FFC3EC9709ED9709EE9709EF971978
:104E10001919400FFFEC97FC09ED97FD09EE97FE7D
:104E2000191906D5F0BFECF709EDF709EEF709EF10
:104E3000F7191919D0E0FCD0E0FDD0E0FED0E0FF7A
:104E400022181818E4C396F608E496F608E496F6D5
:104E500008E496F6226016080808C6C313C618C6EA
:104E600013C618C613C618C613C6D5E0EA227009C1
:104E7000080808226016181818C6C333C608C633B7
:104E8000C608C633C608C633C6D5E0EA22E627F60A
:104E90000809E637F60809E637F60809E637F62284
:104EA000E026F608A3E036F608A3E036F608A3E00D
:104EB00036F622E026F008A3E036F008A3E036F04C
:104EC00008A3E036F022C3E697F60809E697F6084D
:104ED00009E697F60809E697F622C3E0C696F608B3
:104EE000A3E0C696F608A3E0C696F608A3E0C69629
:104EF000F622C3E096F008A3E096F008A3E096F04F
:104F000008A3E096F022E056F608A3E056F608A3C0
:104F1000E056F608A3E056F622E056F008A3E05665
:104F2000F008A3E056F008A3E056F022E647F608A2
:104F300009E647F60809E647F60809E647F622E0DB
:104F4000F608A3E0F608A3E0F608A3E0F622E6F0F0
:104F500008A3E6F008A3E6F008A3E6F022E0FAA32F
:104F6000E0FBA3E0FCA3E0FD22EAF0A3EBF0A3EC5E
:104F7000F0A3EDF022E0FCA3E0FDA3E0FEA3E0FF40
:104F800022E0F8A3E0F9A3E0FAA3E0FB22E8F0A313
:104F9000E9F0A3EAF0A3EBF022CAC0E0E6F0A30830
:104FA000DAFAD0E0FA22CAC0E0E0A3C582CCC5821A
:104FB000C583CDC583F0A3C582CCC582C583CDC5CD
:104FC00083DAE6D0E0CA22C3E498F8E499F91250F3
:104FD000088026C3E49AFAE49BFBE920E7E9125033
:104FE00008E498F8E499F922C3E498F8E499F912EE
:104FF0005008E498F8E499F9C3E49AFAE49BFB2298
:10500000EB20E7CFE920E7E0B90010BB0008E88A11
:10501000F084F8AAF022E4FBC8FA22EB70227B109D
:10502000C833C8C933C9335007C39AC3DBF28006FB
:105030009A50012ADBEAC833F4C8C933F4C9FA220A
:1050400075F008E4C833C8C933C933C99AC99B503D
:1050500004C92AC93BD5F0ECFBC833F4C8E4C9FA4B
:1050600022600D08C6A2E713C618C613C6D5E0F322
:1050700022600C08C6C313C618C613C6D5E0F422B6
:10508000700422600D18C6C333C608C633C6D5E007
:10509000F41822254110AF08F541400C1542800854
:1050A000F54140021542D2AF2200C0D0254110AFD9
:1050B00008F541500C05428008F54150020542D2E6
:1050C000AFD0D0222541F58210AF08F541400C1534
:1050D000428008F54140021542D2AF854283222525
:1050E00041F582E43542F583222541F8E43542F961
:1050F000222541FAE43542FB222541FCE43542FDFC
:1051000022E4732541C582C0E0E54234FFC583C077
:10511000E0E541C3958224F810AF0885834285827B
:10512000418008858342858241D2AFCEF0A3E5203D
:10513000F0A37821E608F0A3DEFAEFF0A3E58124DE
:10514000FAF8E608F0A3E608F0A3E608F0A30808DA
:10515000E608F0A3E608F0A315811581D0E0FED0A3
:10516000E0F8158115811581E8C0E0EEC0E0222548
:1051700041C582C0E0E54234FFC583C0E0E541C3DC
:10518000958224F910AF0885834285824180088585
:105190008342858241D2AFCEF0A3E520F0A37821EF
:1051A000E608F0A3DEFAEFF0A3E58124FBF8E608B9
:1051B000F0A3E608F0A30808E608F0A3E608F0A3C9
:1051C00015811581D0E0FED0E0F815811581E8C089
:1051D000E0EEC0E022854283854182E0A3FEE0A3A9
:1051E000F5207821E0A3F608DFFAE0A3FFE0A3C0F2
:1051F000E0E0A3C0E0E0A3C0E0E0A3C0E0E0A3C023
:10520000E010AF0885824185834280088582418510
:105210008342D2AFD083D0820244F5854283854158
:1052200082E0A3FEE0A3F5207821E0A3F608DFFAF0
:10523000E0A3FFE0A3C0E0E0A3C0E0E0A3C0E0E0A3
:10524000A3C0E010AF088582418583428008858233
:1052500041858342D2AFD083D08222C0D02541C5C0
:1052600082C0E0E54234FFC583C0E0E541C39582DA
:1052700024F310AF088583428582418008858342EC
:10528000858241D2AFC8F0A3E9F0A3EAF0A3EBF026
:10529000A37921E709F0A3D8FAECF0A3EDF0A3EE8F
:1052A000F0A3EFF0A3D0E0F0A3D0E0F0A3D0E0F0C3
:1052B000A3E520F0A3E5F0F0A32285428385418297
:1052C000E0C0E0A3E0F9A3E0FAA3E0FBA37821E0CB
:1052D000F608A3DFFAE0FCA3E0FDA3E0FEA3E0FFF5
:1052E000A3E0C0E0A3E0C0E0A3E0F5D0A3E0F52098
:1052F000A3E0A3F5F010AF088583428582418008C2
:10530000858342858241D2AFD082D083D0E0F8D06D
:10531000E03274048006740280027401C0E0F40478
:105320001250C4D0E0124F99227404800474028099
:1053300000CCC0E0EDC0E0E541C39CCCAD425001E3
:105340001D10AF068C418D4280068C418D42D2AF3C
:10535000124FA6D0E0FDD0E0FC22D083D082E9C07D
:10536000E0E493A3C386F0C5F095F0F908E493A3B5
:1053700086F0C5F095F0700BE493A3C3994005E95E
:10538000048002A3E475F002A42582F582E5F035DD
:1053900083F583D0E0F9E493A3C0E0E493C0E02276
:1053A000D083D082ECC0E0EDC0E0E493A3FCE493B2
:1053B000A3FDED4C600D1253ECEC24FFFCED34FF2B
:1053C000FD80EFE493A3FCE493A3FDED4C600D128C
:1053D000542BEC24FFFCED34FFFD80EFD0E0FDD03A
:1053E000E0FCE493A3C0E0E493C0E022C0E0C3E4A7
:1053F0009396087401939618400FE493667008081A
:10540000740193661870007019A3A3C3E4939608FF
:105410007401939618A3A3400DD0E0D0E0D0E00231
:1054200053DCA3A3A3A3A3A3D0E022C0E0C0F088D1
:10543000F0E4936670080874019366187000A8F091
:10544000A3A3700BD0F0D0E0D0E0D0E00253DCA3F7
:10545000A3D0F0D0E022FFFF74F512516FEAFEEB0B
:10546000FFEE2434F8EF3400F988218922EE243548
:10547000125584F8EE2437125584F523EC8523F079
:10548000A4FCAAF08523F0EDA42AFDE82CF8E43D65
:10549000F97A257B00125008EA852182852283F063
:1054A00074075AF87401B800028004C333D8FCFBB7
:1054B000EA131313541FF8EE28F8EF3400F9E82428
:1054C0005DF582E91255875B6003EA801CEE2436A5
:1054D000125584F5F0EA84A8F0EE28F8EF3400F9CC
:1054E000E82438F582E9125587F97F0402521B74CB
:1054F000F512516FEAFEEBFFEE2434125584C0E042
:10550000EE2435F582EF3400F583D0E0F08E828F03
:1055100083A3A3A3A3A3E0FAA3E0FB8E828F83A3BC
:10552000A3A3A3A3A3A3E0FCA3E0FDECC39AF523EC
:10553000ED9BF524EE247FF521EF3400F522852143
:1055400082F583E06401702BEE2480F582EF340055
:10555000F58312532D12558D74021250A9E9601370
:105560007CD57D07EEFAEFFB1265828521828522CC
:1055700083E4F0AC23AD24EEFAEFFB125458125D35
:10558000B30254EAF582EF3400F583E022C082C012
:1055900083854182854283E0F8A3E0F9C3EA9CEB6E
:1055A0009D5010C3EC98ED99401BC3EA98EB9950BD
:1055B00014800EC3EA98EB994007C3EC98ED99402C
:1055C00004790180027900D083D08222EAC39CFA58
:1055D000EB9DFB2274ED12516F90069BE064086016
:1055E00005E06407702C9061C8E060269006C9E071
:1055F000F874FF68601CE875F003A4C8AAF02AF9E3
:1056000074CB28FE740639FF8E828F83A3A3A3E098
:1056100070057900025774EE2468F529EF3400F51F
:105620002A906060E0852982852A83F075233E7583
:105630002408752100752200E5D914F527E5D95411
:1056400003F528601CEE2482F525EF3400F526745E
:105650000365286058E5276013EE246712558470AF
:105660000B793DEEFAEFFB1265A680A6900839E0B3
:1056700064016026852582852683E06004780480A5
:10568000027800852721E521C398FA95E0FB126492
:10569000328A218B22EA452270061267EC025612EA
:1056A000852582852683E070048A238B24780080F8
:1056B00016E5D9C0E0882BE523252BF582E52434B7
:1056C00000F583D0E0F008E8C3952740E485258203
:1056D000852683E0602874FC2527F527782312535C
:1056E00016AC27A928EEFAEFFB126654740212508A
:1056F000A9E9700AAA21AB22126C1E02566174033A
:10570000652860588527257526007825125316AC24
:1057100023AD24AA21AB2212661874021250A98567
:105720002982852A83E0F8748068700575257F805A
:10573000028825E525F523782312531AE528F52359
:10574000782312531AA927AC21AD229006C9E0FA9A
:105750007B001262D074021250A9801390069BE065
:105760006408600BAC23AD24EEFAEFFB1266EA127C
:1057700067F879017F0C02521B74F312516F74FCAD
:10578000125093EAFEEBFF8921A2AFE433F522C267
:10579000AFEE2463F523EF3400F5248010AA23AB89
:1057A000241265D0126C1E9007DCE004F085238281
:1057B000852483E0F8A3E0F9E849602FE82402FAA1
:1057C000E93400FBEA2402F525EB3400F5267825C0
:1057D0001253168A828B83E0FCA3E0F9EEFAEFFB0A
:1057E0001265C474021250A9E960B29007DCE0604F
:1057F000579007DDE0F89007DCE0C398500C740286
:10580000652170449007DEE0603E8E828F83A3A303
:10581000A3A3E08541828542831258587402125036
:10582000DFE81258589007DBE028F074021250DFCE
:10583000AC82AD83854182854283AA82AB837901A4
:105840001262DC9007DCE4F0E522A2E092AF74047F
:105850001250A97F0602521BF0A3E4F09007DCE08F
:10586000F822FFFF8543878544C622C0E074EF120B
:10587000525BA2AFE433FEC2AF759B00906182E041
:10588000A2E05012E591A2E0500C7591FE74016502
:105890004370031255D4E0A2E55051E591A2E550C2
:1058A0004B7591DF90069BE064076005E06408702B
:1058B0002374016543703579019006C9E0FA75F0EB
:1058C00003A4CAA8F028FB74CB2AFA74063BFB1287
:1058D00057798018E0640D70139006BDE004F06401
:1058E000287002E4F07A00E0F91267FE906182E02D
:1058F000A2E64003025992E591A2E64003025992C2
:105900007591BF90069BE06405700812672C1267C2
:1059100038800312673275430012679EE990069C37
:10592000F079001267921264F27A017B0090069A75
:10593000E0F9126A26907803E06442705590083DC1
:10594000E014F0704DC2AF12594A00784CD0E0F626
:1059500018D0E0F6E59F540770057522FF800375A7
:10596000227FC4C0E0784BE6F52108E65522F522F7
:10597000740B7821125071D0E02521F8906270E00C
:10598000A2E740F8E8C333906272F0906270E0D210
:10599000E0F0906181E0A2E35009E5E9A2E3500361
:1059A00075E9F7A3E0A2E75009E591A2E750037576
:1059B000917FEEA2E092AF7F040252BAC0E0C0D065
:1059C000C082C083906183E0A2E05009E5BFA2E0FD
:1059D000500375BFFEE0A2E15009E5BFA2E150030C
:1059E00075BFFDE0A2E25009E5BFA2E2500375BF1A
:1059F000FBE0A2E35009E5BFA2E3500375BFF7E067
:105A0000A2E45009E5BFA2E4500375BFEFE0A2E5B0
:105A10005009E5BFA2E5500375BFDFE0A2E65009DB
:105A2000E5BFA2E6500375BFBFD083D082D0D0D0EF
:105A3000E032C0E074F212525BE5A7A2E4500FE539
:105A4000A1A2E4500953A7EF75A1EF125A86E5A76A
:105A5000A2E5500CE5A1A2E5500653A7DF75A1DF32
:105A6000E5A7A2E15009E5A1A2E1500375A1FDE57A
:105A7000A7A2E2500CE5A1A2E2500653A7FB75A134
:105A8000FB7F010252BA74F812516F754301900600
:105A90009BE0640670077A007B00126714A2AFE4F3
:105AA00033FED2AF9006A1E0640170187A207B002B
:105AB00090069AE0F9126AB67A207B0090069AE086
:105AC000F9126A2C906182E0D2E6F090083AE06028
:105AD0002185C64480169006A0E064017008E5C6E2
:105AE00054F84405F5C653BEFC125864740165436E
:105AF00060E4EEA2E092AF7F0102521B8E458F461A
:105B000085824A858349854182854283E0CEA3E030
:105B1000CF854A82854983EBC9EAC8EDCBECCA75CB
:105B2000F010C3E833C8E933C9EA33CAEB33CBC357
:105B3000EA9EF548EB9FF547B35004AB47AA48EC03
:105B400033CCED33CDD5F0DAAE45AF462274F11249
:105B5000516F8A218B228C238D2490911D782112E4
:105B60004F06740F1250DF7825124F3F90911D7829
:105B700025124F06782179251245489090F1501052
:105B800078217925124EC678211245684014800E7E
:105B900078257921124EC67825124568500479017E
:105BA000800279007F0802521B74ED12516F8A2126
:105BB0008B228C238D2490911D7821124F06741313
:105BC0001250DF7825124F3F90911D7825124F0615
:105BD00078257921124548401178217925124EC641
:105BE000AA21AB22AC23AD248022752900752A009E
:105BF000752B00752C0178297925124EC6782979E4
:105C000021124E8DAA29AB2AAC2BAD2C7F0C02524F
:105C10001B90911D7821124F3F8A828B837821122D
:105C20004F197F0402521B74F512516F8C828D83C1
:105C30007821124F3F8A828B837821124EF2125CB8
:105C40007BC3E098F0A3E099125C6D401E9090F544
:105C50007821124F3F8A828B837821124EB38E8235
:105C60008F83E02420F0A3E0344EF080A4F08E82F5
:105C70008F83C3E09420A3E0944E22EA2404F8EB3F
:105C80003400F9E8FEE9FF8C828D83A3A3A3A3E08F
:105C9000F8A3E0F98E828F832274F512516FE9FE2A
:105CA0009007F0E0FAA3E0FBEEC333F8E433F974B5
:105CB000ED28F582748F39F583E02AF521A3E03BC6
:105CC000F52278211253169090A5124F5D125AFCBE
:105CD00074021250A98A218B228C238D247410788F
:105CE00021124E55AA21AB227F0402521B74F112DD
:105CF000516F8A258B268C278D28740F1250DFE078
:105D0000FAA3E0FB74111250DFE0F521A3E0F522C5
:105D10007821125316EA2401F521EB3400F522E430
:105D2000F523F52478257921124D5290908D782114
:105D3000124F3F78257921124D52AA25AB26AC2768
:105D4000AD28125AFC74021250A98B22EA45226037
:105D5000047A0180027A00EC2AFCED3400FD741311
:105D60001250DFE0F8A3E0F9E8FEE9FFECF8EDF906
:105D70007A717B0212500888218922E4F523F524E8
:105D80008E828F837821124F4EECF8EDF97A717B79
:105D9000021250088A218B22740578211250808EBD
:105DA000828F83A3A3A3A3E521F0A3E522F07F08BC
:105DB00002521BC082C083E9906000F0D083D08281
:105DC00022C2AF02000022C0E074F212525BA2AF06
:105DD000E433FED2AFC2C0E5D1A2E4500653D1EF06
:105DE000126BC4EEA2E092AF7F010252BAC0E0C0D3
:105DF000D0E8C0E0E9C0E0E5A8D2AFC2C7A2E7A200
:105E0000E792AFD0E0F9D0E0F8D0D0D0E032124441
:105E1000F8DD99011244F8F299011244F8FB990156
:105E20001244F8BE9A011244F8A49B011244F8C02F
:105E30009B011244F8829C011244F8539F011244C2
:105E4000F864A1011244F833A3011244F891A301AC
:105E50001244F88EA4011244F82BA5011244F8CA8A
:105E6000A6011244F88EA7011244F8DBA7011244E0
:105E7000F8D9A9011244F841AA011244F822B2014A
:105E80001244F870B2011244F858F8031244F86F43
:105E9000F8031244F8A0F8031244F8DBF8031244A4
:105EA000F805F9031244F82FF9031244F846F903F0
:105EB0001244F85DF9031244F874F9031244F89D92
:105EC000F9031244F8B0F9031244F8C6F903124476
:105ED000F8D9F9031244F800FA031244F8FFF20269
:105EE0001244F803F4021244F83BF4021244F85E40
:105EF000F4021244F869F4021244F88CF4021244D9
:105F0000F89BF5021244F870F6021244F8EBF60220
:105F10001244F873F7021244F8AEF7021244F8E59F
:105F2000F7021244F873F8021244F84CF9021244D2
:105F3000F8ACF9021244F8B7F9021244F836FA0242
:105F40001244F839FA021244F83CFA021244F8CB2F
:105F5000FA021244F8CEFA021244F8FEFA0212448F
:105F6000F828FB021244F816FC021244F8C8FC029E
:105F70001244F8E2D1031244F80AD2031244F8386A
:105F8000D2031244F86FD2031244F8CDD203124464
:105F9000F818D3031244F863D3031244F8A3D303CD
:105FA0001244F8E9D3031244F817D4031244F8D486
:105FB000D4031244F8DED4031244F8EBD4031244A1
:105FC000F81ED5031244F8EAD5031244F8F6D503B7
:105FD0001244F80ED6031244F818D6031244F81CE3
:105FE0007F001244F8347F001244F84C7F001244C2
:105FF000F8A1D0021244F87DD1021244F8E1D20295
:106000001244F838D3021244F8B9D3021244F8A962
:10601000D4021244F8F6D4021244F87CD502124499
:10602000F8AED5021244F8C2D7021244F804D802DE
:106030001244F822D8021244F8A5D8021244F87982
:10604000D9021244F841DA021244F890AA03124429
:10605000F863AB031244F80CAC031244F85FAC03D2
:106060001244F80FAD031244F89BAD031244F887B5
:10607000AE031244F8B6AE031244F8C9AF0312449B
:10608000F811B0031244F8E6B0031244F822B10349
:106090001244F83EB1031244F8BFE3031244F8D5AA
:1060A000E3031244F8FBE3031244F817E503124438
:1060B000F821E5031244F856E6031244F84EE703CC
:1060C0001244F8F0BD031244F820BF031244F85301
:1060D000BF031244F89DBF031244F864C103124485
:1060E000F80080021244F86A80021244F8C9810262
:1060F0001244F8D981021244F80682021244F8626E
:1061000082021244F86983021244F8338402124472
:10611000F89385021244F8D685021244F87B860271
:106120001244F8C886021244F8EE86021244F8FCC3
:1061300088021244F80189021244F8068B021244C4
:10614000F8538B021244F8C68B021244F8F98B0202
:106150001244F89B8C021244F8448D021244F87CDD
:106160008D021244F87F8D021244F8C78D0212444A
:10617000F8078E021244F85E8E021244F8CAF00349
:106180001244F8E2F0031244F82AF1031244F840F2
:10619000F1031244F887F1031244F89BF20312440E
:1061A000F828F3031244F873F3031244F800800153
:1061B0001244F83B80011244F88080011244F840F8
:1061C00081011244F8C681011244F82B8201124465
:1061D000F85782011244F89082011244F8CE8401EB
:1061E0001244F8B286011244F89888011244F8DB90
:1061F00089011244F8298C011244F83B8D011244A4
:10620000F8868E011244F8968F011244F8B38F017C
:106210001244F8EE8F011244F81090011244F87302
:1062200090011244F83495011244F8C995011244C2
:10623000F81B96011244F83996011244F89396011E
:106240001244F87C97011244F8F298011244F8764F
:1062500099011244F830C8031244F83AC8031244B2
:10626000F87DC8031244F898C8031244F828C903FB
:106270001244F850C9031244F88DC9031244F8C4FB
:10628000C9031244F8EDC9031244F862CA03124468
:10629000F877CA031244F88CCA031244F8CDCA0333
:1062A0001244F807CB031244F833CB031244F86BC3
:1062B000CB031244F8CACB031244F849CC0312446E
:1062C000F892CC031244F8BCCC031244F8E7CC0398
:1062D0001244F876FE031244F89DB7021244F8CB3C
:1062E000B7021244F819B9021244F8F9B90212447B
:1062F000F818BA021244F895BA021244F8D8BA0251
:106300001244F82EBC021244F8EFBC021244F87694
:10631000BF021244F817C0021244F80DC102124421
:10632000F80AC2021244F864C3021244F8EFC3022E
:106330001244F89EFE011244F807FF011244F85B74
:10634000FF011244F882FF011244F8B3FF01124426
:10635000F83EDB031244F8ABDB031244F8F2DB0334
:106360001244F80ADD031244F806DE031244F8E989
:10637000DE031244F84393031244F8859303124456
:10638000F85794031244F83095031244F82A960300
:106390001244F80C97031244F87597031244F82B33
:1063A00098031244F89F98031244F80B990312447F
:1063B000F83499031244F8AE99031244F8479A034B
:1063C0001244F8AC9A031244F8C19A031244F80735
:1063D0009B031244F8209B031244F8859B0312444C
:1063E000F8889B031244F8F7ED031244F81FEE03FC
:1063F0001244F85DEE031244F81BEF031244F882D6
:10640000EF031244F89EEF031244F8C6EF03124460
:10641000F8F6EF031244F805F0031244F882F00393
:106420001244F8A3DD011244F841DF011244F85C84
:10643000E1011244F898E1011244F8C5E101124467
:10644000F8AAE2011244F8F1E2011244F835E3013E
:106450001244F862E3011244F8ADE3011244F8ED8E
:10646000E3011244F81BE4011244F86DE401124404
:10647000F8FDE4011244F89BE7011244F8B1E90188
:106480001244F8EFE9011244F880EB011244F8C518
:10649000EB011244F83CEC011244F886EC01124482
:1064A000F8ACEC011244F894ED011244F8CA8903E7
:1064B0001244F8498A031244F80B90031244F81A64
:1064C00091031244F88292031244F8199303124480
:1064D000F824CA011244F86DCA011244F89ACA019C
:1064E0001244F8CDCA011244F8DACA011244F8E69F
:1064F000CA011244F8F8CA011244F8DFCB01124471
:10650000F83DCC011244F872CC011244F8B5CD012B
:106510001244F80CCE011244F879CE011244F83737
:10652000CF011244F8F0CF011244F85DD0011244BB
:10653000F80FD1011244F81FD1011244F8A6D1017D
:106540001244F865D2011244F892D2011244F80BB9
:10655000D3011244F868D3011244F8B2D3011244B3
:10656000F848D4011244F813D5011244F8C8D501F3
:106570001244F83DD6011244F89ED6011244F808A0
:10658000D7011244F841D7011244F8E3D70112446D
:10659000F8F3D8011244F833D9011244F850D90164
:1065A0001244F86FD9011244F8B6D9011244F8DB4D
:1065B000D9011244F808DA011244F882DA011244CF
:1065C000F8C3DA011244F8E7DB011244F897DC0162
:1065D0001244F8EEDC011244F858DD011244F8715F
:1065E000DD011244F80080031244F8538003124482
:1065F000F85F80031244F83481031244F85B81038E
:106600001244F89681031244F80282031244F83EC1
:1066100082031244F87782031244F88F82031244F3
:10662000F8E482031244F8FD82031244F84683031F
:106630001244F85983031244F87383031244F8890F
:1066400083031244F8BC84031244F8038603124403
:10665000F80587031244F8FF87031244F8FC7F0013
:106660001244F866AA021244F896AA021244F85E8E
:10667000AE021244F8B5AF021244F87EB0021244E2
:10668000F8FEB1021244F8CFB2021244F80CB30281
:106690001244F82FB3021244F86DB3021244F87694
:1066A000B3021244F8C0B3021244F8CAB30212444F
:1066B000F874B4021244F84DB5021244F8A1B502C0
:1066C0001244F803B6021244F856B6021244F88592
:1066D000B6021244F8C2B6021244F8886D001244A1
:1066E000F8EF70001244F8F570001244F877760065
:1066F0001244F8F07A001244F8C67E001244F858AA
:10670000E7031244F8CEE7031244F8E4E703124427
:10671000F825E8031244F85FE8031244F8D8E803C8
:106720001244F813E9031244F886E9031244F8C44A
:10673000E9031244F8CDE9031244F8D9E9031244FD
:10674000F8F5E9031244F820EA031244F836EA03A4
:106750001244F87AEA031244F8AAEA031244F8BD94
:10676000EA031244F8D7EA031244F800EB03124498
:10677000F843EB031244F882EB031244F8C0EB0336
:106780001244F825EC031244F83AEC031244F8459D
:10679000EC031244F852EC031244F869EC0312447F
:1067A000F877EC031244F882EC031244F88EEC0301
:1067B0001244F8A1EC031244F8ACEC031244F8C9FB
:1067C000EC031244F8D9EC031244F8EFEC03124442
:1067D000F80BED031244F816ED031244F82BED0309
:1067E0001244F83FED031244F8A0ED031244F8A65A
:1067F000ED031244F8ACED031244F8B2ED03124479
:10680000F8C4ED031244F8E39C021244F86F9D02B1
:106810001244F8CE9E021244F8EFA0021244F8DBB4
:10682000A1021244F810A2021244F832A202124449
:10683000F8E1A2021244F8D9A4021244F802A50217
:106840001244F894A5021244F8C6A5021244F8D3E3
:10685000A5021244F82AA6021244F850A6021244D5
:10686000F8BDA8021244F8C0A9021244F818AA02FE
:106870001244F883DC021244F88DDC021244F8AFB3
:10688000DC021244F8BBDC021244F854DE0212446B
:10689000F883DE021244F89FDF021244F8F8DF02A8
:1068A0001244F86CE1021244F8D9E1021244F814DF
:1068B000E2021244F853E2021244F80CE5021244D8
:1068C000F826E5021244F8B2E5021244F8C0E502E7
:1068D0001244F819E6021244F827E6021244F89A24
:1068E000E6021244F8FEE6021244F848E7021244B7
:1068F000F8D1E7021244F8F3E7021244F819EA0269
:106900001244F82EED021244F846EE021244F8F951
:10691000EE021244F8DBEF021244F812FA031244BA
:10692000F837FA031244F8A9FA031244F844A3030F
:106930001244F84DA3031244F856A3031244F82D51
:10694000A4031244F8DEA5031244F814A60312446B
:10695000F84EA6031244F884A6031244F8BEA60318
:106960001244F8F2A6031244F81EA7031244F86773
:10697000A7031244F8A1A7031244F8EAA70312449C
:10698000F842A8031244F877A8031244F8D2A803E7
:106990001244F80CA9031244F85DA9031244F893B9
:1069A000A9031244F8CDA9031244F8F0A903124434
:1069B000F8E993041244F81594041244F87094040E
:1069C0001244F87A94041244F88A94041244F87D2C
:1069D000B8031244F887B8031244F8C5B803124448
:1069E000F80EB9031244F848B9031244F89EB903EB
:1069F0001244F8BFB9031244F8C8B9031244F8139B
:106A0000BA031244F83CBA031244F846BA031244DB
:106A1000F8B2BA031244F848BB031244F892BB031D
:106A20001244F8C2BB031244F84BBC031244F88B67
:106A3000BC031244F8C3BC031244F8D5BC0312448F
:106A4000F8F4BC031244F8FDBC031244F8C6BD03BD
:106A50001244F854FD031244F84BFE031244F86547
:106A6000FE031244F869F6031244F89FF603124439
:106A7000F8D5F6031244F81EF8031244F88FFF030A
:106A80001244F8A5FF031244F8AFFF031244F8695B
:106A900096041244F8ABDF031244F8C0DF0312443B
:106AA000F873E0031244F8B3E0031244F8CCE003B7
:106AB0001244F800E1031244F84DE1031244F88156
:106AC000E1031244F8C3E1031244F8559704124459
:106AD000F86797041244F875C4021244F8D0C4024F
:106AE0001244F8E1C5021244F8F8C5021244F82431
:106AF000C6021244F88AC6021244F8A4D60312440D
:106B0000F8D8D7031244F876D8031244F8D2DA033F
:106B10001244F8EEDA031244F89DF3031244F8C26B
:106B2000F3031244F8ECF3031244F8C89604124439
:106B3000F89494041244F8A594041244F8E57F00F4
:106B40001244F8F07F001244F8BC97041244F8761F
:106B5000FF021244F886FF021244F895FF02124425
:106B6000F8D9FF021244F87B91041244F800920411
:106B70001244F86692041244F80FCD031244F8CB85
:106B8000CD031244F887CE031244F80ECF0312440B
:106B9000F8F3CF031244F8A3D0031244F8DED00375
:106BA0001244F836D1031244F87CD1031244F88A17
:106BB000D1031244F89DD1031244F8B9D103124411
:106BC000F8C2D1031244F8D9D1031244F83795041E
:106BD0001244F8B695041244F8C895041244F8B368
:106BE000B1031244F8F0B1031244F80CB20312449A
:106BF000F8D4B2031244F8B9B3031244F84CB50305
:106C00001244F8B8B5031244F89EB6031244F825AE
:106C1000B7031244F839B8031244F8B7FB0312441F
:106C2000F807FC031244F890FC031244F8F6FC0346
:106C30001244F839FD021244F863FD021244F829A7
:106C4000FE021244F804FF021244F8AC9B03124403
:106C5000F8699C031244F8A49C031244F8CC9C03EA
:106C60001244F82E9D031244F87A9D031244F8DA78
:106C70009D031244F86D9E031244F86C9F03124466
:106C8000F8FBA0031244F87EA1031244F8E5A10327
:106C90001244F8FCA1031244F806A3031244F84B73
:106CA0008F021244F8AD92021244F8359402124455
:106CB000F88C94021244F8AB94021244F82995021D
:106CC0001244F8C896021244F8AC97021244F86BCA
:106CD0009B021244F83B9C021244F83D9304124478
:106CE000F8D193041244F8ACB2011244F850B30145
:106CF0001244F8BEB3011244F8F6B3011244F8E9A5
:106D0000B4011244F81DB7011244F8BDB701124492
:106D1000F8EEC5011244F83EC8011244F886C801D5
:106D20001244F88BC9011244F88EC9011244F817B5
:106D3000C3031244F85CC3031244F879C30312443A
:106D4000F8C6C4031244F872C5031244F870C603AF
:106D50001244F8F2C7031244F83BEE011244F84B18
:106D6000F3011244F80F97041244F8909704124468
:106D7000F8D395041244F8FD95041244F8E2FF029A
:106D8000FFFFFFFFFFFFFFFF74EE12510390780338
:106D9000E06442705590083DE014F0704DC2AF12AF
:106DA0006DA200784CD0E0F618D0E0F6E59F5407CD
:106DB00070057522FF800375227FC4C0E0784BE622
:106DC000F52108E65522F522740B7821125071D076
:106DD000E02521F8906270E0A2E740F8E8C3339024
:106DE0006272F0906270E0D2E0F09006C9E0F87450
:106DF000FF6870030270B4E81275E42401F582EFB5
:106E00003401127651EA4B600FEE2400F582EF3424
:106E100001F583E0F9126A26EE2405F8EF3400F953
:106E2000E8FAE9FB8E828F83A3A3A3A3A3A3A312F3
:106E30007AC68A828B83127610906054E09006A204
:106E4000F0906055E09006A3F0906056E09006A4A4
:106E5000F0906057E09006A5F0906058E09006A68C
:106E6000F0906059E09006A7F090605AE09006A874
:106E7000F090605BE09006A9F090605CE0FC90060A
:106E8000AAF090605DE0FD9006ABF090605EE0F5EA
:106E9000259006ACF090605FE0F5269006ADF0908E
:106EA00006A8E0F5278C212521F8E43400F9852592
:106EB00021E82521F8E93400F98D21E82521F8E9B8
:106EC0003400F9852621E82521F521E93400F52251
:106ED000EE24F6F582EF34001270E38C828582296D
:106EE000EE24F8F582EF1270CFEE24FA1270C3EEA2
:106EF00024FE127629496034906000E0C333F52304
:106F0000E433F524E82523F582E935241270E39073
:106F10006000E0C333F521E433F522E82521F8E9E8
:106F20003522F9E8244AF582E91270CFEE240BF8F5
:106F3000EF3400F988238924EE241DF8EF3400F99A
:106F400088218922EE241C18EF3400F9EE240FF575
:106F500029EF3400F52AE527700EED700BE525705A
:106F600007E5267003026FFF8A828B83127653EE49
:106F7000240D127A892AFAA3E03BFB85238285241B
:106F800083EAF0A3EB1275FF1270B97011EE2420A2
:106F900012764C852182852283EAF0A3EBF09006DD
:106FA000A3E06025888289837401F0127A867019C3
:106FB000EE2473127A897011EE247F127A89700997
:106FC000EE2420127AC312760A8E828F8312762CD8
:106FD0002406FCE93400FD906062E07003027065F5
:106FE000E82402FAE93400FB12673E8E828F83E0C8
:106FF000F8A3E0C82412F582E8127A50E48070EC1D
:107000006022852982852A831270B97027EE242098
:10701000F582EF34001270DB852182852283ECF04B
:10702000A3ED800FEE24FC1270C38521828522839C
:10703000E4F0A3F08A828B831276597003A3E06B8D
:107040006003026F9E852982852A83E060087405AB
:107050006A7001EB600479088002793EEEFAEFFB7A
:107060001265A6804F8C828D83E4F0A31275F7F031
:10707000A3F09061C8E060061255D4E970F48E82E6
:107080008F83A3A3A3E0602C9061C8E0700690609A
:10709000607480F0EEFAEFFB1266F0E964016014B0
:1070A0007902EEFAEFFB1257791266E4E9640160A7
:1070B000031266667F0A0251D5E4F088828983E074
:1070C000640122127A8D2401F0A3E03400F0221230
:1070D0007A902529F0A3E03400F022F583E0FCA3A8
:1070E000E0FD22F583E02521F0A3E03522F02253D4
:1070F000BFEF0244F574E81251039006C9E0F8129C
:1071000075E4241DF529EF3400F52AEE2420F52737
:10711000EF3400F528EE241CF525EF3400F5269019
:1071200061D0E07009EE246312762949600B85294D
:1071300082852A83E4F0A3802D127A867029EE24BA
:1071400073127A897021EE247F127A89701985254D
:1071500082852683E06401700E852782852883124C
:107160007642E8F0A3E9F0EE2407F521EF3400F5CC
:10717000228E828F83A3A3A3A3A3127642E028F8D2
:10718000A3E039F9E8240108E9127607EEFAEFFBEB
:107190001266F6E9640160089007E0E06401701C83
:1071A000852982852A83E4F0A3F08E828F83A3A3AE
:1071B000A3A3A3E02401F8A3E0127607EE24731240
:1071C0007E4D600302735DEE2474127A7912532DA2
:1071D0008521828522831270DD8E828F83A3A3A3F3
:1071E000A3A312765312558D74021250A9E97003AD
:1071F00002735D8523828524831276672476FCEFF3
:107200003400FDEEFAEFFB1265B2127AC0852782D8
:10721000852883127610852582852683E41275FFE2
:10722000F0A3F0EE240F127A6B1275F71276242475
:107230000D127A8928F8A3E039F9EE240B127A4D61
:107240001276108E828F83A3A3A3A3A31270DD8571
:1072500023828524831276531255CC8A218B22EE09
:10726000242E12764CE4F523F5248A258B26F52767
:10727000F52878217925124D52EE24771276377849
:10728000217925124E8D8521258522268523278566
:107290002428EE247DF52FEF3400F530852F82F57C
:1072A000831276242479F52BEF3400F52C852B827C
:1072B0001270DBEE2430127A42EE2432F521EF34E4
:1072C00000F522EA6C7002EB6D701C85218285222C
:1072D00083E0687003A3E069700D127A4A12765950
:1072E0007003A3E06B6031882D892E7404782D1211
:1072F0005071782D125316127A4A12532DEDC31382
:10730000FDEC13FC8E828F83A3A3A3A3E0FA7B0082
:1073100012631274041250A9EE2476127A89C0E026
:10732000EE242B127A4DD0E0F0852B82852C83122F
:107330007624242E127A4D127610127AC08523827A
:10734000852483127610852F82853083127667FA22
:10735000EFFB1265B8EE2473127A54800BEE242EE4
:10736000127637E4F527F528852982852A83E0F50A
:107370002DA3E0F52EEE2412F521EF3400F522EED8
:10738000241FF52BEF3400F52CEE2418127A7978AF
:107390002512450D7011852B82852C83E0F8E52D93
:1073A000687002E52E60237821125316EE24101225
:1073B0007A4D12532D782D125316AA25AB26AC27E1
:1073C000AD28125CED74061250A9852382852483B2
:1073D0007825124F4E852982852A83E0852B828568
:1073E0002C83F0AC21AD22127616125C27906062DD
:1073F000E0600A7C587D90127616125C278E828F90
:1074000083127AC688828983A3A3E82408FCE9341E
:1074100000FD7406124FA6852982852A83127653B1
:107420008E828F83E02402F8A3E03400F9E8FCE9BF
:10743000FD8A298B2AE4F52BF52C9090E978291206
:107440004EA078297925124D528C828D837829128D
:107450004EB390911D7829124F3F8C828D837829ED
:10746000124F199007DAE064016003027564790134
:107470001267928E828F83E0F523A3E0F524E52343
:10748000240EF582E524127A5074FF127E70E523F3
:107490002412F8E5243400F9E8FCE9FD8521828511
:1074A00022837825124F3F852521852622E52175E7
:1074B000F0E2A4C521A8F075F004A428F875F0E264
:1074C000E522A428F5228C828D831270E5EE241625
:1074D000127A89F521A3E0F5227404782112507103
:1074E000E5212401F8E5223400F98C828D83E0281F
:1074F000F0A3E039F0906062E08C828D837003022B
:1075000075BCE02410F0A3E03401F0EE240F127AF1
:1075100089601FEE242B127A89F875F071A4C8AA2D
:10752000F075F002A42AF98C828D83E028F0A3E0A4
:1075300039F0E5232414F582E524127A507410F012
:107540008E828F83E0F8A3E0C82416F582E8127AD1
:10755000507434F0A37465F0EEFAEFFB1254EF7937
:1075600000027E429090897825124568500302748B
:1075700073EA4B60030274737825125312EEFAEF2C
:10758000FB1265BE74041250A9E964016003027421
:1075900073EE240F127A8960128E828F83A3A3A3C5
:1075A000A3A3E064057002A3E06004790880027977
:1075B0003EEEFAEFFB1265A6790180A5E02410F8F3
:1075C000A3E034FFF97A717B0212500888218922E6
:1075D000EE242E127AC3C3E52198E52299500302C6
:1075E000750B80C775F003A4C8AAF02AF974CB28DC
:1075F000FE740639FFEE22F085218285228322F077
:10760000852982852A83223400F985218285228377
:10761000E8F0A3E9F0228E828F83E02402FAA3E04F
:107620003400FB22127ACAEE22127E6412763022D5
:10763000E0F8A3E0F9E822127E64E0F525A3E0F586
:107640002622127ACA852982852A8322F582EF347E
:1076500000F583E0FAA3E0FB22E0FAA3E0FB852338
:1076600082852483E06A22127ACA85218285228358
:10767000E8F0A3E9F0EE2274E8125103EAFEEBFF12
:107680008C828D83E0F525A3858221858322A3A8A2
:1076900082A983EE2405F52FEF3400F530EE246740
:1076A000FAEF3400FBEE2462FCEF3400FDE52560C8
:1076B0003B14700302781A147003027A03147003E7
:1076C00002786F24FD7003027937147003027A3F49
:1076D00014700302796724FE700302793C1470036E
:1076E00002795D1470030279A7027A2DEE2476F5F3
:1076F00029EF3400F52A852182852283E0852982BD
:10770000852A83F088218922EE2477127A5A12651D
:10771000D68A218B22EE2479F527EF3400F52879DB
:1077200002AC21AD22AA27FB1265D68A218B22EE5C
:10773000247BF52BEF3400F52C7902AC21AD22AA85
:107740002BFB1265D68A218B22EE247D127A427998
:1077500002AC21AD22AA23FB1265D68A218B228599
:107760002982852A83E0C333F0852582852683120A
:107770007AE6852582852683127610127AE085279F
:107780008285288312761085238285248312763A97
:1077900074047825125080852382852483E525F0A2
:1077A000A3E526F0EE2474127A5A1265D685258256
:1077B000852683C082C083852F82853083127AC656
:1077C000D083D082127AD0400302785B85238285F1
:1077D0002483E0F521A3E0F522E4F523F524852BAD
:1077E00082852C83E02401F529A3E03400F52AE406
:1077F000F52BF52C127AE088258926E4F527F52863
:1078000078297925124D5278217929124548400569
:10781000793B027A24EE24738049EE2480127A4266
:107820007402C0E07905AC21AD227AD57B071265E0
:10783000D6EAFCEBFDD0E0F9AA23AB241265D6858D
:107840002382852483C082C083852F828530831262
:107850007AC6D083D082127AD040057928027A2461
:10786000EE247F127E47241D127A54A3027963EE20
:1078700024E1127A897012752300127A96C0E01200
:107880007AA6D0E0127AB740F1EE24E2127A89A209
:10789000E0400EEE24DD127A4D741AF0790D027A72
:1078A000388C828D83E4F08A828B83127E5C740133
:1078B000F07908AC21AD22EE249BFAEF3400FB12E4
:1078C00065D68A218B227902AC21AD22EE24A3FA5F
:1078D000EF3400FB1265D68A218B22EE2493127AB4
:1078E000427908AC21AD22AA23FB1265D68A218BEE
:1078F000227908AA23AB241265E2EE2487127A4289
:107900007904AC21AD22AA23FB1265D67904AA23FF
:10791000AB241265E2EE248BFAEF3400FB1265F41F
:10792000EE2483FAEF3400FB1265FA90069DE044E2
:1079300080F07904027A38EE24DE80248C828D83F4
:10794000E4F08A828B83F0EE24D2127A54EE24DCA7
:10795000127E4724D3127A54790B027A38EE24DF50
:10796000127A6BF0027A3F752300127A96C0E01209
:107970007AA6D0E0127AB740F1752300127A96FA0F
:10798000852182852283E05AC0E0127AA6D0E012D7
:1079900075F7A38582218583220523E523C39408F7
:1079A00040DA7909027A38EE24EA127A79E0640141
:1079B000607B852182852283E0C0E0EE24ED127A8F
:1079C0004DD0E0F0882189227402C0E0F9AC21ADED
:1079D00022EE24EEFAEF3400FB1265D6EAFCEBFD52
:1079E000D0E0F9EE24F0FAEF3400FB1265D68523DF
:1079F000828524837401F0EE24EC127A8970407938
:107A00000C8035EE24F4FAEF3400FB8521828522C8
:107A100083E08A828B83F0EE24F3127A6BF08A8201
:107A20008B83E0F9EEFAEFFB1265A68012EE24F5E7
:107A3000127A4DE525F07907EEFAEFFB1265700238
:107A40007E42F523EF3400F52422EE247BF582EF0D
:107A5000127E6722127E64E4F022F525EF3400F5F1
:107A6000267902AC21AD22AA25FB22127A6F22F5DB
:107A700082EF3400F583740122F523EF3400F524FE
:107A8000852382F58322EE2469127A8D22F582EF16
:107A90003400F583E022852382A88274AF28F58222
:107AA0007406127A9022EE28F8EF3400F9E824E206
:107AB000F582E9127E6722F00523E523C3940822AC
:107AC000EE247B127E64127ACA22E0F8A3E0F92247
:107AD000E0C398F8A3E099F9C3E894FFE9947F2202
:107AE000852782852883127630C333F8E933F9225B
:107AF00074E8125103EAFEEBFFEE24DEF529EF34C1
:107B000000F52AEE24DFF527EF3400F528EE246295
:107B1000F52FEF3400F530EE2482F525EF3400F533
:107B200026EE241DF52BEF3400F52CEE2404127AFA
:107B300042EE2469F521EF3400F522027CC2EEFA10
:107B4000EFFB126564027E27852182852283E06433
:107B500001703C9006A5E07003027D6DEEFAEFFB2C
:107B6000126576EE24A3F52DEF3400F52E782D1254
:107B70005316EE249BFCEF3400FD8523828524837D
:107B8000E0FA7B0012631E74021250A9027CC2EE5E
:107B9000FAEFFB12653A027E27852182852283E077
:107BA000640170359006A5E06015852582852683E1
:107BB0007401F0EE24D4127E6CEE24D8127E6C8513
:107BC0002982852A83E064016003027D6D7906EED7
:107BD000FAEFFB12657C027CC2EE24D2127E4D705D
:107BE0001CEEFAEFFB126540E964016003027E407F
:107BF000852982852A83E4127E53027E2EEE24D3C9
:107C0000127A897003027E40EE24B2F52DEF340023
:107C1000F52E782D125316EE248BFCEF3400FDEE7A
:107C200024C2FAEF3400FB12660674021250A9EE69
:107C300024D2127A6B805E852182852283E06401E2
:107C400070569006A5E07003027D6D127E93EEFAE9
:107C5000EFFB126576852F828530837401127E7862
:107C6000852382852483E0FA7B00EE24DC127E4D9E
:107C70007007790012632A80077C0179001263245F
:107C8000EE24DC127A4DE4127E5CE4F085278285D6
:107C900028831275FFF0802AEEFAEFFB1265460288
:107CA0007E27852182852283E06401707185278289
:107CB000852883E064016003027D6DEEFAEFFB121C
:107CC0006576EE246E127A897003027E40EE246A95
:107CD000127A8924FE602F24FE7003027B48147000
:107CE00003027B99147003027C37147003027E3107
:107CF00024FE7003027D8D24FE60A7147003027DB4
:107D0000B414603D80BC852182852283E0640160DB
:107D100003027B3E9006A4E0605379168059EEFA88
:107D2000EFFB12654CE964016003027E4085278207
:107D3000852883E4F0852582852683127E53027C84
:107D400095852182852283E0640170379006A5E045
:107D50006012852582852683E4F0852F8285308315
:107D600004127E789006A4E06003027CBB127EA819
:107D70006003027E407922EEFAEFFB1265A67901DC
:107D8000027E42EEFAEFFB126552027E27852182C7
:107D9000852283E0640170139006A5E060CFEE2495
:107DA000E1127A6BF0127E93027CBBEEFAEFFB12CB
:107DB00065588073852182852283E06401705CEEC2
:107DC00024EA127E4D702DEE24EB127E4D600302EC
:107DD0007CBBEE24F0127A4D12532DEE24EE127A73
:107DE0004D12532D127E81790012631874041250C3
:107DF000A9027CBB127EA87047EE24F0127A4D12C5
:107E0000532DEE24EE127A4D12532D127E817922DB
:107E100012631874041250A9027D75EE24EC127ED0
:107E200047FAEFFB12655EE9852182852283F080A7
:107E30000FEEFAEFFB12656AE964017003027CBB86
:107E400079007F100251D5127A6FF0EE22127A8DEE
:107E5000640122F08521828522830422F0EE24E051
:107E6000127E6422F582EF3400F58322127E64E4F0
:107E7000F0A3F0A3F0A3F022F0EE2467127A6FF0E3
:107E800022EE24ED127A8DFC852382852483E0FA8C
:107E90007B0022EE2420127E64127ACA852B828512
:107EA0002C83E8F0A3E9F022EE2471F8EF3400F916
:107EB00088828983E024FFF0A3E034FFF088828980
:107EC000831276304922C082C0838A828B83A3A327
:107ED000A3A3A3A3A3127AC6EA240BF582EB12761E
:107EE0004FC3EA98EB995019E8C39AF8E99BF9C394
:107EF000E894AAE9941040197900D083D082024412
:107F0000F5EAC398F8EB99F9C3E894ABE99410400B
:107F1000E7790180E5D083D0820244F5C082C08336
:107F2000900595E0F8A3E0F9E84960047901800242
:107F3000790080E1E9F874FF28C39416400574FFC6
:107F40006870047901800279000244F574EE1251E0
:107F50000389258A218B228C267529008A828B83AE
:107F6000E4F074121250DFE0FEA3E0FF8005E82584
:107F700029F529E529C395265062852923EE252375
:107F8000F582EF3400F583E0F52A0529604E852956
:107F900082A882852627F523E82523FAE43400FB0E
:107FA000E5279AE49BC365D0334031EE28F582EF94
:107FB0003400F583E0F5230529F9125FE2E9601C3E
:107FC00074FF252AF8852182852283F0E525652323
:107FD000709CEE2529FAEF3400FB80047A007B00C8
:107FE0007F0A0251D5E5BDF9E5BCFAE9FB0244F58B
:107FF00053B4F3EBF5BCEAF5BC0244F50244F5FFDB
:1080000074F7125103E99005DAF07C127D067AFFCD
:108010007BFF1262289005DB74FFF0A3F0A3E4F06D
:10802000A3F079051261BC9005DAE0F91260EA7AF2
:10803000467B621263EA7F010251D574F412510348
:108040008A218B22EB548060309005DAE0F9126AC5
:108050000E8A238B24AE23AF24EE4F60138E828FC3
:1080600083E064B070031261D4EEFAEFFB1269FC96
:10807000AA21E5226480FB80047A007B0002825200
:1080800074F212510374FC125093EAFEEBFFEE4FB0
:10809000603874021250DFEEF0A3EF1284B7ECF0F8
:1080A000A3ED1284B7AA82AB831260E4E9F52170D4
:1080B0007374121250DF12906BE523452460658EB5
:1080C000828F8312812EEE4F700575210280557AC2
:1080D000067B00126A6E8A258B26A825A926E84908
:1080E0007005752113803D88828983E4128138A34D
:1080F000A3EEF0A3EF129504E523F0A3E524F0909E
:1081000005E01281C09005E06017E0FCA3E0800369
:10811000EAFCEBFD8C828D831281C070F38C828D22
:1081200083128F90A92174041250A902968EA3A3E2
:10813000A3A3E0FEA3E0FF22F0A3F08882898322BC
:1081400074F21251038923E975F017A4FEAFF09081
:1081500005DFE4F09005DD1281C0600A126A7490B8
:1081600005DDE4F0A3F0EEFAEFFB126A6E8A218BD4
:1081700022EA4522602FEEFCEFFD79001269EA90B9
:1081800005DDE521F0A3E522F07B0080081281AA3D
:10819000E4F0A3F00BEBC3952340F2E5239005DF59
:1081A000F079008002791302968EEB75F017A4F82F
:1081B000A9F09005DDE028FAA3E0398A82F5832250
:1081C000128D26EA4B2274F4125103752100752298
:1081D00000740C1250DF1294D8FEE9FF800CE521E8
:1081E0002401F521E5223400F522C3E5219CE52296
:1081F0009D503285212385222474037823125080D8
:10820000EA2523F8EB3524F988828983A3A3A3A365
:10821000A3A312906BEE65237003EF652470BFE893
:10822000FAE9FB80047A007B00802774F412510382
:108230007900EAA2E0501B7521787522907821120E
:1082400053167C047D007AFA7B121261B674021216
:1082500050A97F040251D5C082C0839005E01282EC
:108260008A601C88828983A3A3E06A7003A3E06B01
:108270008882898370E8A3A3A3A3128D2280047A45
:10828000007B00D083D0820244F5129761E8492236
:1082900074EE12510374FC125093EAFEEBFF854119
:1082A00082854283E4F0A3F0EE2402128F74EE2460
:1082B000051284A5EE2404F527EF12888AE024FE37
:1082C000603924FC604624FE605224FE605E24FE79
:1082D00070030283AA24FE700302842224FE70032A
:1082E00002843124FE700302844024FC7003028463
:1082F0004F24FE700302845E02849B9005F974177C
:10830000F0A3E41284BF125E8C02849B85418285B7
:108310004283AC82AD831261DA02846B854182852F
:108320004283AC82AD831261E002846B8525218596
:10833000262274021250DFAC82AD83852182852211
:1083400083128D221261028A258B26AC25AD26EC84
:108350004D6042E4F525F52678251253167525F96A
:1083600075260578251253167525FA752605782584
:1083700012531674081250DF12532D7916128D1CE9
:1083800012621C74081250A9E9F525700B128D18A1
:10839000125EA4800F7525018521828522831284B7
:1083A000AD128F9085252102846E74021250DFACCD
:1083B00082AD83852582852683128D221261028AF1
:1083C000298B2AAC29AD2AEC4D6043852582852670
:1083D00083A3A312532D7529F9752A057829125301
:1083E000167529FA752A0578291253167408125041
:1083F000DF12532D7916128D1C12621C7408125054
:10840000A9E9F522700B128D18125EAA800F752251
:10841000018525828526831284AD128F90852221C5
:10842000804C854182854283AC82AD831261E680B7
:108430003A854182854283AC82AD831261EC802B08
:10844000854182854283AC82AD831261F2801C85B6
:108450004182854283AC82AD831261F8800D8541F3
:1084600082854283AC82AD831261FEE9F521E5216C
:1084700060298E828F83A3E06414601F8527828524
:108480002883E09005F91284B712975D9005FA12DF
:108490008F90E521A31284BF125E86EEFAEFFB12E5
:1084A0006180028E7CF525EF3400F526221297615B
:1084B00085418285428322F085418285428322F074
:1084C0007CF97D05852382852483128D262274EE16
:1084D00012510374FC1250938A238B248C278D280D
:1084E000EA2405F521EB3400F5227C157D007900A6
:1084F0007AF97B051269EAE5212402F525E52212C5
:1085000084A885418285428385822985832A7829AA
:10851000125316852182852283A3A3A3A31289D295
:10852000125316E5212405F529E5223400F52A78B1
:1085300029125316852582852683128D2C1260FC04
:1085400074061250A98A298B2AAE29AF2AE5232462
:1085500002F523E524128F77EE4F70030286948094
:108560001774021250DF128D2288828983EAF0A3E9
:10857000EBF09005F9E004F09005F9E0C3940540B4
:1085800003028694E4F529F52A78291253167529F1
:10859000E2752A0578291253167529E3752A05789C
:1085A0002912531674061250DF12532D7910EEFC67
:1085B000EFFD128D1C12621C74081250A9E9705E46
:1085C000852182852283A3A3A3A3A3A3A3E0F8907C
:1085D00005E2E06870481289D21253167CE37D05EB
:1085E000E5212408FAE5223400FB1269E474021242
:1085F00050A9E960298E828F83A3A3A3A3128D22A1
:108600009005F9E0F5297402782912508074FA2552
:1086100029F5827405352AF583EAF0A3EBF074029C
:108620001250DF85822985832A7829125316740215
:108630001250DF12532D85258285268312977212E0
:10864000610874041250A98A298B2AAE29AF2A9096
:1086500005F9E0F529752A00740278291250807412
:10866000F92529F87405352AF988828983A31281AE
:10867000C07003028558E82403F8E93400F9EE4F8E
:1086800060030285618882898374FFF0A3F09005FE
:10869000F9E004F09005F9E0600A128D18125E9876
:1086A0007900800B852182852283128F87790A02C7
:1086B0008E7C74EA12510374FE1250938C2B8D2C15
:1086C000EA2405F525EB1298DC128132752100753C
:1086D0002200EA2402F529EB3400F52A854182853F
:1086E000428385822385832478231253168525822D
:1086F000852683A3A3A3A3128894125316E52524E9
:1087000005F523E526128F777823125316852582E7
:108710008526831297701260FC74061250A98A2372
:108720008B24EA45247003028845EA2404F527EBEC
:1087300012888A1281328A828B83A3A3A3E0F985EF
:108740002982852A83128D221260F0E9F5226003C6
:10875000028845E4F52DF52E782D125316752DE27D
:10876000752E05782D125316752DE3752E05782D6F
:1087700012531674061250DF12532D7913AC23AD29
:1087800024852982852A83128D2212621C74081284
:1087900050A9E9F52260030288459005E2E0F8E57A
:1087A000217009E024029005FAF080179005FAE0A4
:1087B000FCE82402FAE43400FBEA6C7001EB60038D
:1087C000028849852182AA821289C994141289C11A
:1087D0005073852782852883E0C0E074FB2A1288C5
:1087E00081D0E0F00521852782852883A3E0C0E0C1
:1087F00085212374FB2523128881D0E0F005219088
:1088000005E21288941253167CE37D0585212374BA
:10881000FB2523FA74053400FB1269D2740212504E
:10882000A99005E2E02521F52174FF6E700374FF25
:108830006F6012EE24010EEF3400FFE521C39414A3
:1088400050030286DCE5216013128C0D8529828598
:108850002A83128D22125E9E79008014E522700315
:1088600075220A852B82852C83EEF0A3EFF0A922D6
:1088700074021250A97F0E0251D585212574FB2563
:1088800025F58274053400F583223400F528852708
:1088900082F583221295172274EE12510374FE1290
:1088A00050938C278D28EA2405F525EB1284A875B2
:1088B00024009005F9E4F0F523EA2402F521EB34D5
:1088C00000F52280499005F9E0FA9005E2E0F812FF
:1088D00089C994171289C1400D9005F9E0F8741602
:1088E000C3989005E2F01289D21253167CE37D05FD
:1088F00074FA2AFA74053400FB1269D27402125019
:10890000A99005E2E0F89005F9E028F00523E525B7
:108910002416F582E526128885E0F8E523C3984001
:10892000030289AA9005F9E0C39416507DE523C39C
:1089300033F8E433F9E52528FEE52639FF85418241
:10894000854283AC82AD838E828F83128D22126129
:10895000028A298B2AAC29AD2AEC4D7005752401B9
:108960008043E4F529F52A78291253167529E27512
:108970002A0578291253167529E3752A05782912D4
:10898000531674061250DF12532D791685218285F5
:108990002283128D2212621C74081250A9E9F52458
:1089A00070030288C5128F8380107CF97D058521B4
:1089B00082852283128D22125EB0A9247402028E57
:1089C0007EE99400C365D03322EA28F8E43400F944
:1089D000E822E0F529752A0078292274EA12510369
:1089E00074FC1250938A258B268C2B8D2CEA24053F
:1089F000F523EB128F77752100752200E523240201
:108A0000F529E5243400F52A74021250DF85822707
:108A10008583287827125316852382852483A3A370
:108A2000A3A31294C3125316E5232405F527E524C6
:108A30003400F5287827125316852982852A831257
:108A40008F7D128D1C1260FC74061250A98A278B30
:108A500028AE27AF28E5252402F527E5263400F5C2
:108A60002880408882898374FFF0052112887A74F7
:108A7000FFF005219005E2E0F52575260078251226
:108A800053167CE37D0585212574FB2525FA7405A5
:108A90003400FB1269D274021250A99005E2E0255D
:108AA00021F521EE4F60718E828F83A3A3A3E0F99D
:108AB000852782852883128D221260F0E9F522EE47
:108AC00024041284A5E97044E4F52DF52E782D12C6
:108AD0005316752DE2752E05782D125316752DE35C
:108AE000752E05782D12531674081250DF12532D6F
:108AF0007911EEFCEFFD852782852883128D2212E5
:108B0000621C74081250A9E9F52260278525828528
:108B10002683128C03128F90E5217003028BE912D9
:108B20008C0D852782852883128D22125EB67900EE
:108B3000028BFE852182AA82EA9005E27009E02478
:108B4000049005FAF08022E0F89005FAE0F52DE8AF
:108B50002404FCE43400FDEC652D7001ED70C012BE
:108B600089C994121289C150B6852582852683E071
:108B7000C0E074FB2A128881D0E0F00521852582AF
:108B8000852683A3E0C0E012887AD0E0128C1F858E
:108B90008225858326782512531674041250DF121D
:108BA000532D852982852A831297721261087404D5
:108BB0001250A98A258B26AE25AF2685212574FB68
:108BC0002525F874053400F9EE4F7003028A638599
:108BD0004182854283E088828983128C1FA3E0C092
:108BE000E012887AD0E0028A71E522700375220AC9
:108BF000852382852483128C03128F90A92274040A
:108C0000028872129761852B82852C83229005FA47
:108C1000E0F5F0E521849005F9F07CF97D0522F07E
:108C200005218541828542832274EC12510374FE32
:108C30001250938A218B228C278D28EA2405FEEB83
:108C40003400FF854182854283AC82AD838E828F62
:108C500083128D221261028A238B24EE241812843F
:108C6000A5EA45247003028CF3128E6550328541CB
:108C700082854283128D221262108A298B2AEA454C
:108C80002A606B7912AC23AD248521828522831260
:108C90008D22852982852A83125101E9F523705896
:108CA000E4F523F52478231253168E828F83A3A331
:108CB000E0F5237823125316EE2403128F747823E1
:108CC0001253168E828F83128D2C1262227406121A
:108CD00050A9E9F5237021852582852683E0701F40
:108CE000852182852283128D22125EBC801175231C
:108CF0000E80097523018004E5236003128F8385AC
:108D00002582852683E0600479008002A92374020D
:108D10001250A97F0C0251D57CF97D0585238285EF
:108D20002483128D2622E0FAA3E0FB22E0FCA3E0DC
:108D3000FD852182852283128D262274EE12510335
:108D400074FE1250938A218B228C258D26EA2405ED
:108D5000FEEB3400FF752700854182854283AC829B
:108D6000AD838E828F83128D221261028A238B241F
:108D7000EA45247003028E51128E6550358541827A
:108D8000854283128D221262108A278B28EA452899
:108D9000605E7912AC23AD24852182852283128DF9
:108DA00022852782852883125101E9F52760030275
:108DB0008E5485218285228312906BAA23FB126236
:108DC000048A298B2AA829A92AE849701E7AFF7BE0
:108DD000FF1262048A298B2AA829A92AE849606C13
:108DE00088828983E523F0A3E524F07523008007BA
:108DF00075270E805F05239005DFE0FAE523C39A0F
:108E0000504AE52375F017A4FAABF088828983A352
:108E1000A3E02AFAA3E03BFB8A828B83128F7DECCE
:108E20004D70D27523177524007823125316EEFC6B
:108E3000EFFD1269D274021250A9EEFCEFFD8521FC
:108E400082852283128D22125EC2801475270980CA
:108E500003752701129759852582852683128F90E5
:108E6000A9270289BCE5212402F521E5223400F579
:108E7000228A828B83A3A3A3E0A2E522740412506A
:108E8000A97F0A0251D574EC1251038C298D2AEA6C
:108E90002405F525EB1284A8752800EA2402F523A1
:108EA000EB128F77852382F583128D221262048A5A
:108EB000218B22EA45227003028F69752700807199
:108EC000852582852683E06401704F8E828F83A37F
:108ED000A312532D8E828F83A3A3A3A3E0F52B753A
:108EE0002C00782B125316EE2405F52BEF3400F5E9
:108EF0002C782B125316128D1C12622274061250FB
:108F0000A9E9F5286014852582852683E4F0129767
:108F100059852982852A83128F907C177D007900DC
:108F2000EEFAEFFB1269EA8E828F83E4F0A3F0057C
:108F3000279005DFE0F8E527C398501EE52775F078
:108F400017A4F8A9F0852182852283A3A31298E6AD
:108F5000128F7DEC4D6003028EC0852182852283B5
:108F600074FFF0A3F0E5287006128D1C125EC8A9EC
:108F700028028D13F523EF3400F52422A3E0FCA38F
:108F8000E0FD228E828F8312976185278285288358
:108F9000E8F0A3E9F022C082C0839005DBE06A70AC
:108FA00003A3E06B70067ADB7B0580047A007B000C
:108FB000028283C082C08378008C828D83E06A70D5
:108FC00003A3E06B7010E875F003A4F8A9F0EC2897
:108FD000FAED39FB8015088C828D83A3A3A3E06A88
:108FE0007003A3E06B60DF7A007B0002828374F67B
:108FF0001251031261CE8A828B83E582458370060B
:109000007A007B008007A3A3A3A3128D2202960AF5
:1090100074F2125103E9FE740E1250DF12906B7459
:10902000101250DF1294E38C828D83E0640270365C
:10903000A3129767F525A3E0F9A8257402687003C9
:10904000742969702175250275260078251253163A
:1090500078211253167823125316EEF912623A74DD
:10906000061250A98002790102968EE0F523A3E052
:10907000F5242274E812510374FB125093E98541E0
:1090800082854283F08A2F8B30ECFEEDFF7529003C
:10909000741D1250DF12975D741D1250DF128F90F5
:1090A0008E828F83A3A3A3E0A2E4502D741D1250DF
:1090B000DF128D221262108A828B83E582458370D3
:1090C000030294B4790AEEFCEFFDAA2FAB301251E3
:1090D00001E9F52960030294B7741F1250DF12945E
:1090E000E374211250DF12906B74231250DFE0F50D
:1090F00027A3E0F5288E828F83E064026003029448
:1091000062A312975D852182852283A385822B85A8
:10911000832CEE24061284A588828983E0FAA3E0DA
:10912000F9EA2400F52DE439F52E782D1253A0012B
:1091300000002801285791070002281C9203288963
:10914000910029539301297E9302291F93032953E8
:10915000930429FD936294E5274528600302945DFA
:109160008525828526831294D8FAE9FB8A828B832F
:10917000E085238285248312950E1253168A828BF2
:1091800083A3E0FCA3E00293E7E527452860030200
:10919000945D8523828524837401F01294EB8521EC
:1091A00082852283F07C007D008E828F83A3A3A31F
:1091B000A3E02401FAA3E03400FB126102EA4B6051
:1091C000418A828B83E02402F8852382852483E010
:1091D00028F0EA2404F8EB3400F988828983E085DA
:1091E0002B82852C8312952012950E1253168A829B
:1091F0008B83128F7CE5212403FAE5223400FB02E5
:1092000093EC852382852483E02404F07C047D0094
:109210007900AA2BAB2C1269EA0294B7E5274528FE
:10922000600302945D1294EBFEA3E0FF8523828528
:1092300024837404F0EE852182852283F0EF852B50
:1092400082852C83F074031250DFAC82AD83EEFA7A
:10925000EFFB1261028A258B26EA452670030293F2
:10926000008A828B83A3A312812E74011250DF85A2
:109270008227858328782712531674051250DF122F
:10928000532D7CFF7DFF12610874041250A98B28B6
:10929000EA452870338525828526831294C31253AC
:1092A00016852582852683A312532D7C027D007AA4
:1092B000567B90125F6474041250A9E9700A74011D
:1092C0001250DF74FFF0A3F08E828F83E06402708F
:1092D0003975250275260078251253168E828F83E4
:1092E000128F7CE5212404FAE5223400FB1269D2B6
:1092F00074021250A9852382852483E02402800908
:1093000074011250DFEEF0A3EFF074011250DF127F
:1093100094D4F074011250DFA31294CC029457E558
:10932000274528600302945D852582852683128F58
:109330007DAA2FAB3012622E85238285248374028E
:10934000F0EA852182852283F0852B82852C83EBB0
:1093500002945AE5274528600302945D1294EBF8C5
:10936000A3E0F98523828524837402F0E8852182B5
:10937000852283F0E9852B82852C8302945A8525EA
:1093800082852683128D221269CCEAFC8C82A88207
:10939000C39527E49528405FE865277002E52870AB
:1093A000047C008022854182854283E0FAE5272AF9
:1093B000FAE5283400FBC3EA98EB94005003E08000
:1093C00005E527CCC39CFCEC852382852483F08CA7
:1093D000237524007823125316852582852683E081
:1093E0002527FCA3E03528FDAA21AB221269D274FF
:1093F000021250A90294B77529070294B7E52745D0
:1094000028705A85258285268312975D852382855B
:109410002483740712813A1294CC12813AA3E08516
:109420002B82852C83F0E82402FAE93400FB8A823F
:109430008B831294CC1294FB1294D4A31295041231
:1094400094DDF0E82405F8E93400F9888289831274
:1094500094DDA3129520A3A3A3A3F0805A75290B32
:109460008055741D1250DF128D221261CE8A828BBC
:1094700083E5824583603D12975D88258926E8450E
:10948000266031782712531678231253167821124A
:10949000531674061250DFE0F9EEFCEFFDAA2FAB75
:1094A0003085258285268312510174061250A9E960
:1094B000F529800375290EA92974051250A97F107A
:1094C0000251D5E0F527752800782722E085218212
:1094D0008522832212952A22129761E82212952A68
:1094E000A3A322E0F521A3E0F5222285258285268B
:1094F00083E0F8A3E0F5838882E022A3A3F08A82C8
:109500008B83A322F088828983A3A3A3A322F08A5A
:10951000828B8312951722E0F5237524007823228D
:10952000F088828983A312952A22E08521828522F0
:1095300083A3A32274EE12510374FE1250938A2364
:109540008B24ECFAEDFB74141250DFE0F529A3E054
:10955000F52A74161250DFE0FE74181250DFE0F5A1
:1095600027A3E0F528854182854283AC82AD831232
:1095700061028A258B26EA4526604985418285421B
:1095800083128D221261CE8A828B83E582458360AD
:109590002FA3A31294E3E5214522602478271253D8
:1095A000167829125316EEF9AC25AD26AA23AB2462
:1095B00085218285228312510174041250A98006EC
:1095C000790E800279010289BC74F612510374FF8E
:1095D0006A700374FF6B70168C828D8312960FE491
:1095E000F08C828D83A3A3A312960FA3801812621E
:1095F0000A8A218B22A821A922E849600D88828944
:109600008374FF128138A3A3E4F07F020251D57462
:10961000FFF0A3F08C828D83A3A32274F612510372
:1096200012620A8A828B83E58245836006A3A3E0E7
:10963000FA80027A007B0080D174F21251038A21F1
:109640008B22ECFEEDFF740E1250DFE0F523126268
:109650000A8A258B26A825A926E8497026EEFCEF64
:10966000FD7AFF7BFF12620A8A258B26A825A92690
:10967000E84970047911801688828983E521F0A376
:10968000E522F088828983A3A3E523F079007F0691
:109690000251D574EE125103EAFEEBFF8C218D22AC
:1096A000892574141250DF12975D74161250DF1260
:1096B0008D22752600E849600302975174026525E2
:1096C000600302974C74121250DF129767FCA3E0FC
:1096D000F9EC2400F527E439F528EAF4F8EBF4F97D
:1096E000EC58F8E52859F9E849705CE5212406F8BA
:1096F000ED3400F9882389248882F5831297721249
:10970000622E8A298B2AE52765297004E528652AB7
:10971000604278271253168523828524831297721C
:1097200012623474021250A9E9F5267027782712C4
:109730005316852182852283A3A312977012624C4F
:1097400074021250A9800D752680800875260D8040
:109750000375260BA926028E818E828F8312976154
:1097600022E0F8A3E0F92212976188828983E0223F
:10977000A3A3E0FCA3E0FDEEFAEFFB2274E8125194
:109780000374E7125093854182854283EAF0A3EB8C
:10979000F08C2F8D308927752100752200743112CD
:1097A00050DFE0F52BA3E0F52C74331250DFE0F529
:1097B0002DA3E0F52E74351250DFE0F528E5227573
:1097C000F003A4F8A9F08541828542831298E6E06F
:1097D000F47003A3E0F470030298C9EE2402F525A7
:1097E000EF1298DCE070030298C9852F238530249E
:1097F0007823125316AC2DAD2EAA2BAB2C1261C2BE
:1098000074021250A98A238B24EA4524700302981B
:10981000C9E4F529F52A782912531674061250DF87
:1098200085822985832A782912531674091250DFFC
:1098300085822985832A7829125316852B82852CC7
:1098400083A3A3A3A312532D7914AC23AD248E823A
:109850008F83128D2212621C74081250A9E970695C
:10986000852382852483A3A3A3A312975D74021288
:1098700050DF128F90852582852683E0A2E0501864
:10988000A92774021250DFAC82AD838E828F8312BF
:109890008D2212611AE94221852582852683E0A264
:1098A000E15026E528F523782312531AA9277403DB
:1098B0001250DFAC82AD838E828F83128D221261B3
:1098C0001474011250A9E942210522E522C3940231
:1098D00050030297BDA92174190294BB3400F526E8
:1098E000852582F58322E028FEA3E039FF8E828F52
:1098F000832274F2125103EAFEEBFF89247401659E
:1099000024600E74026524706A7901126408E9709B
:1099100062EEFAEFFB1262048A218B22EA45226092
:1099200047752300800B7C177D0079001269EA05DA
:10993000239005DFE0F8E523C3985021E52375F077
:1099400017A4F8A9F0852182852283A3A3E028FA31
:10995000A3E039FB8A828B8312828A70C9852182B7
:1099600085228374FFF0A3F07C127D06EEFAEFFBF4
:1099700012622802968E74F21251038A218B22EC15
:10998000FEEDFF740E1250DF12906B9012F8E0F4AF
:10999000603D7A097B001269F6EA4B60328A828B5D
:1099A0008374B1F0A3E41294FDA31294FBA3E52108
:1099B000F0A3E5221299D2EEF0A3EF1299D2A3A35D
:1099C000E523F0A3E524F09012F8E0F9126A020210
:1099D000968EF08A828B83A3A3A3A3A322C082C006
:1099E000839011B5E064057004790180027900026A
:1099F000A38A75C9A075C9500244F5C082C0837599
:109A0000F7E043F30153FDFE438F0143F30253FD9F
:109A1000FD438F0243F30453FDFB438F0443F308DC
:109A200053FDF7438F0843F31053FDEF438F10535B
:109A3000F3DF53FDDF438F2053F3BF53FDBF438F4D
:109A40004053F37F53FD7F438F8053F4FE43FE0169
:109A5000D29053F4FD43FE02D29153F4FB43FE0433
:109A6000D29253F4F743FE08C29353F4EF43FE102F
:109A7000C29443F42043FEDF43F48053FE7F43F659
:109A80008043F44043FEBF53F5FE53FFFE53F5FD04
:109A900043FF02C2A153F5FB43FF04C2A243FF08E8
:109AA000C2A343FF10C2A49005517401F090055564
:109AB000F07900126AD402A38A7F010251D574F6AC
:109AC000125103E9FE74016E701E7521FC752200AF
:109AD00078211253167C007D007A247B03126D6876
