:020000040000FA
:06000000020107022908BD
:03002B00022D396A
:03004300022D1378
:0300530002297E01
:03005B000222A4DA
:100083000227B7E5C754F84401F5C77901220000F8
:100093000080FB120086B900030200F1E479437883
:1000A3000DB800028004F709D8FCE479507802B84F
:1000B30000028004F709D8FCE4900281782A790EC3
:1000C3008002F0A3D8FCD9FA7AAA7B0F9001377883
:1000D3008379038015E493A3AD82AE838A828B83F5
:1000E300F0A3AA82AB838D828E83D8E9D9E7758288
:1000F300007583CB740312011975829175830074A3
:100103000012011975D00075815F75418175420236
:10011300759F00020096C09FF59FE473D09F22D085
:1001230083D082C09FE493C0E0740193C0E0740263
:1001330093F59F2201FAFF0000B400002800280075
:10014300283075A000A000A000A00000080008E06F
:1001530001F00010001000100010001000100050FB
:10016300005000500010001000D0070000000000F5
:10017300000F000100050030750700100001008129
:10018300FF00000000FF41065F064706FF02020270
:1001930008025000A0000000E80302B29101000031
:1001A300929102A091010000031002A691010000A8
:1001B300290602A091010000041002A89101000089
:1001C3003F0602A091010000051002AA9101000060
:1001D300410602A091010000061002AC9108000044
:1001E300420602A091010000071002AE9101000037
:1001F3000810FF0100FF2002B2910100009B910251
:10020300A0910100006C1002B091000000000002F8
:10021300A4910300008F063B0C3B0C3B0C3B0C3BB7
:100223000C3B0C3B0C3B0C3B0C3B0C3B0C3B0C3B93
:100233000CDB0EF30ED50EFF004000000040000063
:100243000040000000400000050202020202020218
:100253000202010D000000100102B291010000989A
:100263009102A091010000BF1002C491010000643B
:100273000C02A091010000C01002C29101000070A5
:100283009002A091010000C11002C091010000542E
:100293009002A091010000C21002BE91010000462D
:1002A3009002A091010000C31002BC910100002A3A
:1002B3009002A091010000C41002BA910100001C39
:1002C3009002A091010000C51002B8910100000046
:1002D3009002A091010000C61002B69101000062D5
:1002E3009002A091010000C71002CE91010000C846
:1002F30010FF00013075030201060000000000003A
:1003030000000000000000000000000000000000EA
:10031300000000000000FFFF0600800CE80302015C
:10032300060302A6C5D112D712DD121A4368617201
:100333006163746572697374696320360002B291F4
:10034300010000959102A091010000A11102CC913E
:10035300030000900F02A491030000A40F02A291D6
:10036300010000A211303132333435363738394188
:10037300424344454600286E756C6C20706F696E6D
:100383007465722900303132333435363738396188
:100393006263646566003F3F3F000000807F0000AA
:1003A300803FF9021550B743BA510000204100E7DE
:1003B300DB2E0000A0401201223B620012012250FA
:1003C30062001201225962001201220A6300120123
:1003D300222463001201222F63001201221D6400F4
:1003E30012012239640012012299640012012210C1
:1003F3006700120122866700120122E067001201E2
:10040300224468001201229C680012012214690030
:10041300120122F16900120122F76A001201227708
:100423006C00120122E96C00120122F57100120125
:10043300220E73001201229A73001201221879000E
:10044300120122707900120122A47900120122C83C
:100453007900120122087A00120122517A00120156
:1004630022907A0012012280C20312012297C20352
:10047300120122C8C20312012203C3031201222D57
:10048300C30312012257C3031201226EC3031201D5
:100493002285C3031201229CC303120122C5C30395
:1004A300120122D8C303120122EEC3031201220157
:1004B300C40312012228C403120122A8CA02120192
:1004C30022ACCB02120122E4CB0212012207CC029E
:1004D30012012212CC0212012235CC021201224453
:1004E300CD0212012219CE0212012294CE02120170
:1004F300221CCF0212012257CF021201228ECF02F9
:100503001201221CD002120122F5D002120122553F
:10051300D10212012260D102120122DFD1021201A3
:1005230022E2D102120122E5D10212012274D20287
:1005330012012277D202120122A7D202120122D182
:10054300D202120122BFD30212012271D40212017C
:10055300229B9603120122C39603120122F19603F2
:10056300120122289703120122869703120122D136
:1005730097031201221C98031201225C98031201B3
:1005830022A29803120122D098031201228D99030B
:10059300120122979903120122A49903120122D76F
:1005A3009903120122A39A03120122AF9A031201A3
:1005B30022C79A03120122D19A03120122E7CB0325
:1005C300120122FFCB0312012217CC03120122785E
:1005D300B30212012254B402120122B8B50212016D
:1005E300220FB60212012290B60212012280B70234
:1005F300120122CDB70212012253B8021201228541
:10060300B80212012299BA02120122DBBA021201C4
:1006130022F9BA021201227CBB0212012250BC024F
:1006230012012218BD02120122008003120122D3FB
:1006330080031201227C8103120122CF8103120164
:10064300227F82031201220B8303120122F7830309
:100653001201222684031201223985031201228109
:100663008503120122568603120122928603120188
:1006730022AE860312012285A8031201229BA8033E
:10068300120122C1A803120122DDA903120122E7EC
:10069300A9031201221CAB0312012214AC031201A1
:1006A30022AA7A00120122DA7B001201220D7C00B9
:1006B300120122577C001201221E7E00120122D851
:1006C300D70112012242D801120122A1D90112013C
:1006D30022B1D901120122DED9011201223ADA0133
:1006E30012012241DB011201220BDC011201226BF8
:1006F300DD01120122AEDD0112012253DE011201DE
:1007030022A0DE01120122C6DE01120122D4E00181
:10071300120122D9E001120122DEE2011201222B91
:10072300E3011201229EE301120122D1E30112012E
:100733002273E4011201221CE50112012254E50196
:1007430012012257E5011201229FE501120122DF66
:10075300E50112012236E6011201229CB5031201C2
:1007630022B4B503120122FCB50312012212B6030F
:1007730012012259B6031201226DB703120122FAA4
:10078300B70312012245B8031201225E4800120189
:1007930022994800120122DE48001201229E4900DC
:1007A300120122244A00120122894A00120122B5B1
:1007B3004A00120122EE4A001201222C4D001201BE
:1007C30022104F00120122F650001201223952006A
:1007D300120122875400120122995500120122E4CA
:1007E3005600120122F4570012012211580012017F
:1007F300224C58001201226E5800120122D15800D7
:10080300120122925D00120122275E001201227959
:100813005E00120122975E00120122F15E001201B6
:1008230022DA5F00120122506100120122D461001A
:10083300120122BC9103120122C691031201220963
:100843009203120122249203120122B49203120191
:1008530022DC920312012219930312012250930303
:10086300120122799303120122EE93031201220350
:1008730094031201221894031201225994031201C2
:1008830022939403120122BF9403120122F79403CB
:10089300120122569503120122D595031201221E3D
:1008A3009603120122489603120122739603120142
:1008B30022D7C803120122BF9A02120122ED9A0223
:1008C3001201223B9C021201221B9D021201223AB9
:1008D3009D02120122B79D02120122FA9D0212010A
:1008E30022509F0212012211A00212012298A20299
:1008F30012012239A3021201222FA4021201222C77
:10090300A50212012286A60212012211A7021201D8
:10091300227CC703120122E5C70312012239C8034F
:1009230012012260C80312012291C803120122049A
:10093300A00312012271A003120122B8A003120125
:1009430022D0A103120122CCA203120122AFA303DE
:1009530012012225E80212012267E802120122395C
:10096300E90212012212EA021201220CEB02120125
:1009730022EEEB0212012257EC021201220DED02CC
:1009830012012281ED02120122EDED021201221663
:10099300EE0212012290EE0212012229EF0212014D
:1009A300228EEF02120122A3EF02120122E9EF02CB
:1009B30012012202F00212012267F0021201226ADE
:1009C300F0021201226FB80312012297B803120139
:1009D30022D5B80312012293B903120122FAB903F3
:1009E30012012216BA031201223EBA031201226E29
:1009F300BA031201227DBA03120122FABA031201C9
:100A030022DDB6011201227BB80112012296BA013E
:100A1300120122D2BA01120122FFBA01120122E409
:100A2300BB011201222BBC011201226FBC01120176
:100A3300229CBC01120122E7BC0112012227BD0145
:100A430012012255BD01120122A7BD011201223755
:100A5300BE01120122D5C001120122EBC201120113
:100A63002229C301120122BAC401120122FFC401C7
:100A730012012276C501120122C0C501120122E62C
:100A8300C501120122CEC601120122ACDE021201FF
:100A9300222BDF02120122EDE402120122FCE50205
:100AA30012012264E702120122FBE702120122D1A2
:100AB30091011201221A920112012247920112019D
:100AC300227A92011201228792011201229392014A
:100AD300120122A592011201228C9301120122EA32
:100AE30093011201221F9401120122629501120146
:100AF30022B99501120122269601120122E49601E0
:100B03001201229D97011201220A9801120122BCAF
:100B13009801120122CC980112012253990112016A
:100B230022129A011201223F9A01120122B89A015C
:100B3300120122159B011201225F9B01120122F572
:100B43009B01120122C09C01120122759D01120119
:100B530022EA9D011201224B9E01120122B59E0140
:100B6300120122EE9E01120122909F01120122A086
:100B7300A001120122E0A001120122FDA001120135
:100B8300221CA10112012263A10112012288A101E9
:100B9300120122B5A1011201222FA201120122701A
:100BA300A20112012294A30112012244A401120101
:100BB300229BA40112012205A5011201221EA501F7
:100BC300120122E2D40212012235D502120122417E
:100BD300D50212012216D6021201223DD6021201BB
:100BE3002278D602120122E4D60212012220D70271
:100BF30012012259D70212012271D702120122C611
:100C0300D702120122DFD70212012228D8021201D1
:100C1300223BD80212012255D8021201226BD802BC
:100C23001201229ED902120122E5DA02120122E701
:100C3300DB02120122E1DC02120122FD7F0012011C
:100C430022888D02120122B88D02120122809102A4
:100C5300120122D79202120122A093021201222032
:100C63009502120122F195021201222E960212011F
:100C7300225196021201228F9602120122989602A5
:100C8300120122E29602120122EC9602120122962E
:100C930097021201226F9802120122C398021201D5
:100CA30022259902120122789902120122A79902A0
:100CB300120122E4990212012250A501120122B766
:100CC300A801120122BDA8011201223FAE011201A7
:100CD30022B8B2011201228EB6011201221EAC0308
:100CE30012012294AC03120122AAAC03120122EBDB
:100CF300AC0312012225AD031201229EAD031201A2
:100D030022D9AD031201224CAE031201228AAE0393
:100D130012012293AE031201229FAE03120122BBE2
:100D2300AE03120122E6AE03120122FCAE0312014E
:100D33002240AF0312012270AF0312012283AF03DB
:100D43001201229DAF03120122C6AF031201220931
:100D5300B00312012248B00312012286B00312012C
:100D630022EBB00312012200B1031201220BB103E3
:100D730012012218B1031201222FB1031201223DE5
:100D8300B10312012248B10312012254B10312012B
:100D93002267B10312012272B1031201228FB10340
:100DA3001201229FB103120122B5B103120122D114
:100DB300B103120122DCB103120122F1B1031201CA
:100DC3002205B20312012266B2031201226CB2039E
:100DD30012012272B20312012278B2031201228A93
:100DE300B203120122058002120122918002120134
:100DF30022F08102120122118402120122FD8402D7
:100E030012012232850212012254850212012203A9
:100E13008602120122FB8702120122248802120198
:100E230022B68802120122E88802120122F5880202
:100E33001201224C8902120122728902120122DF5D
:100E43008B02120122E28C021201223A8D0212015C
:100E5300225ABF0212012264BF0212012286BF027C
:100E630012012292BF021201222BC1021201225A45
:100E7300C10212012276C202120122CFC202120162
:100E83002243C402120122B0C402120122EBC402A3
:100E93001201222AC502120122E3C702120122FD16
:100EA300C70212012289C80212012297C802120145
:100EB30022F0C802120122FEC80212012271C902E5
:100EC300120122D5C9021201221FCA02120122B63F
:100ED300F401120122D8F401120122FEF6011201DB
:100EE3002213FA011201222BFB01120122DEFB0164
:100EF300120122C0FC011201223AC4031201225F33
:100F0300C403120122D1C40312012247F8021201C1
:100F13002250F80212012259F80212012230F9027A
:100F2300120122E1FA0212012217FB0212012251DD
:100F3300FB0212012287FB02120122C1FB021201F2
:100F430022F5FB0212012221FC021201226AFC0299
:100F5300120122A4FC02120122EDFC02120122451D
:100F6300FD021201227AFD02120122D5FD021201B5
:100F7300220FFE0212012260FE0212012296FE02DD
:100F8300120122D0FE02120122F3FE0212012227D5
:100F9300CE0312012253CE03120122AECE0312015D
:100FA30022B8CE03120122C8CE03120122238703E3
:100FB3001201222D87031201226B8703120122B42F
:100FC3008703120122EE87031201224488031201D0
:100FD300226588031201226E8803120122B9880355
:100FE300120122E28803120122EC88031201225823
:100FF3008903120122EE8903120122388A031201A6
:1010030022688A03120122F18A03120122318B031F
:10101300120122698B031201227B8B031201229A94
:101023008B03120122A38B031201226C8C03120186
:1010330022B0CC031201224ECD0312012265CD034F
:10104300120122F8BD031201222EBE0312012281D6
:10105300BE03120122CABF03120122A7D003120149
:1010630022BDD003120122C7D00312012211D103E2
:1010730012012271A40312012286A4031201223950
:10108300A50312012279A50312012292A5031201DD
:1010930022C6A50312012213A60312012247A603A7
:1010A30012012289A603120122FDD1031201220F8C
:1010B300D20312012292A702120122F2A702120105
:1010C3002203A9021201221CA90212012248A90229
:1010D300120122BAA9021201223CAA02120122BE63
:1010E300AA02120122E5AD02120122589B0312014A
:1010F300228C9C031201222A9D03120122869F0344
:10110300120122B49F0312012242BB031201226780
:10111300BB0312012291BB0312012270D1031201FE
:1011230022D2CE03120122E3CE03120122E4FF01F5
:1011330012012293FF02120122A3FF02120122B223
:10114300FF02120122F6FF02120122F0C90312016B
:101153002275CA03120122E7CA03120122968C03E5
:10116300120122528D03120122538E03120122E037
:101173008E03120122CD8F031201227D90031201EF
:1011830022B89003120122109103120122569103F7
:101193001201226491031201227791031201229317
:1011A30091031201229C9103120122B391031201B4
:1011B3002275CF03120122F4CF0312012206D003BA
:1011C300120122DFC5031201222FC603120122B826
:1011D300C6031201221EC70312012243C0031201D8
:1011E300226DC00312012233C1031201220EC20376
:1011F3001201228EF0021201224BF1021201228609
:10120300F102120122AEF10212012210F2021201C6
:10121300225CF202120122BCF2021201225AF302F0
:1012230012012259F402120122F3F502120122766D
:10123300F602120122DDF602120122FFF60212016A
:101243002209F80212012223E70112012285EA0191
:101253001201220DEC0112012264EC01120122831E
:10126300EC0112012201ED01120122A0EE01120193
:101273002284EF0112012243F30112012213F4012C
:101283001201227BCD031201220FCE03120122731E
:101293002D00120122102E00120122692E001201CC
:1012A30022AF2E00120122C42F001201220A3100A4
:1012B300120122AA3100120122A4320012012232A9
:1012C30033001201220E4400120122D44500120100
:1012D300221C4600120122E84700120122EB4700BC
:1012E300120122BDB20312012202B3031201221F13
:1012F300B30312012282B303120122C8B303120102
:10130300226AB40312012269B50312012275C701CF
:1013130012012285CC01120122B7D103120122D17D
:101323007F0012012211D0031201223BD0031201CC
:101333002238D203E76670100809E766700A0809C5
:10134300E76670040809E76622E066701008A3E008
:1013530066700A08A3E066700408A3E06622C02151
:10136300C3E096F52108A3E096422108A3E0964244
:101373002108A3E0964221A2D265D033E521700172
:10138300D3D02122C3E7960809E7960809E7960810
:1013930009E79622C3E09608A3E09608A3E096081F
:1013A300A3E09622C021C3E096F52108A3E096426C
:1013B3002108A3E096422108A3E09645217001D3BA
:1013C300D02122080808E630E711121C801213DE30
:1013D300080808C64480C618181822181818E9798E
:1013E3009EC608CAC608CBC608CCC6C37020799669
:1013F300CACBCC7019798ECBCC70137986CC700E96
:10140300F9802ACA33CACB33CBCC33CC331930E778
:10141300F2CCCBCA3350147004EA30E00DE4CA3A7C
:10142300CACB3BCBCC3CCC500209C3E913C6CC1886
:101433002313C6CB18C6CA18C6F92212147E20F08D
:101443001430E72B74FFFCFBFA747F8022E4FCFB6F
:10145300FA7480801AB48008BC00F2BB00EF800FDE
:1014630050EBF9E4C39AFAE49BFBE49CFCE499C6D1
:10147300CC18C6CB18C6CA18C6F922E4C9C608CA0E
:10148300C608CBC6D3330308CCC63392F0C3947FCC
:10149300402E94184019C9B90704CACBCC22502551
:1014A300C309CA33CACB33CBCC33CC33D9F422F4FC
:1014B300600DC9CCC313CB13CBCA13CAD9F6CC2244
:1014C300E4FCFBFA2214FCFBFA22E6261846184633
:1014D300184622E72719471947194722181818E60B
:1014E3000846087009E626087005E633F422082248
:1014F300191919E70947097009E727097005E7333F
:10150300F4220922E6084608C3134608336002E6BC
:1015130033F422E7094709C3134709336002E7336A
:10152300F422121507602512151660201214CD70CF
:10153300030214D6080808E76670101819E76670E6
:101543000A1819E76670041819E76622F4221215BF
:1015530007601C12151660171214CD70071214D6EB
:101563007001D322C0D01214D67006D0D0B322C3D8
:101573002233D0D0501430E0F6C3E7960809E7963B
:101583000809E7960809E796B32220E0D5E697080D
:1015930009E6970809E6970809E697B322121507A3
:1015A300601B12151660161214CD70071214D66044
:1015B3000CB322C0D01214D67005D0D022C322336C
:1015C300D0D0501330E0EBC3E7960809E79608093B
:1015D300E7960809E7962220E0E4E6970809E697EC
:1015E3000809E6970809E6972200121507604F12CB
:1015F30015166012E7548066F61214DF7011121488
:10160300D6703B090909F4F618F618F618F62212F3
:1016130014F370151214CD08080860EAE6447FF647
:1016230018768018E4F618F6221214CD60161214F8
:10163300D67012E4F608F608F608E65480F60909AF
:101643000918181822EAC0E0EBC0E0ECC0E0EDC0D6
:10165300E0E687F0A4FBACF008E687F0A42CFCE4FA
:1016630035F0FA1809E687F0A42C4B60027401CA1E
:1016730035F0FCE433FB09E687F0D2F7A42CCB3535
:10168300F0FC1908E687F0A42BCC35F0FBE433FD1E
:101693000819E687F0D2E7A42C4ACB35F0CD340005
:1016A300FC09E687F0D2E7A42DCC35F0FDE433FA4C
:1016B3000918E687F0D2F7A42CCD35F0CA3400FC24
:1016C30008E687F0D2E7D2F7A42ACC35F07A7E2059
:1016D300E70B0ACB33CBCD33CDCC33CC33CB335029
:1016E300147004ED30E00ED2F1E4CD3DCDCC3CCC12
:1016F3003B5005DA05C2F1EB547FC63308E633925B
:10170300F0FBE73309E733C39A502D2B70190C0D07
:101713004C4D70151806E608C333700D20F10AA26C
:10172300F013F6E418800B4024E4F630F0027680E0
:1017330018F618F618F68024D33B14501074FFA241
:10174300F013F6187680E418F618F6800FA2F0135B
:10175300F618E63303F618ECF618EDF6D0E0FDD0F4
:10176300E0FCD0E0FBD0E0FA221215166046121519
:1017730007603DE9687008F618F618F618F6227443
:101783008067F71217A0090909748067F7221215F9
:1017930007601D1215167005191919801A1214DF26
:1017A300701F1214F3C37003E66733191919400746
:1017B3001818182208080874FFF618F618F618F611
:1017C300221214F360171214D6702192F01214CD62
:1017D3007019501720F014080808090909E7F618CA
:1017E30019E7F61819E7F61819E7F6221214CD606F
:1017F300E6E869701F0808E62480F608E436F61860
:10180300547FB47F0CE654806007F6E418F618F6AC
:1018130022181822E9C6CC08C6CD08C6CE08C6CF02
:10182300C0E0E8C0E0EAC0E0EBC0E009E9F809E79E
:10183300FA09E7FBE6F918E6F8C3EC98ED99EE9A96
:10184300EBC2E7F5F0EFC2E795F0500E600CEBCF7B
:10185300FBEACEFAE9CDF9E8CCF8EAA2E7D2E7FA57
:10186300EB33FB13F5F0EEA2E7D2E7FEEF33FFC550
:10187300F013A2E730E601B313C5F0C3C0E0C0F034
:101883007F00C39BFB605E9418600F401D14601AB9
:10189300D0E023F9D0E0F80219728AF0E948600336
:1018A300D2F0E4AFF0FAF9F8803BEB30E40D89F0C5
:1018B300EA6003D2F0E4AFF0F9CAF8EB30E30D8845
:1018C300F0EF6002D2F0AFF0E4CAC9F8EB5407605E
:1018D30014FBC3EA13FAE913F9E813F8EF13500200
:1018E300D2E0FFDBEDD0E0C0E030E739C3E49FFF97
:1018F300F5F0EC98FC42F0ED99FD42F0EE9AFE42D1
:10190300F0D0E0F9D0E0F8E5F0607AE923F9EE20D1
:10191300E742D8028067C3EF33FFEC33FCED33FDBE
:10192300EE33FE80EAEC28FCED39FDEE3AFED0E022
:1019330023F9D0E0F84002801BC3EE13FEED13FD44
:10194300EC13FCEF135002D2E0FF08B800067F7FD0
:1019530074FF802EEF3350178CF020F00260100CD0
:10196300BC000C0DBD00080EBE000408E860DFE9F2
:1019730033E813FFEE2313FE4F4D4C8008E95480E8
:10198300FFE4FEFDFCEE33EF33F47004FCFD7E80D8
:10199300D0E0FBD0E0FAD0E0F8D0E0CFC618CEC656
:1019A30018CDC618CCC6F9221215077004181818DA
:1019B30022121516700D74FFF61819F61819F61879
:1019C30019F622E7548066F61214CD700F1214D65E
:1019D30070F014F608F608F608F680D11214D670E3
:1019E3000CF608F608768008E6447F80EC1214F6BD
:1019F300700C1214E260BFE65480F6E480BB12144C
:101A0300E2700519191980A5E869700C763F1876FC
:101A13008018F618F6E8F922E6CDC0E018ECC0E02D
:101A2300E633CD33CDD313F6E719FCE7191933CCDD
:101A330033C3947F400ECD9D502408E65480F6E4D2
:101A430018F6800FF4043D14501408E6447FF6188A
:101A53007680E418F618F6D0E0FCD0E0FD22CCD373
:101A630013CCFD18E4C6CBC0E018E4C6CAC0E00836
:101A730008ED08C633E613F618E433C675F003C35E
:101A8300CA97CA09CB97CB199C40047D08802EBD09
:101A93000003021B5416B6FF050606081618C3CA30
:101AA30033CACB33CB33CA27CA09CB37CB193CC391
:101AB3007D08803E187D0820E75CC633C6CA33CA5A
:101AC300CB33CB33DDF1D5F0EB30E77BCA97CA09D3
:101AD300CB974ACB199C406F4B7025E620E02180C1
:101AE30066187D08C3CA97CA09CB97CB199CD3C67E
:101AF30033C6CA33CACB33CB3350C9DDE7D5F0E1A4
:101B0300D3E4C636C608C636C608C636C608C636C1
:101B1300C61818188031C3CA97CA09CB97CB199C2A
:101B2300B34097C633C6CA33CACB33CB33DD34D5C0
:101B3300F02EC6A2E0C640C8CA27CA09CB37194A45
:101B430070BECB3CB480B90808E63308E633601FA7
:101B5300181818D0E0FAD0E0FBD0E0FCD0E0FD226A
:101B6300187D08CA27CA09CB37CB193CD380801309
:101B7300F618E4B67F11F618B6FF0EF618C6047011
:101B8300D20808768080CAF618F618F680C50808C9
:101B930008EAC0E0EBC0E086F0E7A4FA180986F093
:101BA300E7A42AFA180986F0E7A42AFA180986F0A6
:101BB300E7A42AFA1986F0E7A4FBE5F02AFA190844
:101BC30086F0E7A42BFBE5F03AFA190886F0E7A4C0
:101BD3002BFBE5F03AFA18180986F0E7A4C5F02BB9
:101BE300FBE43AFA1908E7C5F0C6A426F6E5F03B8C
:101BF300FBE43AFA1886F0E7A4F6E5F00826F6E4E3
:101C03003B08F6E43A08F6D0E0FBD0E0FA22E4CF52
:101C1300C0E0E4CEC0E0E4CDC0E0E4CCC0E075F0C9
:101C230020E626F608E633F608E633F608E633F64A
:101C3300181818EC33FCED33FDEE33FEEF33FFC31E
:101C4300EC9709ED9709EE9709EF97191919400FCA
:101C5300FFEC97FC09ED97FD09EE97FE191906D5E0
:101C6300F0BFECF709EDF709EEF709EFF7191919CA
:101C7300D0E0FCD0E0FDD0E0FED0E0FF2218181841
:101C8300E4C396F608E496F608E496F608E496F6B6
:101C9300226016080808C6C313C618C613C618C69A
:101CA30013C618C613C6D5E0EA227009080808222D
:101CB3006016181818C6C333C608C633C608C63319
:101CC300C608C633C6D5E0EA22E627F60809E63792
:101CD300F60809E637F60809E637F622E026F6089D
:101CE300A3E036F608A3E036F608A3E036F622E0D2
:101CF30026F008A3E036F008A3E036F008A3E036A8
:101D0300F022C3E697F60809E697F60809E697F680
:101D13000809E697F622C3E0C696F608A3E0C6963E
:101D2300F608A3E0C696F608A3E0C696F622C3E03B
:101D330096F008A3E096F008A3E096F008A3E096D7
:101D4300F022E056F608A3E056F608A3E056F6089C
:101D5300A3E056F622E056F008A3E056F008A3E00D
:101D630056F008A3E056F022E647F60809E647F6E0
:101D73000809E647F60809E647F622E0F608A3E075
:101D8300F608A3E0F608A3E0F622E6F008A3E6F0DF
:101D930008A3E6F008A3E6F022E0FAA3E0FBA3E041
:101DA300FCA3E0FD22EAF0A3EBF0A3ECF0A3EDF03B
:101DB30022E0FCA3E0FDA3E0FEA3E0FF22ECF0A3FE
:101DC300EDF0A3EEF0A3EFF022E0F8A3E0F9A3E037
:101DD300FAA3E0FB22E8F0A3E9F0A3EAF0A3EBF017
:101DE30022CAC0E0E6F0A308DAFAD0E0FA22CAC0B9
:101DF300E0E0A3C582CCC582C583CDC583F0A3C56E
:101E030082CCC582C583CDC583DAE6D0E0CA22C3BE
:101E1300E498F8E499F9121E538026C3E49AFAE48D
:101E23009BFBE920E7E9121E53E498F8E499F922B1
:101E3300C3E498F8E499F9121E53E498F8E499F985
:101E4300C3E49AFAE49BFB22EB20E7CFE920E7E027
:101E5300B90010BB0008E88AF084F8AAF022E4FB7A
:101E6300C8FA22EB70227B10C833C8C933C9335078
:101E730007C39AC3DBF280069A50012ADBEAC83310
:101E8300F4C8C933F4C9FA2275F008E4C833C8C9E1
:101E930033C933C99AC99B5004C92AC93BD5F0EC4D
:101EA300FBC833F4C8E4C9FA22600D08C6A2E713DD
:101EB300C618C613C6D5E0F322600C08C6C313C602
:101EC30018C613C6D5E0F422700422600D18C6C3E9
:101ED30033C608C633C6D5E0F41822254110AF082F
:101EE300F541400C15428008F54140021542D2AF3E
:101EF3002200C0D0254110AF08F541500C054280A7
:101F030008F54150020542D2AFD0D0222541F582D7
:101F130010AF08F541400C15428008F54140021509
:101F230042D2AF854283222541F582E43542F583CF
:101F3300222541F8E43542F9222541FAE43542FBF2
:101F4300222541FCE43542FD22E4732541C582C0CC
:101F5300E0E54234FFC583C0E0E541C3958224F840
:101F630010AF08858342858241800885834285823C
:101F730041D2AFCEF0A3E520F0A37821E608F0A389
:101F8300DEFAEFF0A3E58124FAF8E608F0A3E60809
:101F9300F0A3E608F0A30808E608F0A3E608F0A318
:101FA30015811581D0E0FED0E0F8158115811581EA
:101FB300E8C0E0EEC0E0222541C582C0E0E542343E
:101FC300FFC583C0E0E541C3958224F910AF0885BE
:101FD30083428582418008858342858241D2AFCE88
:101FE300F0A3E520F0A37821E608F0A3DEFAEFF0F2
:101FF300A3E58124FBF8E608F0A3E608F0A30808AC
:10200300E608F0A3E608F0A315811581D0E0FED021
:10201300E0F815811581E8C0E0EEC0E02285428337
:10202300854182E0A3FEE0A3F5207821E0A3F60832
:10203300DFFAE0A3FFE0A3C0E0E0A3C0E0E0A3C0B9
:10204300E0E0A3C0E0E0A3C0E010AF0885824185D3
:1020530083428008858241858342D2AFD083D08278
:1020630002011F854283854182E0A3FEE0A3F520A0
:102073007821E0A3F608DFFAE0A3FFE0A3C0E0E0E5
:10208300A3C0E0E0A3C0E0E0A3C0E010AF088582F6
:10209300418583428008858241858342D2AFD083C4
:1020A300D08222C0D02541C582C0E0E54234FFC5BD
:1020B30083C0E0E541C3958224F310AF08858342D2
:1020C3008582418008858342858241D2AFC8F0A3CF
:1020D300E9F0A3EAF0A3EBF0A37921E709F0A3D891
:1020E300FAECF0A3EDF0A3EEF0A3EFF0A3D0E0F051
:1020F300A3D0E0F0A3D0E0F0A3E520F0A3E5F0F057
:10210300A322854283854182E0C0E0A3E0F9A3E0F6
:10211300FAA3E0FBA37821E0F608A3DFFAE0FCA32F
:10212300E0FDA3E0FEA3E0FFA3E0C0E0A3E0C0E086
:10213300A3E0F5D0A3E0F520A3E0A3F5F010AF08EA
:102143008583428582418008858342858241D2AF5F
:10215300D082D083D0E0F8D0E032740480067402D9
:1021630080027401C0E0F404121F0FD0E0121DE4DA
:10217300227404800474028000CCC0E0EDC0E0E56A
:1021830041C39CCCAD4250011D10AF068C418D4222
:1021930080068C418D42D2AF121DF1D0E0FDD0E01C
:1021A300FC22D083D082E9C0E0E493A3C386F0C5C8
:1021B300F095F0F908E493A386F0C5F095F0700B61
:1021C300E493A3C3994005E9048002A3E475F002F4
:1021D300A42582F582E5F03583F583D0E0F9E49315
:1021E300A3C0E0E493C0E022D083D082ECC0E0ED52
:1021F300C0E0E493A3FCE493A3FDED4C600D122235
:1022030037EC24FFFCED34FFFD80EFE493A3FCE403
:1022130093A3FDED4C600D122276EC24FFFCED340C
:10222300FFFD80EFD0E0FDD0E0FCE493A3C0E0E449
:1022330093C0E022C0E0C3E4939608740193961818
:10224300400FE49366700808740193661870007079
:1022530019A3A3C3E49396087401939618A3A34008
:102263000DD0E0D0E0D0E0022227A3A3A3A3A3A331
:10227300D0E022C0E0C0F088F0E4936670080874F0
:10228300019366187000A8F0A3A3700BD0F0D0E000
:0E229300D0E0D0E0022227A3A3D0F0D0E022BA
:1022A400C0E074EF1220A6A2859005DD402DE070F9
:1022B4002C75443C9005D77401F09005DD122399E8
:1022C4006005754707E4F09005E0E060109005DED6
:1022D400E4F09005D8F09005E08001E4F0A2869047
:1022E40005DE402EE0702D75443C9005D87401F055
:1022F4009005DE1223996005754707E4F09005E028
:10230400E060159005DDE4F09005D7F09005E0F06D
:102314008006E4F0E544602074FF2544F544701819
:10232400E5A8FED2AF7A007B40900281E0F912105A
:1023340007EEA2E7A2E792AFE547600B74FF2547DB
:10234400F54770031203F57845E62401F608E436F0
:10235400F6C3E54594E2E54694044034E5A8FED28C
:10236400AF7545007546009091267821121D7E9028
:102374000ABC7821121CF27A007B10900281E0F9E9
:10238400121007EEA2E7A2E792AF9005E07401F005
:102394007F04022105F09005D9E4F09005DFE022E6
:1023A40074F5121FBAEAFEEBFFEE2434F8EF3400A2
:1023B400F988218922EE24351224D0F8EE2437122C
:1023C40024D0F523EC8523F0A4FCAAF08523F0EDBA
:1023D400A42AFDE82CF8E43DF97A257B00121E536B
:1023E400EA852182852283F074075AF87401B800C3
:1023F400028004C333D8FCFBEA131313541FF8EE12
:1024040028F8EF3400F9E8245DF582E91224D35B5F
:102414006003EA801CEE24361224D0F5F0EA84A886
:10242400F0EE28F8EF3400F9E82438F582E91224B4
:10243400D3F97F0402206674F5121FBAEAFEEBFF9B
:10244400EE24341224D0C0E0EE2435F582EF3400BB
:10245400F583D0E0F08E828F83A3A3A3A3A3E0FA35
:10246400A3E0FB8E828F83A3A3A3A3A3A3A3E0FC77
:10247400A3E0FDECC39AF523ED9BF524EE247FF550
:1024840021EF3400F522852182F583E06401702B6D
:10249400EE2480F582EF3400F5831221781224D9DA
:1024A4007402121EF4E960137C527D08EEFAEFFB0D
:1024B400120B63852182852283E4F0AC23AD24EEE4
:1024C400FAEFFB1223A4122CFF022436F582EF3418
:1024D40000F583E022C082C083854182854283E087
:1024E400F8A3E0F9C3EA9CEB9D5010C3EC98ED9976
:1024F400401BC3EA98EB995014800EC3EA98EB99F9
:102504004007C3EC98ED994004790180027900D02A
:1025140083D08222EAC39CFAEB9DFB2274ED121F46
:10252400BA900718E064086005E06407702C9061B5
:10253400C8E06026900746E0F874FF68601CE87500
:10254400F003A4C8AAF02AF9744828FE740739FFD6
:102554008E828F83A3A3A3E0700579000226C0EEC8
:102564002468F529EF3400F52A906060E08529821B
:10257400852A83F07523BB75240875210075220014
:10258400E5D914F527E5D95403F528601CEE248217
:10259400F525EF3400F526740365286058E52760B7
:1025A40013EE24671224D0700B793DEEFAEFFB1280
:1025B4000B8780A69008B6E0640160268525828595
:1025C4002683E06004780480027800852721E521D1
:1025D400C398FA95E0FB120A138A218B22EA45225A
:1025E4007006120DCD02255E852582852683E07056
:1025F400048A238B2478008016E5D9C0E0882BE573
:1026040023252BF582E5243400F583D0E0F008E897
:10261400C3952740E4852582852683E0602874FCE1
:102624002527F5277823122161AC27A928EEFAEF94
:10263400FB120C357402121EF4E9700AAA21AB22B3
:102644001211C90225AD74036528605885272575C4
:1026540026007825122161AC23AD24AA21AB2212D5
:102664000BF97402121EF4852982852A83E0F8741A
:102674008068700575257F80028825E525F5237817
:1026840023122165E528F5237823122165A927ACB7
:1026940021AD22900746E0FA7B001208B1740212C1
:1026A4001EF48013900718E06408600BAC23AD247B
:1026B400EEFAEFFB120CCB120DD979017F0C02203C
:1026C4006674F3121FBA74FC121EDEEAFEEBFF8975
:1026D40021A2AFE433F522C2AFEE2463F523EF3435
:1026E40000F5248010AA23AB24120BB11211C99057
:1026F4000859E004F0852382852483E0F8A3E0F9F7
:10270400E849602FE82402FAE93400FBEA2402F5E0
:1027140025EB3400F52678251221618A828B83E02B
:10272400FCA3E0F9EEFAEFFB120BA57402121EF4FF
:10273400E960B2900859E0605790085AE0F89008B0
:1027440059E0C398500C74026521704490085BE012
:10275400603E8E828F83A3A3A3A3E085418285423A
:10276400831227A47402121F2AE81227A49008587F
:10277400E028F07402121F2AAC82AD838541828561
:102784004283AA82AB8379011208BD900859E4F010
:10279400E522A2E092AF7404121EF47F06022066C2
:1027A400F0A3E4F0900859E0F822000085488785FA
:1027B40049C622C0E074EF1220A6A2AFE433FEC2E1
:1027C400AF759B00906182E0A2E05012E591A2E017
:1027D400500C7591FE740165487003122520E0A227
:1027E400E55051E591A2E5504B7591DF900718E053
:1027F40064076005E06408702374016548703579E6
:1028040001900746E0FA75F003A4CAA8F028FB7407
:10281400482AFA74073BFB1226C58018E0640D7041
:102824001390073AE004F064287002E4F07A00E0C0
:10283400F9120DDF906182E0A2E640030228DEE592
:1028440091A2E640030228DE7591BF900718E06468
:10285400057008120D0D120D198003120D13754821
:1028640000120D7FE9900719F07900120D73120A16
:10287400D37A017B00900717E0F9121007907803D0
:10288400E0644270559008BAE014F0704DC2AF1283
:102894002896007851D0E0F618D0E0F6E59F54076A
:1028A40070057522FF800375227FC4C0E07850E66E
:1028B400F52108E65522F522740B7821121EBCD0AE
:1028C400E02521F8906270E0A2E740F8E8C3339075
:1028D4006272F0906270E0D2E0F0906181E0A2E375
:1028E4005009E5E9A2E3500375E9F7A3E0A2E75034
:1028F40009E591A2E7500375917FEEA2E092AF7FC4
:1029040004022105C0E0C0D0C082C083906183E08E
:10291400A2E05009E5BFA2E0500375BFFEE0A2E1CA
:102924005009E5BFA2E1500375BFFDE0A2E25009E2
:10293400E5BFA2E2500375BFFBE0A2E35009E5BF87
:10294400A2E3500375BFF7E0A2E45009E5BFA2E497
:10295400500375BFEFE0A2E55009E5BFA2E55003BF
:1029640075BFDFE0A2E65009E5BFA2E6500375BFDC
:10297400BFD083D082D0D0D0E032C0E074F2122035
:10298400A6E5A7A2E4500FE5A1A2E4500953A7EFDE
:1029940075A1EF1229D2E5A7A2E5500CE5A1A2E5A5
:1029A400500653A7DF75A1DFE5A7A2E15009E5A111
:1029B400A2E1500375A1FDE5A7A2E2500CE5A1A296
:1029C400E2500653A7FB75A1FB7F0102210574F8B1
:1029D400121FBA754801900718E0640670077A0060
:1029E4007B00120CF5A2AFE433FED2AF90071EE0D9
:1029F400640170187A207B00900717E0F912109791
:102A04007A207B00900717E0F912100D906182E0A4
:102A1400D2E6F09008B7E0602185C6498016900799
:102A24001DE064017008E5C654F84405F5C653BEBC
:102A3400FC1227B07401654860E4EEA2E092AF7F17
:102A4400010220668E4A8F4B85824F85834E8541D5
:102A540082854283E0CEA3E0CF854F82854E83EB0F
:102A6400C9EAC8EDCBECCA75F010C3E833C8E93342
:102A7400C9EA33CAEB33CBC3EA9EF54DEB9FF54C61
:102A8400B35004AB4CAA4DEC33CCED33CDD5F0DAD6
:102A9400AE4AAF4B2274F1121FBA8A218B228C23C7
:102AA4008D249091227821121D45740F121F2A78CB
:102AB40025121D7E9091227825121D4578217925B5
:102AC4001213879090DE501078217925121D057815
:102AD400211213A74014800E78257921121D057840
:102AE400251213A750047901800279007F0802207F
:102AF4006674ED121FBA8A218B228C238D24909147
:102B0400227821121D457413121F2A7825121D7E66
:102B14009091227825121D4578257921121387403A
:102B24001178217925121D05AA21AB22AC23AD24ED
:102B34008022752900752A00752B00752C017829CF
:102B44007925121D0578297921121CCCAA29AB2AD2
:102B5400AC2BAD2C7F0C0220669091227821121DA3
:102B64007E8A828B837821121D587F04022066742A
:102B7400F5121FBA8C828D837821121D7E8A828B76
:102B8400837821121D31122BC7C3E098F0A3E0997A
:102B9400122BB9401E90915E7821121D7E8A828B81
:102BA400837821121CF28E828F83E02420F0A3E02C
:102BB400344EF080A4F08E828F83C3E09420A3E08F
:102BC400944E22EA2404F8EB3400F9E8FEE9FF8C81
:102BD400828D83A3A3A3A3E0F8A3E0F98E828F835D
:102BE4002274F5121FBAE9FE90086DE0FAA3E0FB27
:102BF400EEC333F8E433F974D328F582748F39F5CE
:102C040083E02AF521A3E03BF5227821122161908B
:102C1400910A121D9C122A487402121EF48A218BF6
:102C2400228C238D2474107821121C94AA21AB22A7
:102C34007F0402206674F1121FBA8A258B268C2722
:102C44008D28740F121F2AE0FAA3E0FB7411121FDF
:102C54002AE0F521A3E0F5227821122161EA24017A
:102C6400F521EB3400F522E4F523F52478257921C8
:102C7400121B919090EA7821121D7E7825792112F9
:102C84001B91AA25AB26AC27AD28122A4874021240
:102C94001EF48B22EA452260047A0180027A00EC59
:102CA4002AFCED3400FD7413121F2AE0F8A3E0F9A6
:102CB400E8FEE9FFECF8EDF97A717B02121E538805
:102CC400218922E4F523F5248E828F837821121D35
:102CD4008DECF8EDF97A717B02121E538A218B2256
:102CE40074057821121ECB8E828F83A3A3A3A3E540
:102CF40021F0A3E522F07F08022066C082C083E9A8
:102D0400906000F0D083D08222C2AF02000022C0C3
:102D1400E074F21220A6A2AFE433FED2AFC2C0E543
:102D2400D1A2E4500653D1EF1211ABEEA2E092AF60
:102D34007F01022105C0E0C0D0E8C0E0E9C0E0E5C1
:102D4400A8D2AFC2C7A2E7A2E792AFD0E0F9D0E021
:062D5400F8D0D0D0E032FF
:102D5C00FFFFFFFFFFFFFFFF121EF47F0202202088
:102D6C00D083D08202011FC082C0839005BE124264
:102D7C0083F09005BEE0F48A828B83A3F09005BFAC
:102D8C0012434B9005BF122DE4F09005C0122DF2AA
:102D9C00F09005C0122DE4A3A3F09005C1122DF202
:102DAC00A3A3F09005C1122E00F09005C2122E08BC
:102DBC00F09005C2122E00A3A3F09005C3122E08AA
:102DCC00A3A3F09005C3E0F4C0E0EA240BF582E481
:102DDC003BF583D0E0F08088122DE822E0F48A8263
:102DEC008B83A3A3A322122DF622E08A828B83A3CA
:102DFC00A3A3A322122DE8A3A3A3A322122DF6A30F
:102E0C00A3A3A32274F4121F4E780090055FE05424
:102E1C000F2405FA90055EE064FE7037752301857A
:102E2C002321745E2521F582E43405F583E028F82E
:102E3C00052374022AF9E523C39940E3745E123327
:102E4C002C3405F583E0F968600574BC697004796D
:102E5C0001800279008001F07F0402202074F712B7
:102E6C001F4E7B00900F87E4F0900F86F0EB123230
:102E7C006988828983A3A3A3A3E0A2E75005900FDE
:102E8C0087801188828983A3121DB4EC4D4E4F604C
:102E9C0006900F86E004F00BEBC3943240CF7F0119
:102EAC0002202074F4121F4E75210A75220078211D
:102EBC001221617C007D007A727B0F12131F740249
:102ECC00121EF4900310E0A2E05007900F72E0D2B3
:102EDC00E0F0900532E0A2E05007900F72E0D2E1F2
:102EEC00F0900310E0A2E15007900F72E0D2E4F0F2
:102EFC00900532E0A2E15007900F72E0D2E5F0901D
:102F0C000310E0A2E25007900F73E0D2E0F09005BE
:102F1C0032E0A2E25007900F73E0D2E1F090031080
:102F2C00E0A2E35007900F73E0D2E4F0900532E09A
:102F3C00A2E35007900F73E0D2E5F09005D7E07054
:102F4C00199005D8E07008900F74E0D2E0800A6404
:102F5C00017007900F74E0D2E1F0900FAAE06401C9
:102F6C007007900F74E0D2E6F0900311E0640170EA
:102F7C0007900F74E0D2E7F0900F86E0900F76F098
:102F8C00900F87E0900F75F0900F8AE0900F77F01C
:102F9C00900F8BE0900F78F0900F881230E9900F23
:102FAC0089E0900F7AF0900BC47821121D7EE521F8
:102FBC001242DF740A022E6374F0121F4E900565E4
:102FCC00E0900F72F0900566E0F8900F73F074FFCC
:102FDC0028F9C394044008900F8574010230BE890F
:102FEC0082858221752200900575E060051230EF14
:102FFC008025752301752400E97823121ECBE52367
:10300C005543600F7A031210D38A238B24A823A96B
:10301C0024800478007900E8900F741230D3121ECB
:10302C00CB1230C4121D7E852521E521900F76121E
:10303C0030DC121C94E525A31242E2740DF09005CD
:10304C0067E0F86068C39405506374FF28F98982BF
:10305C00858221752200900575E060051230EF80A5
:10306C0025752301752400E97823121ECBE5235521
:10307C0043600F7A031210D38A238B24A823A9242C
:10308C008004780079009005671230E9E8A31230CB
:10309C00D3121ECB1230C4121D7E852521E5219042
:1030AC000F7C1230DC121C94E525A38005900F8553
:1030BC007407F07F08022020741B2521F58274030D
:1030CC003522F583782522F0E9A3F07402782122C9
:1030DC00F0852622E522A3F07410782522E0900FCB
:1030EC0079F02218E829F8E433F9744828F5827449
:1030FC000C1231012239F583E0F8A3E0F92274F6C1
:10310C00121F4E74E9121EDE7E00900F85E0F890BF
:10311C000F70E048F07F01800888828983E02EFEE2
:10312C000F8F82AA82746F2AF8E4340FF9900F85FE
:10313C00E07D00240250010DC39AED9400A2D265EB
:10314C00D03350D5EE88828983F074012AF521742E
:10315C0002121F2AE521F075220078211221617CD0
:10316C006F7D0F7405121F2AAA82AB83120FB374E2
:10317C0002121EF485418285428374251242DAF9CB
:10318C00AC41AD42900F8CE0FAA3E0FB1206FB9031
:10319C0005CDE064017002E4F07417022D6474F143
:1031AC00121F4E900F8AE4F0A3F0900F88F0A3F05A
:1031BC00F527E527123269E82403FAE439FBE82401
:1031CC0002FCE439FD8C218D2288828983A38582BF
:1031DC0023858324E82404FCE439FD8C258D268C7E
:1031EC0082F583E0A2E75029852382852483E0FCC5
:1031FC00900F8A123296900F8A12328A900F8A128E
:10320C0032798D83E0FA900F8A123280900F8A8087
:10321C003688828983A3121DB4EC4D4E4F602D85E8
:10322C002382852483E0FC900F88123296900F88BD
:10323C0012328A900F88123279852683E0FA900F29
:10324C0088123280900F88E02812427C0527E527EF
:10325C00C3943250030231BE7F0702202075F00563
:10326C00A4F8A9F0743D28F8740339F92212427AB3
:10327C008525822212427A88828983E0F822E02C0A
:10328C0012427C8A828B83E0FA22E02C12427C85EB
:10329C002182852283E0FC2274F4121F4EE98C21DA
:1032AC008D2275F00AA4F523E5F0F524E5235407E7
:1032BC00FC74037823121EBCEA2523F8E43BF97452
:1032CC00B22CF582E43490F583E0FA88828983E0AD
:1032DC005AF0ECFAE521BA00028004C333DAFCFAA6
:1032EC00E04AF074022CF523A3AA82AB8394085015
:1032FC002174B212332C3490F583E0F4F88A828B6B
:10330C0083E058F07408C39C7821121EBCE0452160
:10331C00800BE4F074027821121EBCE521022E63AE
:10332C002523F582E42274E8121F4E900F85E4F0F9
:10333C00752113F52278211221617C007D007A6FB2
:10334C007B0F12131F7402121EF490055FE054F0F1
:10335C00F522900F6F74FCF0E522A3F0900560E06D
:10336C00900F71F0900561E06003023445A3E060BA
:10337C0003023445A3E06003023445A3E06003027A
:10338C0034459005BDE4F09005DAF0E522C4F52251
:10339C00900566E0F9900565E0FA9005BDE06401E2
:1033AC0070030234D3740A65227003023E7E740DDE
:1033BC0065227003023FB6740E65226003024267F9
:1033CC007EFF7FFFEA900F72F0E9A3F0900571E0A9
:1033DC00700302425974516A600302406C740169B3
:1033EC006003023FC5752108752200782112216106
:1033FC007C677D057A5F7B0F1213197402121EF421
:10340C0012103DEAC0E0EBC0E0ECC0E0ED900F53D1
:10341C00FBD0E0FAD0E0F9D0E0F8121DD87521000D
:10342C001243A5C0E01243D4D0E012434540F174DE
:10343C00022521900F8502406B7521008063852346
:10344C0082AE828C258D2674027825121ECB74AE2A
:10345C002E12428EF583E0F874612EF582E4340569
:10346C00F583E0687030EEC39403402A9005BD7478
:10347C00011247E18A828B83E0F47003A3E0F460CD
:10348C000A8A828B83E0240112427CEC90052FF097
:10349C00900FAB740AF00523E523C39404409F05F9
:1034AC002112435C4003023397752300852182ACC3
:1034BC00827D00EC2CF8E433F974CE28F8740239D0
:1034CC00F9E8FAE9FB80CF74FF2AFB752301752418
:1034DC00007823121ECBA823E9F525E4F526F52761
:1034EC00F528900568E0F52D900567E0F529E522B3
:1034FC00603B14603E1460491470030235B81470BC
:10350C00030237FB24FC70030238B7147003023932
:10351C00F4147003023E7E24FE7003023ED314703A
:10352C0003023FB61470030233CC0242601212A1A4
:10353C0002427274016A60030242721212A70242C2
:10354C0072EA702E7401697008900310740FF08089
:10355C004BE54360097543009005DF7401F090055D
:10356C0033E4F0120401900310E4F0A3F09005DAB8
:10357C00802DC39405501F8821E8F4F874016990DC
:10358C0003107009E04521F09005338006E058F0F7
:10359C00900532E058F0900310E06004A37401F041
:1035AC009005737401F01243170237F3E4F52EF50E
:1035BC002FF5307408782D121CADF52AF52BF52C4F
:1035CC00782D7929121D6B7408782D121CAD782D6D
:1035DC007925121D6B7408782D121CAD8A25782D57
:1035EC007925121D6B8A29852E2A852F2B85302C47
:1035FC00752100900569E0FC1243C6A378291213CB
:10360C004C70088A828B83E06C60090521E521C32C
:10361C00943240E4E521C3943250030237F5900F05
:10362C0086E0F8900F87E0FAE82AF8E43400F9E82D
:10363C009432E99400C365D0334003024260752193
:10364C0000E52175F005A4F8A9F0743E28F5827404
:10365C000339F583121DCCE8494A4B60090521E575
:10366C0021C3943240DBE521C39432400302426013
:10367C00E52175F005A4F8A9F0743D28F5827403D2
:10368C0039F583ECF0A37829121D8D90915278298D
:10369C001213A7402990914E78291213A750089025
:1036AC00914A7829121CDF9090EE7825121D7E78B5
:1036BC00297925121C11E5299005750237E69091A0
:1036CC000678291213A750030237E7852A26852B83
:1036DC0027852C289090FA782D121D7E7825792D2F
:1036EC00121C11E52524FE25E0FCE433FD90057940
:1036FC00E0F5229090FA7825121D7E782979251212
:10370C001C11E5254526452745287061752100E5E6
:10371C002175F00AA4A9F02405FEE439FF90057A7E
:10372C0012435F8522235005752400800BE523246A
:10373C00FFF523E434FFF524740C7823121ECBE53B
:10374C00244FFF85212375240074037823121ECB8C
:10375C0074372CF874043DF9E81242B2E91242892C
:10376C00EEF0A3EF1242F5941F506A80A285252932
:10377C0085262A85272B85282C9090EE782D121DD6
:10378C007E7825792D121C11A82DA92E7A0A7B0082
:10379C00121E538825852223752400740C7823125D
:1037AC001ECBAA25E94524FB9090EE7825121D7EB0
:1037BC0078297925121C1174037829121ECB7437C1
:1037CC002529F87404352AF9E82CF582E93DF583AE
:1037DC00EAF0A3EBF09005367401F012129B121272
:1037EC00B31242D590053504F0900F85023A88EA61
:1037FC007003024272C39405504E1AEA2BFAE4335A
:10380C00FB74822AFA74023BFBEA2491F582E43BB6
:10381C00F583E9F0EA2492F582E43BF583E529F09F
:10382C00E96011E52D600D900312E048F09005CE93
:10383C00E048800EE8F4F8900312E058F09005CEC2
:10384C00E0581242E2023C6574806A6003024272E4
:10385C00900F727480F0900313E0900F73F090034C
:10386C0014E0900F74F0900315E0900F75F0900336
:10387C0016E0900F76F0900317E0900F77F090031E
:10388C0018E0900F78F09003191230E990031AE0C9
:10389C00900F7AF0900312E0540FF89005CEE0C42C
:1038AC0054F0281242DF740A0242717522007E0025
:1038BC007F008E2375250678251221617C007D0002
:1038CC007A727B0F12131F7402121EF48E21E521E3
:1038DC0075F005A4F8A9F0743D28FC740339FDECCF
:1038EC002404F527E43DF528852782F583E0A2E73B
:1038FC0050040522800F8C828D83A3121DCCE849C5
:10390C004A4B60010EEC2403F52BE43DF52CEC2422
:10391C0002F529E43DF52A8C828D83A3A882A98324
:10392C00852282AA82EF7054900565E0F524C39439
:10393C00645007EE6524600E8042E524C394654014
:10394C003B12429C70367F01E524900F72F0888206
:10395C008983E0900F73F0852982852A83E0900F8C
:10396C00741242CC900F751242C3900F76F08C8279
:10397C008D83E0900F771242E27406F0900566E0BA
:10398C00F5246055E523A2E0404FE524C394645030
:10399C0007EE6524600E8041E524C39465403A121D
:1039AC00429C7035752301E524900F78F08882894C
:1039BC00831230E9852982852A83E0900F7A12429E
:1039CC00CC900F7B1242C3900F7CF08C828D83E0E5
:1039DC00900F7D1242E2740CF00521E521C3943264
:1039EC0040030242720238DAEA900F72F074016AF4
:1039FC0070757A667B0512043D8A298B2A8C2B8D77
:103A0C002C90914EC0828A258B268C278D28900273
:103A1C00E37825121D19758391D08278251213A78E
:103A2C00501A752100852123752400740278231205
:103A3C001ECB1242B0740312433A40E99002E37871
:103A4C0029121D8D75237775240578231221611297
:103A5C0010F77402121EF47A777B0512110390058D
:103A6C00317401F0023F40898285822375240074F1
:103A7C00026A70391242E77007900537E40242710E
:103A8C00C394055003024272E99005C8F0900537C3
:103A9C007401F0047823121ECBE52324FDF8E524F1
:103AAC0034FFF99005C6E8F0A3E902427174036A89
:103ABC006003023B821242E7700B900FAAE4F09075
:103ACC00030F024253740169700C900FAA7401F039
:103ADC0090030F024252740269706290056BE09081
:103AEC00030F7003E480027401F0900568E0F99014
:103AFC000567E0FAE9FBEA75F01EA4FAA8F075F088
:103B0C001EEBA428FB9002DFEAF0A3EBF090056A11
:103B1C00E0F9900569E075F01EA4F8ACF075F01EA4
:103B2C00E9A42CF99002E1E8F0A3E9F0E86A70024C
:103B3C00E96B6003023D2690030F023C6574036938
:103B4C0060030242729002DF124352121E53E8903D
:103B5C000F74F0E9A3F09002E1124352121E53E8E5
:103B6C00900F76F0E9A3F090030FE0900F781242DB
:103B7C00E2740702427174046A6003023C2D900FD8
:103B8C00857401F0900569E0F529E4F52AF52BF52B
:103B9C002C74087829121CADF52EF52FF5307829E8
:103BAC00792D121D6B74087829121CAD900567E0F5
:103BBC00F52D7829792D121D6B74087829121CADFE
:103BCC0078297925121D6B7521001243C6E0F890F7
:103BDC00056AE06870368A828B83A385822385838D
:103BEC0024782912134C7024900569E0A2E7500543
:103BFC00900F878003900F86E0600214F08523827B
:103C0C00852483124300F08A828B83F00521E52101
:103C1C00C3943240B51212B31242D5900535023D11
:103C2C002974056A6003023D00124308702F752148
:103C3C0000802175230085212575260074027825C6
:103C4C00121ECB85232774AE252712428E1242B743
:103C5C0040E4052112435C40DAE4023D4FE9600385
:103C6C0002427275210012435C40030242727523BA
:103C7C0000852182AA828A25752600740278251275
:103C8C001ECB74822525F874023526F9852382AC67
:103C9C0082E82CFEE439FFEE242CF582E43FF58318
:103CAC00E0FE74672CF582E43405F583E06E700950
:103CBC000523E523C3940440D3E523C39404402F88
:103CCC00752300852325E82525FCE439FDEC242CFF
:103CDC00F582E43D1242B740EAEA2AFAE433FB7477
:103CEC00CE2AF58274023BF583E4F0A312432A0535
:103CFC0021023C7274066A704D12430870237521C0
:103D0C000085212375240074027823121ECB741BAA
:103D1C001242B2740312433A40E7124317040242B0
:103D2C0071E97003024272C394054003024272743B
:103D3C00027823121ECB74171242B27403124289FA
:103D4C00124300F080D474076A6003023E26E9C374
:103D5C0094204003024272E9900F73F07004A3E4C4
:103D6C00802474037823121ECB742F1242B2740475
:103D7C00124289E0F523A3E0F524740C7823121E7B
:103D8C00BCE523900F74F0752100900566E0F525D5
:103D9C008521828582237524007031740278231268
:103DAC001ECB1242B074031242897825121D7E90EC
:103DBC00917E7825121CDF9091727829121D7E78E5
:103DCC00257929121C11AE25AF26802D752600747D
:103DDC00037825121ECBE52325E0F523E433F524E7
:103DEC00742F2523F874043524F9E82525F582E988
:103DFC003526F583E0FEA3E0FFEEFCEFFDA9217A6A
:103E0C00757B0F1212B90521E521C39404500302EE
:103E1C003D96900F85740802427174FC6A7040E9FB
:103E2C00C394034003024272E975F003A4F523E541
:103E3C00F0F52474E52523FA74053524FB90056709
:103E4C00124283F0900568124283A3F09005691228
:103E5C00434BE9900F731247E19005DB023FAD74C1
:103E6C00FD6A6003024272E9900575F0900F7302CF
:103E7C003FAD900F7274011242DA12103DEAC0E0AD
:103E8C00EBC0E0ECC0E0ED900F53FBD0E0FAD0E0DB
:103E9C00F9D0E0F8121DD87521001243A5C0E0122C
:103EAC0043D4D0E012434540F175230675240078C5
:103EBC00231221617CBE7D057A787B0F1213197455
:103ECC0002121EF4023FBDEA900F72F0E9A3F0EA71
:103EDC0070687401697021752100852182A8821295
:103EEC004384E0C0E01243D4D0E0F060380521E513
:103EFC0021C3940C502F80E2740269600302427259
:103F0C00752100852182A88274A212437B3402F5AC
:103F1C0083E0C0E01243D4D0E0F060090521E52134
:103F2C00C3940C40DEE521C3940C4004740280025F
:103F3C0074032521900F8502427174016A6003029B
:103F4C00427274016970137521001243E8124384A4
:103F5C00EA6043124324504A80F074026970197568
:103F6C0021001243E8749E12437B3402F583EA600D
:103F7C0025124324502C80EA7403697025752100A6
:103F8C001243E874A612437B3402F583EA600712ED
:103F9C004324500E80EAE4F0900F5D740212431C2F
:103FAC0004F0900F8574020242717A727B0F121228
:103FBC008F900F85740C02427174026970797523AD
:103FCC000875240078231221617C677D057A677B54
:103FDC000F1213197402121EF4752100124374345B
:103FEC00021243F940F675210A852182A88274B425
:103FFC0012437B34051243F940EF7A747B0F121293
:10400C008F752100852182A8821243E3FA12439610
:10401C001242F4940C40ED7521001243B9745F12F6
:10402C00332C340F12438E40F17523087823122160
:10403C00617C5F7D0F8017740369600302427275A7
:10404C00230875240078231221617C677D0F7A7414
:10405C007B0F1213197402121EF4900F85740AF060
:10406C00900565E064C56003024272A3E0640170D0
:10407C002175230875240078231221617C677D0546
:10408C007A5F7B0F1213197402121EF4900F857451
:10409C0002F0900566E06402600302427275230828
:1040AC0075240078231221617C677D057A677B0F6C
:1040BC001213197402121EF47A747B0F12128F9061
:1040CC000F80124300F0F5211243743402F583E0A3
:1040DC00F41243E21242F4941040ED7521001243A5
:1040EC00B9747412332C340F12438E40F1752100C5
:1040FC00852182A8821243961243E26A7009052137
:10410C00E521C3941040E9E521C394105003024209
:10411C0045900561E0FA700FA3E0700BA3E0700707
:10412C00A3E0700302422C9002DEE0F523C3940856
:10413C0050030241C6752200752100A821E828F819
:10414C00E433F974CE28F5827402123101C3E89E6F
:10415C00E99F5007E8FEE9FF8521220521E521C3EF
:10416C00952340D785222374027823121ECB7482A8
:10417C002523F874023524F9E8242CF582E439F56A
:10418C0083EAF0900562E0C0E0E8242DF582E43982
:10419C00F583D0E0F0900563E0C0E0E8242EF582D2
:1041AC00E439F583D0E0F0900564E0C0E0E8242F1A
:1041BC00F582E439F583D0E0806374027823121E13
:1041CC00CB74AE1242B27402124289EAF0900562CC
:1041DC00E0C0E0124366121ECB74AF1242B27402FE
:1041EC00124289D0E0F0900563E0C0E01243661201
:1041FC001ECB74B01242B27402124289D0E0F0901D
:10420C000564E0C0E0124366121ECB74B11242B2D8
:10421C007402124289D0E0F09002DEE00412432ACC
:10422C009005BD7401F0900571E4F09005DAF09002
:10423C000F741242E27403802C900F74EE1242E25F
:10424C007403F09005BDE4F09005DA8018900F72BD
:10425C0074FB800C900F7274FF8005900F7274FDCC
:10426C001242E27401F01212AD7F10022020E02AFB
:10427C00F0A3E03400F022E08A828B83223524F50F
:10428C008322F8E43402F9E82525F582E935262263
:10429C00852425E525249CF525E434FFF526E52524
:1042AC006A452622742B2523F58222F583E4F0053A
:1042BC0023E523C3940422F0852782852883E022FA
:1042CC00F0852B82852C83E022900F5D740AF0A37D
:1042DC00E4F022900F7BF0900F8522E9900F73F0A1
:1042EC00900F857402F0E9222A1242F922F005217E
:1042FC00E521C322E4F0A3F0A3F0A322E9900F730D
:10430C00F0900F857402F074FF6922900F5D740AAF
:10431C00F0A3E4F0900534221242F9940822F090B4
:10432C000F5D740AF0A3E4F090053404F0223524F8
:10433C00F583E4F0A3F0A3F0A31242F99404221243
:10434C004283A3A3F022E0F8A3E0F97A1E7B0022BB
:10435C009002DEE0F8E521C398229002DEE0F5231E
:10436C007524007402782322852182A88274861217
:10437C00437F2228F582E422749612437F3402F59F
:10438C008322F583E0281244052212439A22745F9B
:10439C0012437F340FF583E022852182A8821243D9
:1043AC00AE22745312437F340FF583E0227403550D
:1043BC0021F81243AEF885212322E521123269E857
:1043CC00FAE9FB8A828B83221243D822747412433B
:1043DC007F340FF58322FA1243D8E022852182A87C
:1043EC0082746712437F3405F583E0FA22F583E08B
:1043FC00FA12439A2A12440522F00521E521C394AE
:10440C00102274F4121F4E74C7121EDEE9900F5165
:10441C00F07C037D007A1F7B001205517401121F82
:10442C002A7401F0740A121F2AE4F0A3F085418269
:10443C0085428304F07408121F2A74081242DA743D
:10444C0006121F2A1242D87404121F2AE4F0A3F099
:10445C007402121F2A7458F0A37402F014121F4431
:10446C0079017A057B03121247740A121F447902F0
:10447C007A067B03121247740C121F3C790012044B
:10448C0043740C121F3C120FADEAF5227A207B000C
:10449C0012104F8A238B24AE23AF24EE4F6043744B
:1044AC000125228E828F83F0A37409F08522237557
:1044BC0024007823122161740E121F44EE2402FA98
:1044CC00E43FFB120FB37402121EF4EEFCEFFD740A
:1044DC00022522F97A087B03121247EEFAEFFB123F
:1044EC0010557C947D1179077A077B03121247AC27
:1044FC0041AD4279017A107B031212477408121FE6
:10450C004479027A117B031212477406121F447904
:10451C00027A127B031212477404121F4479027A36
:10452C00137B031212477402121F4479027A147B14
:10453C0003121247740C121F447A1879001206A148
:10454C007CA07D007A067B001205517CA07D007A50
:10455C00077B001205517CA07D007A087B001205B8
:10456C00517CA07D007A097B0012055190915E125E
:10457C001D9C1206A790915E121D9C1207A9121188
:10458C000990915E121D9C1212E3908FA07426125A
:10459C001F447413121DF17426121F447A137905EB
:1045AC001212EF7A9F7B111212E97900120893799B
:1045BC000312088D7A017B00900F51E0F91210075D
:1045CC007439121EF4022E6474F6121F4EEAFEEBBE
:1045DC00FF54806016900F51E0F9120FEFEA4B6018
:1045EC0003120FDDEEFAEF64808011EEA2E0500FA3
:1045FC007A9B7B11121253EE6401FAEFFB800E547E
:10460C00026006EE6402FA80047A007B00022D67D9
:10461C0074F7121F4E74D9121EDEE9FE14602714B3
:10462C00700302477B1470030247A6147003024701
:10463C00AD14700302478214700302479F14700379
:10464C000247B40247BB900F507401F0AC41AD422D
:10465C007A047B0312124D7405121F2AE09005BEDA
:10466C00F07404121F2AE0F89005BFF07403121FB7
:10467C002AE0F99005C0F07402121F2AE09005C1DF
:10468C00F07401121F2AE09005C2F0854182854228
:10469C0083E09005C3F07404121F2AE4F074031233
:1046AC001F2AE4F09005BEE0C0E07407121F2AD068
:1046BC00E0F07406121F2AE8F07405121F2AE9F0C4
:1046CC00AC41AD427A08790012110F7408121F2AFE
:1046DC00740EF07409121F2A74FFF0740A121F2A48
:1046EC00AC82AD837A047B0312124D740A121F2A1A
:1046FC00E0F4C0E07410121F2AD0E0F0740B121F0B
:10470C002AE0F4C0E07411121F2AD0E0F0740C12ED
:10471C001F2AE0F4C0E07412121F2AD0E0F0740DCE
:10472C00121F2AE0F4C0E07413121F2AD0E0F074B8
:10473C000E121F2AE0F4C0E07414121F2AD0E0F00D
:10474C00740F121F2AE0F4C0E07415121F2AD0E077
:10475C00F07416121F2A7401F07408121F447408A6
:10476C00121F2AE004F97A087B0312124780469044
:10477C000F507402803E900F507403F07C577D0FE5
:10478C007A15FB12124D7C8C7D0F7A0E7B03121264
:10479C004D8022900F507404801A900F5074058035
:1047AC0013900F507406800C900F50740780059076
:1047BC000F507408F0EE900F521247E1900F52E038
:1047CC00640560099005BDE4F0900537F07427127C
:1047DC001EF4022EAAF09005DAE4F02202011F74F6
:1047EC00F6121F4E74EC121EDEE9FE74056E705D3F
:1047FC00AC41AD427401121F3C79051212F5854192
:10480C0082854283E0F8888285822175220090059A
:10481C0030E064017012E4F078211221617403120B
:10482C001F447A4B7B0580117401F07821122161B1
:10483C007403121F447A387B051213197402121E6A
:10484C00F47A107B00900281E0F9121007741402C4
:10485C002D6474F7121F4EE9900657F07C8F7D067D
:10486C007AFF7BFF12080990065874FFF0A3F0A39F
:10487C00E4F0A3F0790512079D900657E0F91206B3
:10488C00CB7A277B081209CB7F0102202074F4120B
:10489C001F4E8A218B22EB54806030900657E0F932
:1048AC00120FEF8A238B24AE23AF24EE4F60138EAE
:1048BC00828F83E064B070031207B5EEFAEFFB123F
:1048CC000FDDAA21E5226480FB80047A007B0002C4
:1048DC004AB074F2121F4E74FC121EDEEAFEEBFF9D
:1048EC00EE4F60387402121F2AEEF0A3EF124D1532
:1048FC00ECF0A3ED124D15AA82AB831206C5E9F5B7
:10490C002170737412121F2A1258C9E523452460B2
:10491C00658E828F8312498CEE4F70057521028053
:10492C00557A067B0012104F8A258B26A825A926BE
:10493C00E8497005752113803D88828983E412490A
:10494C0096A3A3EEF0A3EF125D62E523F0A3E5249A
:10495C00F090065D124A1E90065D6017E0FCA3E025
:10496C008003EAFCEBFD8C828D83124A1E70F38C63
:10497C00828D831257EEA9217404121EF4025EEC90
:10498C00A3A3A3A3E0FEA3E0FF22F0A3F0888289F7
:10499C00832274F2121F4E8923E975F017A4FEAF1F
:1049AC00F090065CE4F090065A124A1E600A12104F
:1049BC005590065AE4F0A3F0EEFAEFFB12104F8A72
:1049CC00218B22EA4522602FEEFCEFFD7900120FBD
:1049DC00CB90065AE521F0A3E522F07B008008126B
:1049EC004A08E4F0A3F00BEBC3952340F2E52390C7
:1049FC00065CF0790080027913025EECEB75F0171F
:104A0C00A4F8A9F090065AE028FAA3E0398A82F5B6
:104A1C008322125584EA4B2274F4121F4E75210026
:104A2C00752200740C121F2A125D36FEE9FF800CF1
:104A3C00E5212401F521E5223400F522C3E5219C72
:104A4C00E5229D503285212385222474037823127C
:104A5C001ECBEA2523F8EB3524F988828983A3A39E
:104A6C00A3A3A3A31258C9EE65237003EF652470AA
:104A7C00BFE8FAE9FB80047A007B00802774F4120B
:104A8C001F4E7900EAA2E0501B7521C27522907866
:104A9C00211221617C047D007A6D7B1012079774C2
:104AAC0002121EF47F04022020C082C08390065D97
:104ABC00124AE8601C88828983A3A3E06A7003A36E
:104ACC00E06B8882898370E8A3A3A3A3125580802E
:104ADC00047A007B00D083D08202011F125FBFE8F2
:104AEC00492274EE121F4E74FC121EDEEAFEEBFF1E
:104AFC00854182854283E4F0A3F0EE24021257D262
:104B0C00EE2405124D03EE2404F527EF1250E8E0D5
:104B1C0024FE603924FC604624FE605224FE605E54
:104B2C0024FE7003024C0824FE7003024C8024FE09
:104B3C007003024C8F24FE7003024C9E24FC700305
:104B4C00024CAD24FE7003024CBC024CF99006766C
:104B5C007417F0A3E4124D1D12046D024CF985413B
:104B6C0082854283AC82AD831207BB024CC985415E
:104B7C0082854283AC82AD831207C1024CC9852564
:104B8C00218526227402121F2AAC82AD83852182D4
:104B9C008522831255801206E38A258B26AC25AD1F
:104BAC0026EC4D6042E4F525F52678251221617539
:104BBC0025767526067825122161752577752606CA
:104BCC0078251221617408121F2A12217879161285
:104BDC00557A1207FD7408121EF4E9F525700B12B4
:104BEC005576120485800F752501852182852283D7
:104BFC00124D0B1257EE852521024CCC7402121F5C
:104C0C002AAC82AD838525828526831255801206B7
:104C1C00E38A298B2AAC29AD2AEC4D604385258289
:104C2C00852683A3A3122178752976752A067829FF
:104C3C00122161752977752A067829122161740869
:104C4C00121F2A122178791612557A1207FD740850
:104C5C00121EF4E9F522700B12557612048B800F9C
:104C6C00752201852582852683124D0B1257EE8500
:104C7C002221804C854182854283AC82AD83120710
:104C8C00C7803A854182854283AC82AD831207CDC1
:104C9C00802B854182854283AC82AD831207D38001
:104CAC001C854182854283AC82AD831207D9800D6D
:104CBC00854182854283AC82AD831207DFE9F52101
:104CCC00E52160298E828F83A3E06414601F852701
:104CDC0082852883E0900676124D15125FBB9006F4
:104CEC00771257EEE521A3124D1D120467EEFAEF71
:104CFC00FB1207610256DAF525EF3400F526221275
:104D0C005FBF85418285428322F085418285428343
:104D1C0022F07C767D06852382852483125584229D
:104D2C0074EE121F4E74FC121EDE8A238B248C2709
:104D3C008D28EA2405F521EB3400F5227C157D0045
:104D4C0079007A767B06120FCBE5212402F525E556
:104D5C0022124D0685418285428385822985832ACC
:104D6C007829122161852182852283A3A3A3A31212
:104D7C005230122161E5212405F529E5223400F594
:104D8C002A782912216185258285268312558A125B
:104D9C0006DD7406121EF48A298B2AAE29AF2AE589
:104DAC00232402F523E5241257D5EE4F7003024E4F
:104DBC00F280177402121F2A12558088828983EAA6
:104DCC00F0A3EBF0900676E004F0900676E0C39446
:104DDC00054003024EF2E4F529F52A7829122161E7
:104DEC0075295F752A067829122161752960752A43
:104DFC000678291221617406121F2A122178791063
:104E0C00EEFCEFFD12557A1207FD7408121EF4E940
:104E1C00705E852182852283A3A3A3A3A3A3A3E011
:104E2C00F890065FE06870481252301221617C6085
:104E3C007D06E5212408FAE5223400FB120FC57427
:104E4C0002121EF4E960298E828F83A3A3A3A312FE
:104E5C005580900676E0F52974027829121ECB74E1
:104E6C00772529F5827406352AF583EAF0A3EBF051
:104E7C007402121F2A85822985832A7829122161BE
:104E8C007402121F2A122178852582852683125FCF
:104E9C00D01206E97404121EF48A298B2AAE29AFAB
:104EAC002A900676E0F529752A0074027829121EDC
:104EBC00CB74762529F87406352AF988828983A360
:104ECC00124A1E7003024DB6E82403F8E93400F9C7
:104EDC00EE4F6003024DBF8882898374FFF0A3F00C
:104EEC00900676E004F0900676E0600A1255761291
:104EFC0004797900800B8521828522831257E5790C
:104F0C000A0256DA74EA121F4E74FE121EDE8C2B45
:104F1C008D2CEA2405F525EB12613A124990752186
:104F2C0000752200EA2402F529EB3400F52A8541AC
:104F3C00828542838582238583247823122161858F
:104F4C002582852683A3A3A3A31250F2122161E527
:104F5C00252405F523E5261257D5782312216185E2
:104F6C002582852683125FCE1206DD7406121EF48E
:104F7C008A238B24EA452470030250A3EA2404F507
:104F8C0027EB1250E81249908A828B83A3A3A3E0EB
:104F9C00F9852982852A831255801206D1E9F522DA
:104FAC0060030250A3E4F52DF52E782D12216175C6
:104FBC002D5F752E06782D122161752D60752E06CC
:104FCC00782D1221617406121F2A1221787913ACE4
:104FDC0023AD24852982852A831255801207FD74FE
:104FEC0008121EF4E9F52260030250A390065FE05C
:104FFC00F8E5217009E02402900677F080179006FE
:10500C0077E0FCE82402FAE43400FBEA6C7001EB74
:10501C0060030250A7852182AA821252279414128F
:10502C00521F5073852782852883E0C0E074782A4C
:10503C001250DFD0E0F00521852782852883A3E07C
:10504C00C0E0852123747825231250DFD0E0F005D1
:10505C002190065F1250F21221617C607D06852141
:10506C002374782523FA74063400FB120FB37402F0
:10507C00121EF490065FE02521F52174FF6E70037B
:10508C0074FF6F6012EE24010EEF3400FFE521C3B4
:10509C0094145003024F3AE521601312546B852986
:1050AC0082852A8312558012047F79008014E522B0
:1050BC00700375220A852B82852C83EEF0A3EFF00A
:1050CC00A9227402121EF47F0E0220208521257461
:1050DC00782525F58274063400F583223400F528F2
:1050EC00852782F58322125D752274EE121F4E7491
:1050FC00FE121EDE8C278D28EA2405F525EB124DB9
:10510C0006752400900676E4F0F523EA2402F521D6
:10511C00EB3400F5228049900676E0FA90065FE0C9
:10512C00F8125227941712521F400D900676E0F891
:10513C007416C39890065FF01252301221617C6095
:10514C007D0674772AFA74063400FB120FB37402CE
:10515C00121EF490065FE0F8900676E028F0052326
:10516C00E5252416F582E5261250E3E0F8E523C385
:10517C00984003025208900676E0C39416507DE5E1
:10518C0023C333F8E433F9E52528FEE52639FF85FA
:10519C004182854283AC82AD838E828F831255808F
:1051AC001206E38A298B2AAC29AD2AEC4D700575C1
:1051BC0024018043E4F529F52A7829122161752907
:1051CC005F752A067829122161752960752A06787F
:1051DC00291221617406121F2A1221787916852151
:1051EC00828522831255801207FD7408121EF4E981
:1051FC00F52470030251231257E180107C767D0652
:10520C00852182852283125580120491A92474026F
:10521C000256DCE99400C365D03322EA28F8E43462
:10522C0000F9E822E0F529752A0078292274EA129F
:10523C001F4E74FC121EDE8A258B268C2B8D2CEABD
:10524C002405F523EB1257D5752100752200E523B3
:10525C002402F529E5243400F52A7402121F2A854C
:10526C0082278583287827122161852382852483D0
:10527C00A3A3A3A3125D21122161E5232405F52725
:10528C00E5243400F5287827122161852982852AA6
:10529C00831257DB12557A1206DD7406121EF48A3D
:1052AC00278B28AE27AF28E5252402F527E52634E1
:1052BC0000F52880408882898374FFF00521125004
:1052CC00D874FFF0052190065FE0F525752600786F
:1052DC00251221617C607D0685212574782525FAAF
:1052EC0074063400FB120FB37402121EF490065FA6
:1052FC00E02521F521EE4F60718E828F83A3A3A34D
:10530C00E0F98527828528831255801206D1E9F5AC
:10531C0022EE2404124D03E97044E4F52DF52E78A9
:10532C002D122161752D5F752E06782D1221617558
:10533C002D60752E06782D1221617408121F2A1209
:10534C0021787911EEFCEFFD852782852883125593
:10535C00801207FD7408121EF4E9F52260278525DA
:10536C00828526831254611257EEE5217003025494
:10537C004712546B85278285288312558012049717
:10538C00790002545C852182AA82EA90065F70093A
:10539C00E02404900677F08022E0F8900677E0F5A0
:1053AC002DE82404FCE43400FDEC652D7001ED7057
:1053BC00C0125227941212521F50B6852582852690
:1053CC0083E0C0E074782A1250DFD0E0F00521852C
:1053DC002582852683A3E0C0E01250D8D0E0125479
:1053EC007D85822585832678251221617404121F00
:1053FC002A122178852982852A83125FD01206E928
:10540C007404121EF48A258B26AE25AF2685212521
:10541C0074782525F874063400F9EE4F70030252A7
:10542C00C1854182854283E08882898312547DA3A1
:10543C00E0C0E01250D8D0E00252CFE522700375E4
:10544C00220A8523828524831254611257EEA922E5
:10545C0074040250D0125FBF852B82852C8322905E
:10546C000677E0F5F0E52184900676F07C767D06F3
:10547C0022F005218541828542832274EC121F4E55
:10548C0074FE121EDE8A218B228C278D28EA2405BD
:10549C00FEEB3400FF854182854283AC82AD838E66
:1054AC00828F831255801206E38A238B24EE2418F4
:1054BC00124D03EA452470030255511256C3503263
:1054CC008541828542831255801207F18A298B2AE5
:1054DC00EA452A606B7912AC23AD248521828522A2
:1054EC0083125580852982852A83121F4CE9F52366
:1054FC007058E4F523F52478231221618E828F8372
:10550C00A3A3E0F5237823122161EE24031257D2D2
:10551C0078231221618E828F8312558A12080374AC
:10552C0006121EF4E9F5237021852582852683E079
:10553C00701F85218285228312558012049D801153
:10554C0075230E80097523018004E523600312572F
:10555C00E1852582852683E0600479008002A923F9
:10556C007402121EF47F0C0220207C767D068523AB
:10557C008285248312558422E0FAA3E0FB22E0FC0E
:10558C00A3E0FD8521828522831255842274EE12BC
:10559C001F4E74FE121EDE8A218B228C258D26EA6C
:1055AC002405FEEB3400FF7527008541828542837C
:1055BC00AC82AD838E828F831255801206E38A23D0
:1055CC008B24EA452470030256AF1256C35035851E
:1055DC0041828542831255801207F18A278B28EA73
:1055EC004528605E7912AC23AD2485218285228307
:1055FC00125580852782852883121F4CE9F5276078
:10560C00030256B28521828522831258C9AA23FB34
:10561C001207E58A298B2AA829A92AE849701E7A3B
:10562C00FF7BFF1207E58A298B2AA829A92AE849BA
:10563C00606C88828983E523F0A3E524F075230050
:10564C00800775270E805F052390065CE0FAE52342
:10565C00C39A504AE52375F017A4FAABF0888289F7
:10566C0083A3A3E02AFAA3E03BFB8A828B83125725
:10567C00DBEC4D70D2752317752400782312216151
:10568C00EEFCEFFD120FB37402121EF4EEFCEFFDF4
:10569C008521828522831255801204A380147527DC
:1056AC00098003752701125FB78525828526831231
:1056BC0057EEA92702521AE5212402F521E52234DE
:1056CC0000F5228A828B83A3A3A3E0A2E5227404B3
:1056DC00121EF47F0A02202074EC121F4E8C298DAE
:1056EC002AEA2405F525EB124D06752800EA24025A
:1056FC00F523EB1257D5852382F5831255801207BB
:10570C00E58A218B22EA452270030257C7752700D0
:10571C008071852582852683E06401704F8E828F8F
:10572C0083A3A31221788E828F83A3A3A3A3E0F576
:10573C002B752C00782B122161EE2405F52BEF3400
:10574C0000F52C782B12216112557A12080374067D
:10575C00121EF4E9F5286014852582852683E4F071
:10576C00125FB7852982852A831257EE7C177D003C
:10577C007900EEFAEFFB120FCB8E828F83E4F0A34D
:10578C00F0052790065CE0F8E527C398501EE52746
:10579C0075F017A4F8A9F0852182852283A3A312A2
:1057AC0061441257DBEC4D600302571E8521828544
:1057BC00228374FFF0A3F0E528700612557A1204C8
:1057CC00A9A928025571F523EF3400F52422A3E092
:1057DC00FCA3E0FD228E828F83125FBF852782851A
:1057EC002883E8F0A3E9F022C082C083900658E039
:1057FC006A7003A3E06B70067A587B0680047A000B
:10580C007B00024AE1C082C08378008C828D83E0E9
:10581C006A7003A3E06B7010E875F003A4F8A9F0AC
:10582C00EC28FAED39FB8015088C828D83A3A3A399
:10583C00E06A7003A3E06B60DF7A007B00024AE150
:10584C0074F6121F4E1207AF8A828B83E582458352
:10585C0070067A007B008007A3A3A3A312558002D5
:10586C005E6874F2121F4EE9FE740E121F2A125853
:10587C00C97410121F2A125D418C828D83E0640260
:10588C007036A3125FC5F525A3E0F9A8257402684C
:10589C00700374296970217525027526007825120C
:1058AC00216178211221617823122161EEF912080D
:1058BC001B7406121EF480027901025EECE0F523E3
:1058CC00A3E0F5242274E8121F4E74FB121EDEE9CD
:1058DC00854182854283F08A2F8B30ECFEEDFF757B
:1058EC002900741D121F2A125FBB741D121F2A126D
:1058FC0057EE8E828F83A3A3A3E0A2E4502D741DD8
:10590C00121F2A1255801207F18A828B83E5824579
:10591C00837003025D12790AEEFCEFFDAA2FAB3007
:10592C00121F4CE9F5296003025D15741F121F2A22
:10593C00125D417421121F2A1258C97423121F2A96
:10594C00E0F527A3E0F5288E828F83E064026003E4
:10595C00025CC0A3125FBB852182852283A3858252
:10596C002B85832CEE2406124D0388828983E0FA62
:10597C00A3E0F9EA2400F52DE439F52E782D122157
:10598C00EB010000280128B559070002287A5A03B8
:10599C0028E7590029B15B0129DC5B02297D5B03F7
:1059AC0029B15B04295B5CC05CE5274528600302D8
:1059BC005CBB852582852683125D36FAE9FB8A82DB
:1059CC008B83E0852382852483125D6C1221618A8E
:1059DC00828B83A3E0FCA3E0025C45E527452860AD
:1059EC0003025CBB8523828524837401F0125D491C
:1059FC00852182852283F07C007D008E828F83A39B
:105A0C00A3A3A3E02401FAA3E03400FB1206E3EA0B
:105A1C004B60418A828B83E02402F88523828524A3
:105A2C0083E028F0EA2404F8EB3400F988828983B7
:105A3C00E0852B82852C83125D7E125D6C122161B8
:105A4C008A828B831257DAE5212403FAE52234008B
:105A5C00FB025C4A852382852483E02404F07C04C9
:105A6C007D007900AA2BAB2C120FCB025D15E5271C
:105A7C0045286003025CBB125D49FEA3E0FF852351
:105A8C00828524837404F0EE852182852283F0EFD5
:105A9C00852B82852C83F07403121F2AAC82AD8374
:105AAC00EEFAEFFB1206E38A258B26EA45267003F5
:105ABC00025B5E8A828B83A3A312498C7401121F32
:105ACC002A85822785832878271221617405121F65
:105ADC002A1221787CFF7DFF1206E97404121EF451
:105AEC008B28EA45287033852582852683125D2113
:105AFC00122161852582852683A31221787C027D63
:105B0C00007A9E7B911205457404121EF4E9700A0A
:105B1C007401121F2A74FFF0A3F08E828F83E0644D
:105B2C0002703975250275260078251221618E8246
